{
  "contracts/AdCampaignManager.sol": {
    "AdCampaignManager": {
      "abi": [
        {
          "inputs": [],
          "stateMutability": "nonpayable",
          "type": "constructor"
        },
        {
          "inputs": [],
          "name": "EnforcedPause",
          "type": "error"
        },
        {
          "inputs": [],
          "name": "ExpectedPause",
          "type": "error"
        },
        {
          "inputs": [
            {
              "internalType": "address",
              "name": "owner",
              "type": "address"
            }
          ],
          "name": "OwnableInvalidOwner",
          "type": "error"
        },
        {
          "inputs": [
            {
              "internalType": "address",
              "name": "account",
              "type": "address"
            }
          ],
          "name": "OwnableUnauthorizedAccount",
          "type": "error"
        },
        {
          "inputs": [],
          "name": "ReentrancyGuardReentrantCall",
          "type": "error"
        },
        {
          "anonymous": false,
          "inputs": [
            {
              "indexed": false,
              "internalType": "string",
              "name": "campaignCode",
              "type": "string"
            },
            {
              "indexed": false,
              "internalType": "uint256",
              "name": "budget",
              "type": "uint256"
            }
          ],
          "name": "AdCampaignCreated",
          "type": "event"
        },
        {
          "anonymous": false,
          "inputs": [
            {
              "indexed": false,
              "internalType": "string",
              "name": "campaignCode",
              "type": "string"
            },
            {
              "indexed": false,
              "internalType": "address",
              "name": "advertiser",
              "type": "address"
            },
            {
              "indexed": false,
              "internalType": "uint256",
              "name": "amount",
              "type": "uint256"
            }
          ],
          "name": "BudgetWithdrawn",
          "type": "event"
        },
        {
          "anonymous": false,
          "inputs": [
            {
              "indexed": true,
              "internalType": "address",
              "name": "previousOwner",
              "type": "address"
            },
            {
              "indexed": true,
              "internalType": "address",
              "name": "newOwner",
              "type": "address"
            }
          ],
          "name": "OwnershipTransferred",
          "type": "event"
        },
        {
          "anonymous": false,
          "inputs": [
            {
              "indexed": false,
              "internalType": "address",
              "name": "account",
              "type": "address"
            }
          ],
          "name": "Paused",
          "type": "event"
        },
        {
          "anonymous": false,
          "inputs": [
            {
              "indexed": false,
              "internalType": "string",
              "name": "campaignCode",
              "type": "string"
            },
            {
              "indexed": false,
              "internalType": "uint256",
              "name": "paymentAmount",
              "type": "uint256"
            }
          ],
          "name": "PaymentReleased",
          "type": "event"
        },
        {
          "anonymous": false,
          "inputs": [
            {
              "indexed": false,
              "internalType": "string",
              "name": "campaignCode",
              "type": "string"
            },
            {
              "indexed": false,
              "internalType": "uint256",
              "name": "paymentAmount",
              "type": "uint256"
            }
          ],
          "name": "PaymentReleasedOnWithdrawApproval",
          "type": "event"
        },
        {
          "anonymous": false,
          "inputs": [
            {
              "indexed": false,
              "internalType": "address",
              "name": "account",
              "type": "address"
            }
          ],
          "name": "Unpaused",
          "type": "event"
        },
        {
          "anonymous": false,
          "inputs": [
            {
              "indexed": false,
              "internalType": "string",
              "name": "campaignCode",
              "type": "string"
            }
          ],
          "name": "WithdrawalRequested",
          "type": "event"
        },
        {
          "inputs": [],
          "name": "adCampaignCount",
          "outputs": [
            {
              "internalType": "uint256",
              "name": "",
              "type": "uint256"
            }
          ],
          "stateMutability": "view",
          "type": "function"
        },
        {
          "inputs": [
            {
              "internalType": "uint256",
              "name": "",
              "type": "uint256"
            }
          ],
          "name": "adCampaigns",
          "outputs": [
            {
              "internalType": "uint256",
              "name": "budget",
              "type": "uint256"
            },
            {
              "internalType": "uint256",
              "name": "amountSpent",
              "type": "uint256"
            },
            {
              "internalType": "enum AdCampaignManager.CampaignStatus",
              "name": "status",
              "type": "uint8"
            },
            {
              "internalType": "string",
              "name": "campaignCode",
              "type": "string"
            },
            {
              "internalType": "address",
              "name": "advertiser",
              "type": "address"
            }
          ],
          "stateMutability": "view",
          "type": "function"
        },
        {
          "inputs": [
            {
              "internalType": "string",
              "name": "campaignCode",
              "type": "string"
            },
            {
              "internalType": "uint256",
              "name": "currentAmountSpent",
              "type": "uint256"
            }
          ],
          "name": "approveWithdrawal",
          "outputs": [],
          "stateMutability": "nonpayable",
          "type": "function"
        },
        {
          "inputs": [
            {
              "internalType": "string",
              "name": "",
              "type": "string"
            }
          ],
          "name": "campaignCodesToId",
          "outputs": [
            {
              "internalType": "uint256",
              "name": "",
              "type": "uint256"
            }
          ],
          "stateMutability": "view",
          "type": "function"
        },
        {
          "inputs": [
            {
              "internalType": "string",
              "name": "campaignCode",
              "type": "string"
            },
            {
              "internalType": "uint256",
              "name": "currentAmountSpent",
              "type": "uint256"
            }
          ],
          "name": "claimPayment",
          "outputs": [],
          "stateMutability": "nonpayable",
          "type": "function"
        },
        {
          "inputs": [],
          "name": "createAdCampaign",
          "outputs": [],
          "stateMutability": "payable",
          "type": "function"
        },
        {
          "inputs": [
            {
              "internalType": "string",
              "name": "campaignCode",
              "type": "string"
            }
          ],
          "name": "getAdCampaignByCode",
          "outputs": [
            {
              "components": [
                {
                  "internalType": "uint256",
                  "name": "budget",
                  "type": "uint256"
                },
                {
                  "internalType": "uint256",
                  "name": "amountSpent",
                  "type": "uint256"
                },
                {
                  "internalType": "enum AdCampaignManager.CampaignStatus",
                  "name": "status",
                  "type": "uint8"
                },
                {
                  "internalType": "string",
                  "name": "campaignCode",
                  "type": "string"
                },
                {
                  "internalType": "address",
                  "name": "advertiser",
                  "type": "address"
                }
              ],
              "internalType": "struct AdCampaignManager.AdCampaign",
              "name": "",
              "type": "tuple"
            }
          ],
          "stateMutability": "view",
          "type": "function"
        },
        {
          "inputs": [],
          "name": "owner",
          "outputs": [
            {
              "internalType": "address",
              "name": "",
              "type": "address"
            }
          ],
          "stateMutability": "view",
          "type": "function"
        },
        {
          "inputs": [],
          "name": "pause",
          "outputs": [],
          "stateMutability": "nonpayable",
          "type": "function"
        },
        {
          "inputs": [],
          "name": "paused",
          "outputs": [
            {
              "internalType": "bool",
              "name": "",
              "type": "bool"
            }
          ],
          "stateMutability": "view",
          "type": "function"
        },
        {
          "inputs": [],
          "name": "renounceOwnership",
          "outputs": [],
          "stateMutability": "nonpayable",
          "type": "function"
        },
        {
          "inputs": [
            {
              "internalType": "string",
              "name": "campaignCode",
              "type": "string"
            }
          ],
          "name": "requestAndApproveWithdrawal",
          "outputs": [],
          "stateMutability": "nonpayable",
          "type": "function"
        },
        {
          "inputs": [
            {
              "internalType": "string",
              "name": "campaignCode",
              "type": "string"
            }
          ],
          "name": "requestWithdrawal",
          "outputs": [],
          "stateMutability": "nonpayable",
          "type": "function"
        },
        {
          "inputs": [
            {
              "internalType": "address",
              "name": "newOwner",
              "type": "address"
            }
          ],
          "name": "transferOwnership",
          "outputs": [],
          "stateMutability": "nonpayable",
          "type": "function"
        },
        {
          "inputs": [],
          "name": "unpause",
          "outputs": [],
          "stateMutability": "nonpayable",
          "type": "function"
        },
        {
          "stateMutability": "payable",
          "type": "receive"
        }
      ],
      "evm": {
        "bytecode": {
          "linkReferences": {},
          "object": "60806040523480156200001157600080fd5b5033600073ffffffffffffffffffffffffffffffffffffffff168173ffffffffffffffffffffffffffffffffffffffff1603620000885760006040517f1e4fbdf70000000000000000000000000000000000000000000000000000000081526004016200007f9190620001ca565b60405180910390fd5b6200009981620000c160201b60201c565b5060008060146101000a81548160ff02191690831515021790555060018081905550620001e7565b60008060009054906101000a900473ffffffffffffffffffffffffffffffffffffffff169050816000806101000a81548173ffffffffffffffffffffffffffffffffffffffff021916908373ffffffffffffffffffffffffffffffffffffffff1602179055508173ffffffffffffffffffffffffffffffffffffffff168173ffffffffffffffffffffffffffffffffffffffff167f8be0079c531659141344cd1fd0a4f28419497f9722a3daafe3b4186f6b6457e060405160405180910390a35050565b600073ffffffffffffffffffffffffffffffffffffffff82169050919050565b6000620001b28262000185565b9050919050565b620001c481620001a5565b82525050565b6000602082019050620001e16000830184620001b9565b92915050565b612b3380620001f76000396000f3fe6080604052600436106100ec5760003560e01c8063715018a61161008a5780638da5cb5b116100595780638da5cb5b1461027e578063a649d04f146102a9578063d0ac4013146102ea578063f2fde38b14610327576100f3565b8063715018a6146101fe57806372a79388146102155780637aab369b1461023e5780638456cb5914610267576100f3565b80633f0c4988116100c65780633f0c4988146101565780633f4ba83a1461017f578063415eaedd146101965780635c975abb146101d3576100f3565b8063088b76d4146100f85780630bedb86d146101215780630da949df1461014c576100f3565b366100f357005b600080fd5b34801561010457600080fd5b5061011f600480360381019061011a9190611ba5565b610350565b005b34801561012d57600080fd5b50610136610550565b6040516101439190611c07565b60405180910390f35b610154610556565b005b34801561016257600080fd5b5061017d60048036038101906101789190611ba5565b610740565b005b34801561018b57600080fd5b50610194610ad0565b005b3480156101a257600080fd5b506101bd60048036038101906101b89190611ba5565b610ae2565b6040516101ca9190611dde565b60405180910390f35b3480156101df57600080fd5b506101e8610cad565b6040516101f59190611e1b565b60405180910390f35b34801561020a57600080fd5b50610213610cc3565b005b34801561022157600080fd5b5061023c60048036038101906102379190611e62565b610cd7565b005b34801561024a57600080fd5b5061026560048036038101906102609190611e62565b610fd7565b005b34801561027357600080fd5b5061027c611297565b005b34801561028a57600080fd5b506102936112a9565b6040516102a09190611ecd565b60405180910390f35b3480156102b557600080fd5b506102d060048036038101906102cb9190611ee8565b6112d2565b6040516102e1959493929190611f6e565b60405180910390f35b3480156102f657600080fd5b50610311600480360381019061030c9190611ba5565b6113bd565b60405161031e9190611c07565b60405180910390f35b34801561033357600080fd5b5061034e60048036038101906103499190611ff4565b6113eb565b005b610358611471565b600060028260405161036a919061205d565b9081526020016040518091039020549050600081116103be576040517f08c379a00000000000000000000000000000000000000000000000000000000081526004016103b5906120c0565b60405180910390fd5b6000600360008381526020019081526020016000209050600060028111156103e9576103e8611c31565b5b8160020160009054906101000a900460ff16600281111561040d5761040c611c31565b5b1461044d576040517f08c379a00000000000000000000000000000000000000000000000000000000081526004016104449061212c565b60405180910390fd5b8060040160009054906101000a900473ffffffffffffffffffffffffffffffffffffffff1673ffffffffffffffffffffffffffffffffffffffff163373ffffffffffffffffffffffffffffffffffffffff16146104df576040517f08c379a00000000000000000000000000000000000000000000000000000000081526004016104d6906121be565b60405180910390fd5b60018160020160006101000a81548160ff0219169083600281111561050757610506611c31565b5b02179055507ff7160323284ae4aa0d98de6ca199de6f8af66ee3742f4fee6ddaa64c51266c888360405161053b91906121de565b60405180910390a1505061054d6114b7565b50565b60045481565b61055e6114c0565b610566611471565b600034116105a9576040517f08c379a00000000000000000000000000000000000000000000000000000000081526004016105a090612272565b60405180910390fd5b600460008154809291906105bc906122c1565b919050555060006105cb611501565b90506040518060a0016040528034815260200160008152602001600060028111156105f9576105f8611c31565b5b81526020018281526020013373ffffffffffffffffffffffffffffffffffffffff16815250600360006004548152602001908152602001600020600082015181600001556020820151816001015560408201518160020160006101000a81548160ff0219169083600281111561067257610671611c31565b5b0217905550606082015181600301908161068c9190612515565b5060808201518160040160006101000a81548173ffffffffffffffffffffffffffffffffffffffff021916908373ffffffffffffffffffffffffffffffffffffffff1602179055509050506004546002826040516106ea919061205d565b9081526020016040518091039020819055507fc79154d0a4bae450367237b7422a1e23347c6fcafb5c10d57932694982687b73813460405161072d9291906125e7565b60405180910390a15061073e6114b7565b565b610748611471565b600060028260405161075a919061205d565b9081526020016040518091039020549050600081116107ae576040517f08c379a00000000000000000000000000000000000000000000000000000000081526004016107a5906120c0565b60405180910390fd5b6000600360008381526020019081526020016000209050600060028111156107d9576107d8611c31565b5b8160020160009054906101000a900460ff1660028111156107fd576107fc611c31565b5b1461083d576040517f08c379a00000000000000000000000000000000000000000000000000000000081526004016108349061212c565b60405180910390fd5b8060040160009054906101000a900473ffffffffffffffffffffffffffffffffffffffff1673ffffffffffffffffffffffffffffffffffffffff163373ffffffffffffffffffffffffffffffffffffffff1614806108cd575061089e6112a9565b73ffffffffffffffffffffffffffffffffffffffff163373ffffffffffffffffffffffffffffffffffffffff16145b61090c576040517f08c379a000000000000000000000000000000000000000000000000000000000815260040161090390612689565b60405180910390fd5b60008160010154826000015461092291906126a9565b905060028260020160006101000a81548160ff0219169083600281111561094c5761094b611c31565b5b021790555060008111156109c6578160040160009054906101000a900473ffffffffffffffffffffffffffffffffffffffff1673ffffffffffffffffffffffffffffffffffffffff166108fc829081150290604051600060405180830381858888f193505050501580156109c4573d6000803e3d6000fd5b505b600082600101541115610a26576109db6112a9565b73ffffffffffffffffffffffffffffffffffffffff166108fc83600101549081150290604051600060405180830381858888f19350505050158015610a24573d6000803e3d6000fd5b505b7fba9059f3850aee53fbd909cc5b38d859e4a645f2ad3da7093ab74c7b88f24bf2848360040160009054906101000a900473ffffffffffffffffffffffffffffffffffffffff1683604051610a7d939291906126dd565b60405180910390a17fd94c2a1bdebb5c53e4d8c915ab66e4ac6cb53eb59bb0c69f423bb4f6f6084de3848360010154604051610aba9291906125e7565b60405180910390a1505050610acd6114b7565b50565b610ad861157b565b610ae0611602565b565b610aea6119f4565b6000600283604051610afc919061205d565b908152602001604051809103902054905060008111610b50576040517f08c379a0000000000000000000000000000000000000000000000000000000008152600401610b47906120c0565b60405180910390fd5b600360008281526020019081526020016000206040518060a001604052908160008201548152602001600182015481526020016002820160009054906101000a900460ff166002811115610ba757610ba6611c31565b5b6002811115610bb957610bb8611c31565b5b8152602001600382018054610bcd90612338565b80601f0160208091040260200160405190810160405280929190818152602001828054610bf990612338565b8015610c465780601f10610c1b57610100808354040283529160200191610c46565b820191906000526020600020905b815481529060010190602001808311610c2957829003601f168201915b505050505081526020016004820160009054906101000a900473ffffffffffffffffffffffffffffffffffffffff1673ffffffffffffffffffffffffffffffffffffffff1673ffffffffffffffffffffffffffffffffffffffff1681525050915050919050565b60008060149054906101000a900460ff16905090565b610ccb61157b565b610cd56000611664565b565b610cdf61157b565b610ce7611471565b6000600283604051610cf9919061205d565b908152602001604051809103902054905060008111610d4d576040517f08c379a0000000000000000000000000000000000000000000000000000000008152600401610d44906120c0565b60405180910390fd5b600060036000838152602001908152602001600020905060016002811115610d7857610d77611c31565b5b8160020160009054906101000a900460ff166002811115610d9c57610d9b611c31565b5b14610ddc576040517f08c379a0000000000000000000000000000000000000000000000000000000008152600401610dd390612767565b60405180910390fd5b8060000154831115610e23576040517f08c379a0000000000000000000000000000000000000000000000000000000008152600401610e1a906127d3565b60405180910390fd5b8281600101819055506000838260000154610e3e91906126a9565b905060028260020160006101000a81548160ff02191690836002811115610e6857610e67611c31565b5b02179055506000811115610ee2578160040160009054906101000a900473ffffffffffffffffffffffffffffffffffffffff1673ffffffffffffffffffffffffffffffffffffffff166108fc829081150290604051600060405180830381858888f19350505050158015610ee0573d6000803e3d6000fd5b505b610eea6112a9565b73ffffffffffffffffffffffffffffffffffffffff166108fc859081150290604051600060405180830381858888f19350505050158015610f2f573d6000803e3d6000fd5b507fba9059f3850aee53fbd909cc5b38d859e4a645f2ad3da7093ab74c7b88f24bf2858360040160009054906101000a900473ffffffffffffffffffffffffffffffffffffffff1683604051610f87939291906126dd565b60405180910390a17fd94c2a1bdebb5c53e4d8c915ab66e4ac6cb53eb59bb0c69f423bb4f6f6084de38585604051610fc09291906125e7565b60405180910390a1505050610fd36114b7565b5050565b610fdf61157b565b610fe76114c0565b610fef611471565b6000600283604051611001919061205d565b908152602001604051809103902054905060008111611055576040517f08c379a000000000000000000000000000000000000000000000000000000000815260040161104c906120c0565b60405180910390fd5b6000600360008381526020019081526020016000209050600060028111156110805761107f611c31565b5b8160020160009054906101000a900460ff1660028111156110a4576110a3611c31565b5b146110e4576040517f08c379a00000000000000000000000000000000000000000000000000000000081526004016110db9061212c565b60405180910390fd5b60008160010154846110f691906126a9565b90506000811161113b576040517f08c379a000000000000000000000000000000000000000000000000000000000815260040161113290612865565b60405180910390fd5b60008260010154836000015461115191906126a9565b90506000828211156111635782611165565b815b9050804710156111aa576040517f08c379a00000000000000000000000000000000000000000000000000000000081526004016111a1906128d1565b60405180910390fd5b8084600101546111ba91906128f1565b846001018190555083600001548460010154106111ff5760028460020160006101000a81548160ff021916908360028111156111f9576111f8611c31565b5b02179055505b6112076112a9565b73ffffffffffffffffffffffffffffffffffffffff166108fc829081150290604051600060405180830381858888f1935050505015801561124c573d6000803e3d6000fd5b507f4a1f19202167cbf263d5e4ac0deb8eb1d58700a6e621b10a650d456ed5a5ad53878260405161127e9291906125e7565b60405180910390a150505050506112936114b7565b5050565b61129f61157b565b6112a7611728565b565b60008060009054906101000a900473ffffffffffffffffffffffffffffffffffffffff16905090565b60036020528060005260406000206000915090508060000154908060010154908060020160009054906101000a900460ff169080600301805461131490612338565b80601f016020809104026020016040519081016040528092919081815260200182805461134090612338565b801561138d5780601f106113625761010080835404028352916020019161138d565b820191906000526020600020905b81548152906001019060200180831161137057829003601f168201915b5050505050908060040160009054906101000a900473ffffffffffffffffffffffffffffffffffffffff16905085565b6002818051602081018201805184825260208301602085012081835280955050505050506000915090505481565b6113f361157b565b600073ffffffffffffffffffffffffffffffffffffffff168173ffffffffffffffffffffffffffffffffffffffff16036114655760006040517f1e4fbdf700000000000000000000000000000000000000000000000000000000815260040161145c9190611ecd565b60405180910390fd5b61146e81611664565b50565b6002600154036114ad576040517f3ee5aeb500000000000000000000000000000000000000000000000000000000815260040160405180910390fd5b6002600181905550565b60018081905550565b6114c8610cad565b156114ff576040517fd93c066500000000000000000000000000000000000000000000000000000000815260040160405180910390fd5b565b60606000620f424042443360405160200161151e9392919061298e565b6040516020818303038152906040528051906020012060001c61154191906129fa565b905061154c4261178b565b6115558261178b565b604051602001611566929190612ac3565b60405160208183030381529060405291505090565b611583611859565b73ffffffffffffffffffffffffffffffffffffffff166115a16112a9565b73ffffffffffffffffffffffffffffffffffffffff1614611600576115c4611859565b6040517f118cdaa70000000000000000000000000000000000000000000000000000000081526004016115f79190611ecd565b60405180910390fd5b565b61160a611861565b60008060146101000a81548160ff0219169083151502179055507f5db9ee0a495bf2e6ff9c91a7834c1ba4fdd244a5e8aa4e537bd38aeae4b073aa61164d611859565b60405161165a9190611ecd565b60405180910390a1565b60008060009054906101000a900473ffffffffffffffffffffffffffffffffffffffff169050816000806101000a81548173ffffffffffffffffffffffffffffffffffffffff021916908373ffffffffffffffffffffffffffffffffffffffff1602179055508173ffffffffffffffffffffffffffffffffffffffff168173ffffffffffffffffffffffffffffffffffffffff167f8be0079c531659141344cd1fd0a4f28419497f9722a3daafe3b4186f6b6457e060405160405180910390a35050565b6117306114c0565b6001600060146101000a81548160ff0219169083151502179055507f62e78cea01bee320cd4e420270b5ea74000d11b0c9f74754ebdbfc544b05a258611774611859565b6040516117819190611ecd565b60405180910390a1565b60606000600161179a846118a1565b01905060008167ffffffffffffffff8111156117b9576117b8611a7a565b5b6040519080825280601f01601f1916602001820160405280156117eb5781602001600182028036833780820191505090505b509050600082602001820190505b60011561184e578080600190039150507f3031323334353637383961626364656600000000000000000000000000000000600a86061a8153600a8581611842576118416129cb565b5b049450600085036117f9575b819350505050919050565b600033905090565b611869610cad565b61189f576040517f8dfc202b00000000000000000000000000000000000000000000000000000000815260040160405180910390fd5b565b600080600090507a184f03e93ff9f4daa797ed6e38ed64bf6a1f01000000000000000083106118ff577a184f03e93ff9f4daa797ed6e38ed64bf6a1f01000000000000000083816118f5576118f46129cb565b5b0492506040810190505b6d04ee2d6d415b85acef8100000000831061193c576d04ee2d6d415b85acef81000000008381611932576119316129cb565b5b0492506020810190505b662386f26fc10000831061196b57662386f26fc100008381611961576119606129cb565b5b0492506010810190505b6305f5e1008310611994576305f5e100838161198a576119896129cb565b5b0492506008810190505b61271083106119b95761271083816119af576119ae6129cb565b5b0492506004810190505b606483106119dc57606483816119d2576119d16129cb565b5b0492506002810190505b600a83106119eb576001810190505b80915050919050565b6040518060a00160405280600081526020016000815260200160006002811115611a2157611a20611c31565b5b815260200160608152602001600073ffffffffffffffffffffffffffffffffffffffff1681525090565b6000604051905090565b600080fd5b600080fd5b600080fd5b600080fd5b6000601f19601f8301169050919050565b7f4e487b7100000000000000000000000000000000000000000000000000000000600052604160045260246000fd5b611ab282611a69565b810181811067ffffffffffffffff82111715611ad157611ad0611a7a565b5b80604052505050565b6000611ae4611a4b565b9050611af08282611aa9565b919050565b600067ffffffffffffffff821115611b1057611b0f611a7a565b5b611b1982611a69565b9050602081019050919050565b82818337600083830152505050565b6000611b48611b4384611af5565b611ada565b905082815260208101848484011115611b6457611b63611a64565b5b611b6f848285611b26565b509392505050565b600082601f830112611b8c57611b8b611a5f565b5b8135611b9c848260208601611b35565b91505092915050565b600060208284031215611bbb57611bba611a55565b5b600082013567ffffffffffffffff811115611bd957611bd8611a5a565b5b611be584828501611b77565b91505092915050565b6000819050919050565b611c0181611bee565b82525050565b6000602082019050611c1c6000830184611bf8565b92915050565b611c2b81611bee565b82525050565b7f4e487b7100000000000000000000000000000000000000000000000000000000600052602160045260246000fd5b60038110611c7157611c70611c31565b5b50565b6000819050611c8282611c60565b919050565b6000611c9282611c74565b9050919050565b611ca281611c87565b82525050565b600081519050919050565b600082825260208201905092915050565b60005b83811015611ce2578082015181840152602081019050611cc7565b60008484015250505050565b6000611cf982611ca8565b611d038185611cb3565b9350611d13818560208601611cc4565b611d1c81611a69565b840191505092915050565b600073ffffffffffffffffffffffffffffffffffffffff82169050919050565b6000611d5282611d27565b9050919050565b611d6281611d47565b82525050565b600060a083016000830151611d806000860182611c22565b506020830151611d936020860182611c22565b506040830151611da66040860182611c99565b5060608301518482036060860152611dbe8282611cee565b9150506080830151611dd36080860182611d59565b508091505092915050565b60006020820190508181036000830152611df88184611d68565b905092915050565b60008115159050919050565b611e1581611e00565b82525050565b6000602082019050611e306000830184611e0c565b92915050565b611e3f81611bee565b8114611e4a57600080fd5b50565b600081359050611e5c81611e36565b92915050565b60008060408385031215611e7957611e78611a55565b5b600083013567ffffffffffffffff811115611e9757611e96611a5a565b5b611ea385828601611b77565b9250506020611eb485828601611e4d565b9150509250929050565b611ec781611d47565b82525050565b6000602082019050611ee26000830184611ebe565b92915050565b600060208284031215611efe57611efd611a55565b5b6000611f0c84828501611e4d565b91505092915050565b611f1e81611c87565b82525050565b600082825260208201905092915050565b6000611f4082611ca8565b611f4a8185611f24565b9350611f5a818560208601611cc4565b611f6381611a69565b840191505092915050565b600060a082019050611f836000830188611bf8565b611f906020830187611bf8565b611f9d6040830186611f15565b8181036060830152611faf8185611f35565b9050611fbe6080830184611ebe565b9695505050505050565b611fd181611d47565b8114611fdc57600080fd5b50565b600081359050611fee81611fc8565b92915050565b60006020828403121561200a57612009611a55565b5b600061201884828501611fdf565b91505092915050565b600081905092915050565b600061203782611ca8565b6120418185612021565b9350612051818560208601611cc4565b80840191505092915050565b6000612069828461202c565b915081905092915050565b7f496e76616c69642063616d706169676e20636f64650000000000000000000000600082015250565b60006120aa601583611f24565b91506120b582612074565b602082019050919050565b600060208201905081810360008301526120d98161209d565b9050919050565b7f43616d706169676e206973206e6f742061637469766500000000000000000000600082015250565b6000612116601683611f24565b9150612121826120e0565b602082019050919050565b6000602082019050818103600083015261214581612109565b9050919050565b7f4f6e6c792074686520616476657274697365722063616e20726571756573742060008201527f7769746864726177616c00000000000000000000000000000000000000000000602082015250565b60006121a8602a83611f24565b91506121b38261214c565b604082019050919050565b600060208201905081810360008301526121d78161219b565b9050919050565b600060208201905081810360008301526121f88184611f35565b905092915050565b7f746865206275646765742073686f756c6420626520677265617465722074686160008201527f6e207a65726f0000000000000000000000000000000000000000000000000000602082015250565b600061225c602683611f24565b915061226782612200565b604082019050919050565b6000602082019050818103600083015261228b8161224f565b9050919050565b7f4e487b7100000000000000000000000000000000000000000000000000000000600052601160045260246000fd5b60006122cc82611bee565b91507fffffffffffffffffffffffffffffffffffffffffffffffffffffffffffffffff82036122fe576122fd612292565b5b600182019050919050565b7f4e487b7100000000000000000000000000000000000000000000000000000000600052602260045260246000fd5b6000600282049050600182168061235057607f821691505b60208210810361236357612362612309565b5b50919050565b60008190508160005260206000209050919050565b60006020601f8301049050919050565b600082821b905092915050565b6000600883026123cb7fffffffffffffffffffffffffffffffffffffffffffffffffffffffffffffffff8261238e565b6123d5868361238e565b95508019841693508086168417925050509392505050565b6000819050919050565b600061241261240d61240884611bee565b6123ed565b611bee565b9050919050565b6000819050919050565b61242c836123f7565b61244061243882612419565b84845461239b565b825550505050565b600090565b612455612448565b612460818484612423565b505050565b5b818110156124845761247960008261244d565b600181019050612466565b5050565b601f8211156124c95761249a81612369565b6124a38461237e565b810160208510156124b2578190505b6124c66124be8561237e565b830182612465565b50505b505050565b600082821c905092915050565b60006124ec600019846008026124ce565b1980831691505092915050565b600061250583836124db565b9150826002028217905092915050565b61251e82611ca8565b67ffffffffffffffff81111561253757612536611a7a565b5b6125418254612338565b61254c828285612488565b600060209050601f83116001811461257f576000841561256d578287015190505b61257785826124f9565b8655506125df565b601f19841661258d86612369565b60005b828110156125b557848901518255600182019150602085019450602081019050612590565b868310156125d257848901516125ce601f8916826124db565b8355505b6001600288020188555050505b505050505050565b600060408201905081810360008301526126018185611f35565b90506126106020830184611bf8565b9392505050565b7f4f6e6c79207468652061647665727469736572206f72206f776e65722063616e60008201527f2072657175657374207769746864726177616c00000000000000000000000000602082015250565b6000612673603383611f24565b915061267e82612617565b604082019050919050565b600060208201905081810360008301526126a281612666565b9050919050565b60006126b482611bee565b91506126bf83611bee565b92508282039050818111156126d7576126d6612292565b5b92915050565b600060608201905081810360008301526126f78186611f35565b90506127066020830185611ebe565b6127136040830184611bf8565b949350505050565b7f5769746864726177616c206e6f74207265717565737465640000000000000000600082015250565b6000612751601883611f24565b915061275c8261271b565b602082019050919050565b6000602082019050818103600083015261278081612744565b9050919050565b7f4275646765742065786365656465640000000000000000000000000000000000600082015250565b60006127bd600f83611f24565b91506127c882612787565b602082019050919050565b600060208201905081810360008301526127ec816127b0565b9050919050565b7f205468652063757272656e7420616d6f756e7420636c61696d65642073686f7560008201527f6c642062652067726561746572207468616e207a65726f000000000000000000602082015250565b600061284f603783611f24565b915061285a826127f3565b604082019050919050565b6000602082019050818103600083015261287e81612842565b9050919050565b7f496e73756666696369656e7420636f6e74726163742062616c616e6365000000600082015250565b60006128bb601d83611f24565b91506128c682612885565b602082019050919050565b600060208201905081810360008301526128ea816128ae565b9050919050565b60006128fc82611bee565b915061290783611bee565b925082820190508082111561291f5761291e612292565b5b92915050565b6000819050919050565b61294061293b82611bee565b612925565b82525050565b60008160601b9050919050565b600061295e82612946565b9050919050565b600061297082612953565b9050919050565b61298861298382611d47565b612965565b82525050565b600061299a828661292f565b6020820191506129aa828561292f565b6020820191506129ba8284612977565b601482019150819050949350505050565b7f4e487b7100000000000000000000000000000000000000000000000000000000600052601260045260246000fd5b6000612a0582611bee565b9150612a1083611bee565b925082612a2057612a1f6129cb565b5b828206905092915050565b7f43414d504149474e2d0000000000000000000000000000000000000000000000600082015250565b6000612a61600983612021565b9150612a6c82612a2b565b600982019050919050565b7f2d00000000000000000000000000000000000000000000000000000000000000600082015250565b6000612aad600183612021565b9150612ab882612a77565b600182019050919050565b6000612ace82612a54565b9150612ada828561202c565b9150612ae582612aa0565b9150612af1828461202c565b9150819050939250505056fea2646970667358221220b6855b9b25c4e0e23b3edf98d9bfca901b546c4a8e5ab1c45ae4eb9cc1d6a55a64736f6c63430008180033",
          "opcodes": "PUSH1 0x80 PUSH1 0x40 MSTORE CALLVALUE DUP1 ISZERO PUSH3 0x11 JUMPI PUSH1 0x0 DUP1 REVERT JUMPDEST POP CALLER PUSH1 0x0 PUSH20 0xFFFFFFFFFFFFFFFFFFFFFFFFFFFFFFFFFFFFFFFF AND DUP2 PUSH20 0xFFFFFFFFFFFFFFFFFFFFFFFFFFFFFFFFFFFFFFFF AND SUB PUSH3 0x88 JUMPI PUSH1 0x0 PUSH1 0x40 MLOAD PUSH32 0x1E4FBDF700000000000000000000000000000000000000000000000000000000 DUP2 MSTORE PUSH1 0x4 ADD PUSH3 0x7F SWAP2 SWAP1 PUSH3 0x1CA JUMP JUMPDEST PUSH1 0x40 MLOAD DUP1 SWAP2 SUB SWAP1 REVERT JUMPDEST PUSH3 0x99 DUP2 PUSH3 0xC1 PUSH1 0x20 SHL PUSH1 0x20 SHR JUMP JUMPDEST POP PUSH1 0x0 DUP1 PUSH1 0x14 PUSH2 0x100 EXP DUP2 SLOAD DUP2 PUSH1 0xFF MUL NOT AND SWAP1 DUP4 ISZERO ISZERO MUL OR SWAP1 SSTORE POP PUSH1 0x1 DUP1 DUP2 SWAP1 SSTORE POP PUSH3 0x1E7 JUMP JUMPDEST PUSH1 0x0 DUP1 PUSH1 0x0 SWAP1 SLOAD SWAP1 PUSH2 0x100 EXP SWAP1 DIV PUSH20 0xFFFFFFFFFFFFFFFFFFFFFFFFFFFFFFFFFFFFFFFF AND SWAP1 POP DUP2 PUSH1 0x0 DUP1 PUSH2 0x100 EXP DUP2 SLOAD DUP2 PUSH20 0xFFFFFFFFFFFFFFFFFFFFFFFFFFFFFFFFFFFFFFFF MUL NOT AND SWAP1 DUP4 PUSH20 0xFFFFFFFFFFFFFFFFFFFFFFFFFFFFFFFFFFFFFFFF AND MUL OR SWAP1 SSTORE POP DUP2 PUSH20 0xFFFFFFFFFFFFFFFFFFFFFFFFFFFFFFFFFFFFFFFF AND DUP2 PUSH20 0xFFFFFFFFFFFFFFFFFFFFFFFFFFFFFFFFFFFFFFFF AND PUSH32 0x8BE0079C531659141344CD1FD0A4F28419497F9722A3DAAFE3B4186F6B6457E0 PUSH1 0x40 MLOAD PUSH1 0x40 MLOAD DUP1 SWAP2 SUB SWAP1 LOG3 POP POP JUMP JUMPDEST PUSH1 0x0 PUSH20 0xFFFFFFFFFFFFFFFFFFFFFFFFFFFFFFFFFFFFFFFF DUP3 AND SWAP1 POP SWAP2 SWAP1 POP JUMP JUMPDEST PUSH1 0x0 PUSH3 0x1B2 DUP3 PUSH3 0x185 JUMP JUMPDEST SWAP1 POP SWAP2 SWAP1 POP JUMP JUMPDEST PUSH3 0x1C4 DUP2 PUSH3 0x1A5 JUMP JUMPDEST DUP3 MSTORE POP POP JUMP JUMPDEST PUSH1 0x0 PUSH1 0x20 DUP3 ADD SWAP1 POP PUSH3 0x1E1 PUSH1 0x0 DUP4 ADD DUP5 PUSH3 0x1B9 JUMP JUMPDEST SWAP3 SWAP2 POP POP JUMP JUMPDEST PUSH2 0x2B33 DUP1 PUSH3 0x1F7 PUSH1 0x0 CODECOPY PUSH1 0x0 RETURN INVALID PUSH1 0x80 PUSH1 0x40 MSTORE PUSH1 0x4 CALLDATASIZE LT PUSH2 0xEC JUMPI PUSH1 0x0 CALLDATALOAD PUSH1 0xE0 SHR DUP1 PUSH4 0x715018A6 GT PUSH2 0x8A JUMPI DUP1 PUSH4 0x8DA5CB5B GT PUSH2 0x59 JUMPI DUP1 PUSH4 0x8DA5CB5B EQ PUSH2 0x27E JUMPI DUP1 PUSH4 0xA649D04F EQ PUSH2 0x2A9 JUMPI DUP1 PUSH4 0xD0AC4013 EQ PUSH2 0x2EA JUMPI DUP1 PUSH4 0xF2FDE38B EQ PUSH2 0x327 JUMPI PUSH2 0xF3 JUMP JUMPDEST DUP1 PUSH4 0x715018A6 EQ PUSH2 0x1FE JUMPI DUP1 PUSH4 0x72A79388 EQ PUSH2 0x215 JUMPI DUP1 PUSH4 0x7AAB369B EQ PUSH2 0x23E JUMPI DUP1 PUSH4 0x8456CB59 EQ PUSH2 0x267 JUMPI PUSH2 0xF3 JUMP JUMPDEST DUP1 PUSH4 0x3F0C4988 GT PUSH2 0xC6 JUMPI DUP1 PUSH4 0x3F0C4988 EQ PUSH2 0x156 JUMPI DUP1 PUSH4 0x3F4BA83A EQ PUSH2 0x17F JUMPI DUP1 PUSH4 0x415EAEDD EQ PUSH2 0x196 JUMPI DUP1 PUSH4 0x5C975ABB EQ PUSH2 0x1D3 JUMPI PUSH2 0xF3 JUMP JUMPDEST DUP1 PUSH4 0x88B76D4 EQ PUSH2 0xF8 JUMPI DUP1 PUSH4 0xBEDB86D EQ PUSH2 0x121 JUMPI DUP1 PUSH4 0xDA949DF EQ PUSH2 0x14C JUMPI PUSH2 0xF3 JUMP JUMPDEST CALLDATASIZE PUSH2 0xF3 JUMPI STOP JUMPDEST PUSH1 0x0 DUP1 REVERT JUMPDEST CALLVALUE DUP1 ISZERO PUSH2 0x104 JUMPI PUSH1 0x0 DUP1 REVERT JUMPDEST POP PUSH2 0x11F PUSH1 0x4 DUP1 CALLDATASIZE SUB DUP2 ADD SWAP1 PUSH2 0x11A SWAP2 SWAP1 PUSH2 0x1BA5 JUMP JUMPDEST PUSH2 0x350 JUMP JUMPDEST STOP JUMPDEST CALLVALUE DUP1 ISZERO PUSH2 0x12D JUMPI PUSH1 0x0 DUP1 REVERT JUMPDEST POP PUSH2 0x136 PUSH2 0x550 JUMP JUMPDEST PUSH1 0x40 MLOAD PUSH2 0x143 SWAP2 SWAP1 PUSH2 0x1C07 JUMP JUMPDEST PUSH1 0x40 MLOAD DUP1 SWAP2 SUB SWAP1 RETURN JUMPDEST PUSH2 0x154 PUSH2 0x556 JUMP JUMPDEST STOP JUMPDEST CALLVALUE DUP1 ISZERO PUSH2 0x162 JUMPI PUSH1 0x0 DUP1 REVERT JUMPDEST POP PUSH2 0x17D PUSH1 0x4 DUP1 CALLDATASIZE SUB DUP2 ADD SWAP1 PUSH2 0x178 SWAP2 SWAP1 PUSH2 0x1BA5 JUMP JUMPDEST PUSH2 0x740 JUMP JUMPDEST STOP JUMPDEST CALLVALUE DUP1 ISZERO PUSH2 0x18B JUMPI PUSH1 0x0 DUP1 REVERT JUMPDEST POP PUSH2 0x194 PUSH2 0xAD0 JUMP JUMPDEST STOP JUMPDEST CALLVALUE DUP1 ISZERO PUSH2 0x1A2 JUMPI PUSH1 0x0 DUP1 REVERT JUMPDEST POP PUSH2 0x1BD PUSH1 0x4 DUP1 CALLDATASIZE SUB DUP2 ADD SWAP1 PUSH2 0x1B8 SWAP2 SWAP1 PUSH2 0x1BA5 JUMP JUMPDEST PUSH2 0xAE2 JUMP JUMPDEST PUSH1 0x40 MLOAD PUSH2 0x1CA SWAP2 SWAP1 PUSH2 0x1DDE JUMP JUMPDEST PUSH1 0x40 MLOAD DUP1 SWAP2 SUB SWAP1 RETURN JUMPDEST CALLVALUE DUP1 ISZERO PUSH2 0x1DF JUMPI PUSH1 0x0 DUP1 REVERT JUMPDEST POP PUSH2 0x1E8 PUSH2 0xCAD JUMP JUMPDEST PUSH1 0x40 MLOAD PUSH2 0x1F5 SWAP2 SWAP1 PUSH2 0x1E1B JUMP JUMPDEST PUSH1 0x40 MLOAD DUP1 SWAP2 SUB SWAP1 RETURN JUMPDEST CALLVALUE DUP1 ISZERO PUSH2 0x20A JUMPI PUSH1 0x0 DUP1 REVERT JUMPDEST POP PUSH2 0x213 PUSH2 0xCC3 JUMP JUMPDEST STOP JUMPDEST CALLVALUE DUP1 ISZERO PUSH2 0x221 JUMPI PUSH1 0x0 DUP1 REVERT JUMPDEST POP PUSH2 0x23C PUSH1 0x4 DUP1 CALLDATASIZE SUB DUP2 ADD SWAP1 PUSH2 0x237 SWAP2 SWAP1 PUSH2 0x1E62 JUMP JUMPDEST PUSH2 0xCD7 JUMP JUMPDEST STOP JUMPDEST CALLVALUE DUP1 ISZERO PUSH2 0x24A JUMPI PUSH1 0x0 DUP1 REVERT JUMPDEST POP PUSH2 0x265 PUSH1 0x4 DUP1 CALLDATASIZE SUB DUP2 ADD SWAP1 PUSH2 0x260 SWAP2 SWAP1 PUSH2 0x1E62 JUMP JUMPDEST PUSH2 0xFD7 JUMP JUMPDEST STOP JUMPDEST CALLVALUE DUP1 ISZERO PUSH2 0x273 JUMPI PUSH1 0x0 DUP1 REVERT JUMPDEST POP PUSH2 0x27C PUSH2 0x1297 JUMP JUMPDEST STOP JUMPDEST CALLVALUE DUP1 ISZERO PUSH2 0x28A JUMPI PUSH1 0x0 DUP1 REVERT JUMPDEST POP PUSH2 0x293 PUSH2 0x12A9 JUMP JUMPDEST PUSH1 0x40 MLOAD PUSH2 0x2A0 SWAP2 SWAP1 PUSH2 0x1ECD JUMP JUMPDEST PUSH1 0x40 MLOAD DUP1 SWAP2 SUB SWAP1 RETURN JUMPDEST CALLVALUE DUP1 ISZERO PUSH2 0x2B5 JUMPI PUSH1 0x0 DUP1 REVERT JUMPDEST POP PUSH2 0x2D0 PUSH1 0x4 DUP1 CALLDATASIZE SUB DUP2 ADD SWAP1 PUSH2 0x2CB SWAP2 SWAP1 PUSH2 0x1EE8 JUMP JUMPDEST PUSH2 0x12D2 JUMP JUMPDEST PUSH1 0x40 MLOAD PUSH2 0x2E1 SWAP6 SWAP5 SWAP4 SWAP3 SWAP2 SWAP1 PUSH2 0x1F6E JUMP JUMPDEST PUSH1 0x40 MLOAD DUP1 SWAP2 SUB SWAP1 RETURN JUMPDEST CALLVALUE DUP1 ISZERO PUSH2 0x2F6 JUMPI PUSH1 0x0 DUP1 REVERT JUMPDEST POP PUSH2 0x311 PUSH1 0x4 DUP1 CALLDATASIZE SUB DUP2 ADD SWAP1 PUSH2 0x30C SWAP2 SWAP1 PUSH2 0x1BA5 JUMP JUMPDEST PUSH2 0x13BD JUMP JUMPDEST PUSH1 0x40 MLOAD PUSH2 0x31E SWAP2 SWAP1 PUSH2 0x1C07 JUMP JUMPDEST PUSH1 0x40 MLOAD DUP1 SWAP2 SUB SWAP1 RETURN JUMPDEST CALLVALUE DUP1 ISZERO PUSH2 0x333 JUMPI PUSH1 0x0 DUP1 REVERT JUMPDEST POP PUSH2 0x34E PUSH1 0x4 DUP1 CALLDATASIZE SUB DUP2 ADD SWAP1 PUSH2 0x349 SWAP2 SWAP1 PUSH2 0x1FF4 JUMP JUMPDEST PUSH2 0x13EB JUMP JUMPDEST STOP JUMPDEST PUSH2 0x358 PUSH2 0x1471 JUMP JUMPDEST PUSH1 0x0 PUSH1 0x2 DUP3 PUSH1 0x40 MLOAD PUSH2 0x36A SWAP2 SWAP1 PUSH2 0x205D JUMP JUMPDEST SWAP1 DUP2 MSTORE PUSH1 0x20 ADD PUSH1 0x40 MLOAD DUP1 SWAP2 SUB SWAP1 KECCAK256 SLOAD SWAP1 POP PUSH1 0x0 DUP2 GT PUSH2 0x3BE JUMPI PUSH1 0x40 MLOAD PUSH32 0x8C379A000000000000000000000000000000000000000000000000000000000 DUP2 MSTORE PUSH1 0x4 ADD PUSH2 0x3B5 SWAP1 PUSH2 0x20C0 JUMP JUMPDEST PUSH1 0x40 MLOAD DUP1 SWAP2 SUB SWAP1 REVERT JUMPDEST PUSH1 0x0 PUSH1 0x3 PUSH1 0x0 DUP4 DUP2 MSTORE PUSH1 0x20 ADD SWAP1 DUP2 MSTORE PUSH1 0x20 ADD PUSH1 0x0 KECCAK256 SWAP1 POP PUSH1 0x0 PUSH1 0x2 DUP2 GT ISZERO PUSH2 0x3E9 JUMPI PUSH2 0x3E8 PUSH2 0x1C31 JUMP JUMPDEST JUMPDEST DUP2 PUSH1 0x2 ADD PUSH1 0x0 SWAP1 SLOAD SWAP1 PUSH2 0x100 EXP SWAP1 DIV PUSH1 0xFF AND PUSH1 0x2 DUP2 GT ISZERO PUSH2 0x40D JUMPI PUSH2 0x40C PUSH2 0x1C31 JUMP JUMPDEST JUMPDEST EQ PUSH2 0x44D JUMPI PUSH1 0x40 MLOAD PUSH32 0x8C379A000000000000000000000000000000000000000000000000000000000 DUP2 MSTORE PUSH1 0x4 ADD PUSH2 0x444 SWAP1 PUSH2 0x212C JUMP JUMPDEST PUSH1 0x40 MLOAD DUP1 SWAP2 SUB SWAP1 REVERT JUMPDEST DUP1 PUSH1 0x4 ADD PUSH1 0x0 SWAP1 SLOAD SWAP1 PUSH2 0x100 EXP SWAP1 DIV PUSH20 0xFFFFFFFFFFFFFFFFFFFFFFFFFFFFFFFFFFFFFFFF AND PUSH20 0xFFFFFFFFFFFFFFFFFFFFFFFFFFFFFFFFFFFFFFFF AND CALLER PUSH20 0xFFFFFFFFFFFFFFFFFFFFFFFFFFFFFFFFFFFFFFFF AND EQ PUSH2 0x4DF JUMPI PUSH1 0x40 MLOAD PUSH32 0x8C379A000000000000000000000000000000000000000000000000000000000 DUP2 MSTORE PUSH1 0x4 ADD PUSH2 0x4D6 SWAP1 PUSH2 0x21BE JUMP JUMPDEST PUSH1 0x40 MLOAD DUP1 SWAP2 SUB SWAP1 REVERT JUMPDEST PUSH1 0x1 DUP2 PUSH1 0x2 ADD PUSH1 0x0 PUSH2 0x100 EXP DUP2 SLOAD DUP2 PUSH1 0xFF MUL NOT AND SWAP1 DUP4 PUSH1 0x2 DUP2 GT ISZERO PUSH2 0x507 JUMPI PUSH2 0x506 PUSH2 0x1C31 JUMP JUMPDEST JUMPDEST MUL OR SWAP1 SSTORE POP PUSH32 0xF7160323284AE4AA0D98DE6CA199DE6F8AF66EE3742F4FEE6DDAA64C51266C88 DUP4 PUSH1 0x40 MLOAD PUSH2 0x53B SWAP2 SWAP1 PUSH2 0x21DE JUMP JUMPDEST PUSH1 0x40 MLOAD DUP1 SWAP2 SUB SWAP1 LOG1 POP POP PUSH2 0x54D PUSH2 0x14B7 JUMP JUMPDEST POP JUMP JUMPDEST PUSH1 0x4 SLOAD DUP2 JUMP JUMPDEST PUSH2 0x55E PUSH2 0x14C0 JUMP JUMPDEST PUSH2 0x566 PUSH2 0x1471 JUMP JUMPDEST PUSH1 0x0 CALLVALUE GT PUSH2 0x5A9 JUMPI PUSH1 0x40 MLOAD PUSH32 0x8C379A000000000000000000000000000000000000000000000000000000000 DUP2 MSTORE PUSH1 0x4 ADD PUSH2 0x5A0 SWAP1 PUSH2 0x2272 JUMP JUMPDEST PUSH1 0x40 MLOAD DUP1 SWAP2 SUB SWAP1 REVERT JUMPDEST PUSH1 0x4 PUSH1 0x0 DUP2 SLOAD DUP1 SWAP3 SWAP2 SWAP1 PUSH2 0x5BC SWAP1 PUSH2 0x22C1 JUMP JUMPDEST SWAP2 SWAP1 POP SSTORE POP PUSH1 0x0 PUSH2 0x5CB PUSH2 0x1501 JUMP JUMPDEST SWAP1 POP PUSH1 0x40 MLOAD DUP1 PUSH1 0xA0 ADD PUSH1 0x40 MSTORE DUP1 CALLVALUE DUP2 MSTORE PUSH1 0x20 ADD PUSH1 0x0 DUP2 MSTORE PUSH1 0x20 ADD PUSH1 0x0 PUSH1 0x2 DUP2 GT ISZERO PUSH2 0x5F9 JUMPI PUSH2 0x5F8 PUSH2 0x1C31 JUMP JUMPDEST JUMPDEST DUP2 MSTORE PUSH1 0x20 ADD DUP3 DUP2 MSTORE PUSH1 0x20 ADD CALLER PUSH20 0xFFFFFFFFFFFFFFFFFFFFFFFFFFFFFFFFFFFFFFFF AND DUP2 MSTORE POP PUSH1 0x3 PUSH1 0x0 PUSH1 0x4 SLOAD DUP2 MSTORE PUSH1 0x20 ADD SWAP1 DUP2 MSTORE PUSH1 0x20 ADD PUSH1 0x0 KECCAK256 PUSH1 0x0 DUP3 ADD MLOAD DUP2 PUSH1 0x0 ADD SSTORE PUSH1 0x20 DUP3 ADD MLOAD DUP2 PUSH1 0x1 ADD SSTORE PUSH1 0x40 DUP3 ADD MLOAD DUP2 PUSH1 0x2 ADD PUSH1 0x0 PUSH2 0x100 EXP DUP2 SLOAD DUP2 PUSH1 0xFF MUL NOT AND SWAP1 DUP4 PUSH1 0x2 DUP2 GT ISZERO PUSH2 0x672 JUMPI PUSH2 0x671 PUSH2 0x1C31 JUMP JUMPDEST JUMPDEST MUL OR SWAP1 SSTORE POP PUSH1 0x60 DUP3 ADD MLOAD DUP2 PUSH1 0x3 ADD SWAP1 DUP2 PUSH2 0x68C SWAP2 SWAP1 PUSH2 0x2515 JUMP JUMPDEST POP PUSH1 0x80 DUP3 ADD MLOAD DUP2 PUSH1 0x4 ADD PUSH1 0x0 PUSH2 0x100 EXP DUP2 SLOAD DUP2 PUSH20 0xFFFFFFFFFFFFFFFFFFFFFFFFFFFFFFFFFFFFFFFF MUL NOT AND SWAP1 DUP4 PUSH20 0xFFFFFFFFFFFFFFFFFFFFFFFFFFFFFFFFFFFFFFFF AND MUL OR SWAP1 SSTORE POP SWAP1 POP POP PUSH1 0x4 SLOAD PUSH1 0x2 DUP3 PUSH1 0x40 MLOAD PUSH2 0x6EA SWAP2 SWAP1 PUSH2 0x205D JUMP JUMPDEST SWAP1 DUP2 MSTORE PUSH1 0x20 ADD PUSH1 0x40 MLOAD DUP1 SWAP2 SUB SWAP1 KECCAK256 DUP2 SWAP1 SSTORE POP PUSH32 0xC79154D0A4BAE450367237B7422A1E23347C6FCAFB5C10D57932694982687B73 DUP2 CALLVALUE PUSH1 0x40 MLOAD PUSH2 0x72D SWAP3 SWAP2 SWAP1 PUSH2 0x25E7 JUMP JUMPDEST PUSH1 0x40 MLOAD DUP1 SWAP2 SUB SWAP1 LOG1 POP PUSH2 0x73E PUSH2 0x14B7 JUMP JUMPDEST JUMP JUMPDEST PUSH2 0x748 PUSH2 0x1471 JUMP JUMPDEST PUSH1 0x0 PUSH1 0x2 DUP3 PUSH1 0x40 MLOAD PUSH2 0x75A SWAP2 SWAP1 PUSH2 0x205D JUMP JUMPDEST SWAP1 DUP2 MSTORE PUSH1 0x20 ADD PUSH1 0x40 MLOAD DUP1 SWAP2 SUB SWAP1 KECCAK256 SLOAD SWAP1 POP PUSH1 0x0 DUP2 GT PUSH2 0x7AE JUMPI PUSH1 0x40 MLOAD PUSH32 0x8C379A000000000000000000000000000000000000000000000000000000000 DUP2 MSTORE PUSH1 0x4 ADD PUSH2 0x7A5 SWAP1 PUSH2 0x20C0 JUMP JUMPDEST PUSH1 0x40 MLOAD DUP1 SWAP2 SUB SWAP1 REVERT JUMPDEST PUSH1 0x0 PUSH1 0x3 PUSH1 0x0 DUP4 DUP2 MSTORE PUSH1 0x20 ADD SWAP1 DUP2 MSTORE PUSH1 0x20 ADD PUSH1 0x0 KECCAK256 SWAP1 POP PUSH1 0x0 PUSH1 0x2 DUP2 GT ISZERO PUSH2 0x7D9 JUMPI PUSH2 0x7D8 PUSH2 0x1C31 JUMP JUMPDEST JUMPDEST DUP2 PUSH1 0x2 ADD PUSH1 0x0 SWAP1 SLOAD SWAP1 PUSH2 0x100 EXP SWAP1 DIV PUSH1 0xFF AND PUSH1 0x2 DUP2 GT ISZERO PUSH2 0x7FD JUMPI PUSH2 0x7FC PUSH2 0x1C31 JUMP JUMPDEST JUMPDEST EQ PUSH2 0x83D JUMPI PUSH1 0x40 MLOAD PUSH32 0x8C379A000000000000000000000000000000000000000000000000000000000 DUP2 MSTORE PUSH1 0x4 ADD PUSH2 0x834 SWAP1 PUSH2 0x212C JUMP JUMPDEST PUSH1 0x40 MLOAD DUP1 SWAP2 SUB SWAP1 REVERT JUMPDEST DUP1 PUSH1 0x4 ADD PUSH1 0x0 SWAP1 SLOAD SWAP1 PUSH2 0x100 EXP SWAP1 DIV PUSH20 0xFFFFFFFFFFFFFFFFFFFFFFFFFFFFFFFFFFFFFFFF AND PUSH20 0xFFFFFFFFFFFFFFFFFFFFFFFFFFFFFFFFFFFFFFFF AND CALLER PUSH20 0xFFFFFFFFFFFFFFFFFFFFFFFFFFFFFFFFFFFFFFFF AND EQ DUP1 PUSH2 0x8CD JUMPI POP PUSH2 0x89E PUSH2 0x12A9 JUMP JUMPDEST PUSH20 0xFFFFFFFFFFFFFFFFFFFFFFFFFFFFFFFFFFFFFFFF AND CALLER PUSH20 0xFFFFFFFFFFFFFFFFFFFFFFFFFFFFFFFFFFFFFFFF AND EQ JUMPDEST PUSH2 0x90C JUMPI PUSH1 0x40 MLOAD PUSH32 0x8C379A000000000000000000000000000000000000000000000000000000000 DUP2 MSTORE PUSH1 0x4 ADD PUSH2 0x903 SWAP1 PUSH2 0x2689 JUMP JUMPDEST PUSH1 0x40 MLOAD DUP1 SWAP2 SUB SWAP1 REVERT JUMPDEST PUSH1 0x0 DUP2 PUSH1 0x1 ADD SLOAD DUP3 PUSH1 0x0 ADD SLOAD PUSH2 0x922 SWAP2 SWAP1 PUSH2 0x26A9 JUMP JUMPDEST SWAP1 POP PUSH1 0x2 DUP3 PUSH1 0x2 ADD PUSH1 0x0 PUSH2 0x100 EXP DUP2 SLOAD DUP2 PUSH1 0xFF MUL NOT AND SWAP1 DUP4 PUSH1 0x2 DUP2 GT ISZERO PUSH2 0x94C JUMPI PUSH2 0x94B PUSH2 0x1C31 JUMP JUMPDEST JUMPDEST MUL OR SWAP1 SSTORE POP PUSH1 0x0 DUP2 GT ISZERO PUSH2 0x9C6 JUMPI DUP2 PUSH1 0x4 ADD PUSH1 0x0 SWAP1 SLOAD SWAP1 PUSH2 0x100 EXP SWAP1 DIV PUSH20 0xFFFFFFFFFFFFFFFFFFFFFFFFFFFFFFFFFFFFFFFF AND PUSH20 0xFFFFFFFFFFFFFFFFFFFFFFFFFFFFFFFFFFFFFFFF AND PUSH2 0x8FC DUP3 SWAP1 DUP2 ISZERO MUL SWAP1 PUSH1 0x40 MLOAD PUSH1 0x0 PUSH1 0x40 MLOAD DUP1 DUP4 SUB DUP2 DUP6 DUP9 DUP9 CALL SWAP4 POP POP POP POP ISZERO DUP1 ISZERO PUSH2 0x9C4 JUMPI RETURNDATASIZE PUSH1 0x0 DUP1 RETURNDATACOPY RETURNDATASIZE PUSH1 0x0 REVERT JUMPDEST POP JUMPDEST PUSH1 0x0 DUP3 PUSH1 0x1 ADD SLOAD GT ISZERO PUSH2 0xA26 JUMPI PUSH2 0x9DB PUSH2 0x12A9 JUMP JUMPDEST PUSH20 0xFFFFFFFFFFFFFFFFFFFFFFFFFFFFFFFFFFFFFFFF AND PUSH2 0x8FC DUP4 PUSH1 0x1 ADD SLOAD SWAP1 DUP2 ISZERO MUL SWAP1 PUSH1 0x40 MLOAD PUSH1 0x0 PUSH1 0x40 MLOAD DUP1 DUP4 SUB DUP2 DUP6 DUP9 DUP9 CALL SWAP4 POP POP POP POP ISZERO DUP1 ISZERO PUSH2 0xA24 JUMPI RETURNDATASIZE PUSH1 0x0 DUP1 RETURNDATACOPY RETURNDATASIZE PUSH1 0x0 REVERT JUMPDEST POP JUMPDEST PUSH32 0xBA9059F3850AEE53FBD909CC5B38D859E4A645F2AD3DA7093AB74C7B88F24BF2 DUP5 DUP4 PUSH1 0x4 ADD PUSH1 0x0 SWAP1 SLOAD SWAP1 PUSH2 0x100 EXP SWAP1 DIV PUSH20 0xFFFFFFFFFFFFFFFFFFFFFFFFFFFFFFFFFFFFFFFF AND DUP4 PUSH1 0x40 MLOAD PUSH2 0xA7D SWAP4 SWAP3 SWAP2 SWAP1 PUSH2 0x26DD JUMP JUMPDEST PUSH1 0x40 MLOAD DUP1 SWAP2 SUB SWAP1 LOG1 PUSH32 0xD94C2A1BDEBB5C53E4D8C915AB66E4AC6CB53EB59BB0C69F423BB4F6F6084DE3 DUP5 DUP4 PUSH1 0x1 ADD SLOAD PUSH1 0x40 MLOAD PUSH2 0xABA SWAP3 SWAP2 SWAP1 PUSH2 0x25E7 JUMP JUMPDEST PUSH1 0x40 MLOAD DUP1 SWAP2 SUB SWAP1 LOG1 POP POP POP PUSH2 0xACD PUSH2 0x14B7 JUMP JUMPDEST POP JUMP JUMPDEST PUSH2 0xAD8 PUSH2 0x157B JUMP JUMPDEST PUSH2 0xAE0 PUSH2 0x1602 JUMP JUMPDEST JUMP JUMPDEST PUSH2 0xAEA PUSH2 0x19F4 JUMP JUMPDEST PUSH1 0x0 PUSH1 0x2 DUP4 PUSH1 0x40 MLOAD PUSH2 0xAFC SWAP2 SWAP1 PUSH2 0x205D JUMP JUMPDEST SWAP1 DUP2 MSTORE PUSH1 0x20 ADD PUSH1 0x40 MLOAD DUP1 SWAP2 SUB SWAP1 KECCAK256 SLOAD SWAP1 POP PUSH1 0x0 DUP2 GT PUSH2 0xB50 JUMPI PUSH1 0x40 MLOAD PUSH32 0x8C379A000000000000000000000000000000000000000000000000000000000 DUP2 MSTORE PUSH1 0x4 ADD PUSH2 0xB47 SWAP1 PUSH2 0x20C0 JUMP JUMPDEST PUSH1 0x40 MLOAD DUP1 SWAP2 SUB SWAP1 REVERT JUMPDEST PUSH1 0x3 PUSH1 0x0 DUP3 DUP2 MSTORE PUSH1 0x20 ADD SWAP1 DUP2 MSTORE PUSH1 0x20 ADD PUSH1 0x0 KECCAK256 PUSH1 0x40 MLOAD DUP1 PUSH1 0xA0 ADD PUSH1 0x40 MSTORE SWAP1 DUP2 PUSH1 0x0 DUP3 ADD SLOAD DUP2 MSTORE PUSH1 0x20 ADD PUSH1 0x1 DUP3 ADD SLOAD DUP2 MSTORE PUSH1 0x20 ADD PUSH1 0x2 DUP3 ADD PUSH1 0x0 SWAP1 SLOAD SWAP1 PUSH2 0x100 EXP SWAP1 DIV PUSH1 0xFF AND PUSH1 0x2 DUP2 GT ISZERO PUSH2 0xBA7 JUMPI PUSH2 0xBA6 PUSH2 0x1C31 JUMP JUMPDEST JUMPDEST PUSH1 0x2 DUP2 GT ISZERO PUSH2 0xBB9 JUMPI PUSH2 0xBB8 PUSH2 0x1C31 JUMP JUMPDEST JUMPDEST DUP2 MSTORE PUSH1 0x20 ADD PUSH1 0x3 DUP3 ADD DUP1 SLOAD PUSH2 0xBCD SWAP1 PUSH2 0x2338 JUMP JUMPDEST DUP1 PUSH1 0x1F ADD PUSH1 0x20 DUP1 SWAP2 DIV MUL PUSH1 0x20 ADD PUSH1 0x40 MLOAD SWAP1 DUP2 ADD PUSH1 0x40 MSTORE DUP1 SWAP3 SWAP2 SWAP1 DUP2 DUP2 MSTORE PUSH1 0x20 ADD DUP3 DUP1 SLOAD PUSH2 0xBF9 SWAP1 PUSH2 0x2338 JUMP JUMPDEST DUP1 ISZERO PUSH2 0xC46 JUMPI DUP1 PUSH1 0x1F LT PUSH2 0xC1B JUMPI PUSH2 0x100 DUP1 DUP4 SLOAD DIV MUL DUP4 MSTORE SWAP2 PUSH1 0x20 ADD SWAP2 PUSH2 0xC46 JUMP JUMPDEST DUP3 ADD SWAP2 SWAP1 PUSH1 0x0 MSTORE PUSH1 0x20 PUSH1 0x0 KECCAK256 SWAP1 JUMPDEST DUP2 SLOAD DUP2 MSTORE SWAP1 PUSH1 0x1 ADD SWAP1 PUSH1 0x20 ADD DUP1 DUP4 GT PUSH2 0xC29 JUMPI DUP3 SWAP1 SUB PUSH1 0x1F AND DUP3 ADD SWAP2 JUMPDEST POP POP POP POP POP DUP2 MSTORE PUSH1 0x20 ADD PUSH1 0x4 DUP3 ADD PUSH1 0x0 SWAP1 SLOAD SWAP1 PUSH2 0x100 EXP SWAP1 DIV PUSH20 0xFFFFFFFFFFFFFFFFFFFFFFFFFFFFFFFFFFFFFFFF AND PUSH20 0xFFFFFFFFFFFFFFFFFFFFFFFFFFFFFFFFFFFFFFFF AND PUSH20 0xFFFFFFFFFFFFFFFFFFFFFFFFFFFFFFFFFFFFFFFF AND DUP2 MSTORE POP POP SWAP2 POP POP SWAP2 SWAP1 POP JUMP JUMPDEST PUSH1 0x0 DUP1 PUSH1 0x14 SWAP1 SLOAD SWAP1 PUSH2 0x100 EXP SWAP1 DIV PUSH1 0xFF AND SWAP1 POP SWAP1 JUMP JUMPDEST PUSH2 0xCCB PUSH2 0x157B JUMP JUMPDEST PUSH2 0xCD5 PUSH1 0x0 PUSH2 0x1664 JUMP JUMPDEST JUMP JUMPDEST PUSH2 0xCDF PUSH2 0x157B JUMP JUMPDEST PUSH2 0xCE7 PUSH2 0x1471 JUMP JUMPDEST PUSH1 0x0 PUSH1 0x2 DUP4 PUSH1 0x40 MLOAD PUSH2 0xCF9 SWAP2 SWAP1 PUSH2 0x205D JUMP JUMPDEST SWAP1 DUP2 MSTORE PUSH1 0x20 ADD PUSH1 0x40 MLOAD DUP1 SWAP2 SUB SWAP1 KECCAK256 SLOAD SWAP1 POP PUSH1 0x0 DUP2 GT PUSH2 0xD4D JUMPI PUSH1 0x40 MLOAD PUSH32 0x8C379A000000000000000000000000000000000000000000000000000000000 DUP2 MSTORE PUSH1 0x4 ADD PUSH2 0xD44 SWAP1 PUSH2 0x20C0 JUMP JUMPDEST PUSH1 0x40 MLOAD DUP1 SWAP2 SUB SWAP1 REVERT JUMPDEST PUSH1 0x0 PUSH1 0x3 PUSH1 0x0 DUP4 DUP2 MSTORE PUSH1 0x20 ADD SWAP1 DUP2 MSTORE PUSH1 0x20 ADD PUSH1 0x0 KECCAK256 SWAP1 POP PUSH1 0x1 PUSH1 0x2 DUP2 GT ISZERO PUSH2 0xD78 JUMPI PUSH2 0xD77 PUSH2 0x1C31 JUMP JUMPDEST JUMPDEST DUP2 PUSH1 0x2 ADD PUSH1 0x0 SWAP1 SLOAD SWAP1 PUSH2 0x100 EXP SWAP1 DIV PUSH1 0xFF AND PUSH1 0x2 DUP2 GT ISZERO PUSH2 0xD9C JUMPI PUSH2 0xD9B PUSH2 0x1C31 JUMP JUMPDEST JUMPDEST EQ PUSH2 0xDDC JUMPI PUSH1 0x40 MLOAD PUSH32 0x8C379A000000000000000000000000000000000000000000000000000000000 DUP2 MSTORE PUSH1 0x4 ADD PUSH2 0xDD3 SWAP1 PUSH2 0x2767 JUMP JUMPDEST PUSH1 0x40 MLOAD DUP1 SWAP2 SUB SWAP1 REVERT JUMPDEST DUP1 PUSH1 0x0 ADD SLOAD DUP4 GT ISZERO PUSH2 0xE23 JUMPI PUSH1 0x40 MLOAD PUSH32 0x8C379A000000000000000000000000000000000000000000000000000000000 DUP2 MSTORE PUSH1 0x4 ADD PUSH2 0xE1A SWAP1 PUSH2 0x27D3 JUMP JUMPDEST PUSH1 0x40 MLOAD DUP1 SWAP2 SUB SWAP1 REVERT JUMPDEST DUP3 DUP2 PUSH1 0x1 ADD DUP2 SWAP1 SSTORE POP PUSH1 0x0 DUP4 DUP3 PUSH1 0x0 ADD SLOAD PUSH2 0xE3E SWAP2 SWAP1 PUSH2 0x26A9 JUMP JUMPDEST SWAP1 POP PUSH1 0x2 DUP3 PUSH1 0x2 ADD PUSH1 0x0 PUSH2 0x100 EXP DUP2 SLOAD DUP2 PUSH1 0xFF MUL NOT AND SWAP1 DUP4 PUSH1 0x2 DUP2 GT ISZERO PUSH2 0xE68 JUMPI PUSH2 0xE67 PUSH2 0x1C31 JUMP JUMPDEST JUMPDEST MUL OR SWAP1 SSTORE POP PUSH1 0x0 DUP2 GT ISZERO PUSH2 0xEE2 JUMPI DUP2 PUSH1 0x4 ADD PUSH1 0x0 SWAP1 SLOAD SWAP1 PUSH2 0x100 EXP SWAP1 DIV PUSH20 0xFFFFFFFFFFFFFFFFFFFFFFFFFFFFFFFFFFFFFFFF AND PUSH20 0xFFFFFFFFFFFFFFFFFFFFFFFFFFFFFFFFFFFFFFFF AND PUSH2 0x8FC DUP3 SWAP1 DUP2 ISZERO MUL SWAP1 PUSH1 0x40 MLOAD PUSH1 0x0 PUSH1 0x40 MLOAD DUP1 DUP4 SUB DUP2 DUP6 DUP9 DUP9 CALL SWAP4 POP POP POP POP ISZERO DUP1 ISZERO PUSH2 0xEE0 JUMPI RETURNDATASIZE PUSH1 0x0 DUP1 RETURNDATACOPY RETURNDATASIZE PUSH1 0x0 REVERT JUMPDEST POP JUMPDEST PUSH2 0xEEA PUSH2 0x12A9 JUMP JUMPDEST PUSH20 0xFFFFFFFFFFFFFFFFFFFFFFFFFFFFFFFFFFFFFFFF AND PUSH2 0x8FC DUP6 SWAP1 DUP2 ISZERO MUL SWAP1 PUSH1 0x40 MLOAD PUSH1 0x0 PUSH1 0x40 MLOAD DUP1 DUP4 SUB DUP2 DUP6 DUP9 DUP9 CALL SWAP4 POP POP POP POP ISZERO DUP1 ISZERO PUSH2 0xF2F JUMPI RETURNDATASIZE PUSH1 0x0 DUP1 RETURNDATACOPY RETURNDATASIZE PUSH1 0x0 REVERT JUMPDEST POP PUSH32 0xBA9059F3850AEE53FBD909CC5B38D859E4A645F2AD3DA7093AB74C7B88F24BF2 DUP6 DUP4 PUSH1 0x4 ADD PUSH1 0x0 SWAP1 SLOAD SWAP1 PUSH2 0x100 EXP SWAP1 DIV PUSH20 0xFFFFFFFFFFFFFFFFFFFFFFFFFFFFFFFFFFFFFFFF AND DUP4 PUSH1 0x40 MLOAD PUSH2 0xF87 SWAP4 SWAP3 SWAP2 SWAP1 PUSH2 0x26DD JUMP JUMPDEST PUSH1 0x40 MLOAD DUP1 SWAP2 SUB SWAP1 LOG1 PUSH32 0xD94C2A1BDEBB5C53E4D8C915AB66E4AC6CB53EB59BB0C69F423BB4F6F6084DE3 DUP6 DUP6 PUSH1 0x40 MLOAD PUSH2 0xFC0 SWAP3 SWAP2 SWAP1 PUSH2 0x25E7 JUMP JUMPDEST PUSH1 0x40 MLOAD DUP1 SWAP2 SUB SWAP1 LOG1 POP POP POP PUSH2 0xFD3 PUSH2 0x14B7 JUMP JUMPDEST POP POP JUMP JUMPDEST PUSH2 0xFDF PUSH2 0x157B JUMP JUMPDEST PUSH2 0xFE7 PUSH2 0x14C0 JUMP JUMPDEST PUSH2 0xFEF PUSH2 0x1471 JUMP JUMPDEST PUSH1 0x0 PUSH1 0x2 DUP4 PUSH1 0x40 MLOAD PUSH2 0x1001 SWAP2 SWAP1 PUSH2 0x205D JUMP JUMPDEST SWAP1 DUP2 MSTORE PUSH1 0x20 ADD PUSH1 0x40 MLOAD DUP1 SWAP2 SUB SWAP1 KECCAK256 SLOAD SWAP1 POP PUSH1 0x0 DUP2 GT PUSH2 0x1055 JUMPI PUSH1 0x40 MLOAD PUSH32 0x8C379A000000000000000000000000000000000000000000000000000000000 DUP2 MSTORE PUSH1 0x4 ADD PUSH2 0x104C SWAP1 PUSH2 0x20C0 JUMP JUMPDEST PUSH1 0x40 MLOAD DUP1 SWAP2 SUB SWAP1 REVERT JUMPDEST PUSH1 0x0 PUSH1 0x3 PUSH1 0x0 DUP4 DUP2 MSTORE PUSH1 0x20 ADD SWAP1 DUP2 MSTORE PUSH1 0x20 ADD PUSH1 0x0 KECCAK256 SWAP1 POP PUSH1 0x0 PUSH1 0x2 DUP2 GT ISZERO PUSH2 0x1080 JUMPI PUSH2 0x107F PUSH2 0x1C31 JUMP JUMPDEST JUMPDEST DUP2 PUSH1 0x2 ADD PUSH1 0x0 SWAP1 SLOAD SWAP1 PUSH2 0x100 EXP SWAP1 DIV PUSH1 0xFF AND PUSH1 0x2 DUP2 GT ISZERO PUSH2 0x10A4 JUMPI PUSH2 0x10A3 PUSH2 0x1C31 JUMP JUMPDEST JUMPDEST EQ PUSH2 0x10E4 JUMPI PUSH1 0x40 MLOAD PUSH32 0x8C379A000000000000000000000000000000000000000000000000000000000 DUP2 MSTORE PUSH1 0x4 ADD PUSH2 0x10DB SWAP1 PUSH2 0x212C JUMP JUMPDEST PUSH1 0x40 MLOAD DUP1 SWAP2 SUB SWAP1 REVERT JUMPDEST PUSH1 0x0 DUP2 PUSH1 0x1 ADD SLOAD DUP5 PUSH2 0x10F6 SWAP2 SWAP1 PUSH2 0x26A9 JUMP JUMPDEST SWAP1 POP PUSH1 0x0 DUP2 GT PUSH2 0x113B JUMPI PUSH1 0x40 MLOAD PUSH32 0x8C379A000000000000000000000000000000000000000000000000000000000 DUP2 MSTORE PUSH1 0x4 ADD PUSH2 0x1132 SWAP1 PUSH2 0x2865 JUMP JUMPDEST PUSH1 0x40 MLOAD DUP1 SWAP2 SUB SWAP1 REVERT JUMPDEST PUSH1 0x0 DUP3 PUSH1 0x1 ADD SLOAD DUP4 PUSH1 0x0 ADD SLOAD PUSH2 0x1151 SWAP2 SWAP1 PUSH2 0x26A9 JUMP JUMPDEST SWAP1 POP PUSH1 0x0 DUP3 DUP3 GT ISZERO PUSH2 0x1163 JUMPI DUP3 PUSH2 0x1165 JUMP JUMPDEST DUP2 JUMPDEST SWAP1 POP DUP1 SELFBALANCE LT ISZERO PUSH2 0x11AA JUMPI PUSH1 0x40 MLOAD PUSH32 0x8C379A000000000000000000000000000000000000000000000000000000000 DUP2 MSTORE PUSH1 0x4 ADD PUSH2 0x11A1 SWAP1 PUSH2 0x28D1 JUMP JUMPDEST PUSH1 0x40 MLOAD DUP1 SWAP2 SUB SWAP1 REVERT JUMPDEST DUP1 DUP5 PUSH1 0x1 ADD SLOAD PUSH2 0x11BA SWAP2 SWAP1 PUSH2 0x28F1 JUMP JUMPDEST DUP5 PUSH1 0x1 ADD DUP2 SWAP1 SSTORE POP DUP4 PUSH1 0x0 ADD SLOAD DUP5 PUSH1 0x1 ADD SLOAD LT PUSH2 0x11FF JUMPI PUSH1 0x2 DUP5 PUSH1 0x2 ADD PUSH1 0x0 PUSH2 0x100 EXP DUP2 SLOAD DUP2 PUSH1 0xFF MUL NOT AND SWAP1 DUP4 PUSH1 0x2 DUP2 GT ISZERO PUSH2 0x11F9 JUMPI PUSH2 0x11F8 PUSH2 0x1C31 JUMP JUMPDEST JUMPDEST MUL OR SWAP1 SSTORE POP JUMPDEST PUSH2 0x1207 PUSH2 0x12A9 JUMP JUMPDEST PUSH20 0xFFFFFFFFFFFFFFFFFFFFFFFFFFFFFFFFFFFFFFFF AND PUSH2 0x8FC DUP3 SWAP1 DUP2 ISZERO MUL SWAP1 PUSH1 0x40 MLOAD PUSH1 0x0 PUSH1 0x40 MLOAD DUP1 DUP4 SUB DUP2 DUP6 DUP9 DUP9 CALL SWAP4 POP POP POP POP ISZERO DUP1 ISZERO PUSH2 0x124C JUMPI RETURNDATASIZE PUSH1 0x0 DUP1 RETURNDATACOPY RETURNDATASIZE PUSH1 0x0 REVERT JUMPDEST POP PUSH32 0x4A1F19202167CBF263D5E4AC0DEB8EB1D58700A6E621B10A650D456ED5A5AD53 DUP8 DUP3 PUSH1 0x40 MLOAD PUSH2 0x127E SWAP3 SWAP2 SWAP1 PUSH2 0x25E7 JUMP JUMPDEST PUSH1 0x40 MLOAD DUP1 SWAP2 SUB SWAP1 LOG1 POP POP POP POP POP PUSH2 0x1293 PUSH2 0x14B7 JUMP JUMPDEST POP POP JUMP JUMPDEST PUSH2 0x129F PUSH2 0x157B JUMP JUMPDEST PUSH2 0x12A7 PUSH2 0x1728 JUMP JUMPDEST JUMP JUMPDEST PUSH1 0x0 DUP1 PUSH1 0x0 SWAP1 SLOAD SWAP1 PUSH2 0x100 EXP SWAP1 DIV PUSH20 0xFFFFFFFFFFFFFFFFFFFFFFFFFFFFFFFFFFFFFFFF AND SWAP1 POP SWAP1 JUMP JUMPDEST PUSH1 0x3 PUSH1 0x20 MSTORE DUP1 PUSH1 0x0 MSTORE PUSH1 0x40 PUSH1 0x0 KECCAK256 PUSH1 0x0 SWAP2 POP SWAP1 POP DUP1 PUSH1 0x0 ADD SLOAD SWAP1 DUP1 PUSH1 0x1 ADD SLOAD SWAP1 DUP1 PUSH1 0x2 ADD PUSH1 0x0 SWAP1 SLOAD SWAP1 PUSH2 0x100 EXP SWAP1 DIV PUSH1 0xFF AND SWAP1 DUP1 PUSH1 0x3 ADD DUP1 SLOAD PUSH2 0x1314 SWAP1 PUSH2 0x2338 JUMP JUMPDEST DUP1 PUSH1 0x1F ADD PUSH1 0x20 DUP1 SWAP2 DIV MUL PUSH1 0x20 ADD PUSH1 0x40 MLOAD SWAP1 DUP2 ADD PUSH1 0x40 MSTORE DUP1 SWAP3 SWAP2 SWAP1 DUP2 DUP2 MSTORE PUSH1 0x20 ADD DUP3 DUP1 SLOAD PUSH2 0x1340 SWAP1 PUSH2 0x2338 JUMP JUMPDEST DUP1 ISZERO PUSH2 0x138D JUMPI DUP1 PUSH1 0x1F LT PUSH2 0x1362 JUMPI PUSH2 0x100 DUP1 DUP4 SLOAD DIV MUL DUP4 MSTORE SWAP2 PUSH1 0x20 ADD SWAP2 PUSH2 0x138D JUMP JUMPDEST DUP3 ADD SWAP2 SWAP1 PUSH1 0x0 MSTORE PUSH1 0x20 PUSH1 0x0 KECCAK256 SWAP1 JUMPDEST DUP2 SLOAD DUP2 MSTORE SWAP1 PUSH1 0x1 ADD SWAP1 PUSH1 0x20 ADD DUP1 DUP4 GT PUSH2 0x1370 JUMPI DUP3 SWAP1 SUB PUSH1 0x1F AND DUP3 ADD SWAP2 JUMPDEST POP POP POP POP POP SWAP1 DUP1 PUSH1 0x4 ADD PUSH1 0x0 SWAP1 SLOAD SWAP1 PUSH2 0x100 EXP SWAP1 DIV PUSH20 0xFFFFFFFFFFFFFFFFFFFFFFFFFFFFFFFFFFFFFFFF AND SWAP1 POP DUP6 JUMP JUMPDEST PUSH1 0x2 DUP2 DUP1 MLOAD PUSH1 0x20 DUP2 ADD DUP3 ADD DUP1 MLOAD DUP5 DUP3 MSTORE PUSH1 0x20 DUP4 ADD PUSH1 0x20 DUP6 ADD KECCAK256 DUP2 DUP4 MSTORE DUP1 SWAP6 POP POP POP POP POP POP PUSH1 0x0 SWAP2 POP SWAP1 POP SLOAD DUP2 JUMP JUMPDEST PUSH2 0x13F3 PUSH2 0x157B JUMP JUMPDEST PUSH1 0x0 PUSH20 0xFFFFFFFFFFFFFFFFFFFFFFFFFFFFFFFFFFFFFFFF AND DUP2 PUSH20 0xFFFFFFFFFFFFFFFFFFFFFFFFFFFFFFFFFFFFFFFF AND SUB PUSH2 0x1465 JUMPI PUSH1 0x0 PUSH1 0x40 MLOAD PUSH32 0x1E4FBDF700000000000000000000000000000000000000000000000000000000 DUP2 MSTORE PUSH1 0x4 ADD PUSH2 0x145C SWAP2 SWAP1 PUSH2 0x1ECD JUMP JUMPDEST PUSH1 0x40 MLOAD DUP1 SWAP2 SUB SWAP1 REVERT JUMPDEST PUSH2 0x146E DUP2 PUSH2 0x1664 JUMP JUMPDEST POP JUMP JUMPDEST PUSH1 0x2 PUSH1 0x1 SLOAD SUB PUSH2 0x14AD JUMPI PUSH1 0x40 MLOAD PUSH32 0x3EE5AEB500000000000000000000000000000000000000000000000000000000 DUP2 MSTORE PUSH1 0x4 ADD PUSH1 0x40 MLOAD DUP1 SWAP2 SUB SWAP1 REVERT JUMPDEST PUSH1 0x2 PUSH1 0x1 DUP2 SWAP1 SSTORE POP JUMP JUMPDEST PUSH1 0x1 DUP1 DUP2 SWAP1 SSTORE POP JUMP JUMPDEST PUSH2 0x14C8 PUSH2 0xCAD JUMP JUMPDEST ISZERO PUSH2 0x14FF JUMPI PUSH1 0x40 MLOAD PUSH32 0xD93C066500000000000000000000000000000000000000000000000000000000 DUP2 MSTORE PUSH1 0x4 ADD PUSH1 0x40 MLOAD DUP1 SWAP2 SUB SWAP1 REVERT JUMPDEST JUMP JUMPDEST PUSH1 0x60 PUSH1 0x0 PUSH3 0xF4240 TIMESTAMP PREVRANDAO CALLER PUSH1 0x40 MLOAD PUSH1 0x20 ADD PUSH2 0x151E SWAP4 SWAP3 SWAP2 SWAP1 PUSH2 0x298E JUMP JUMPDEST PUSH1 0x40 MLOAD PUSH1 0x20 DUP2 DUP4 SUB SUB DUP2 MSTORE SWAP1 PUSH1 0x40 MSTORE DUP1 MLOAD SWAP1 PUSH1 0x20 ADD KECCAK256 PUSH1 0x0 SHR PUSH2 0x1541 SWAP2 SWAP1 PUSH2 0x29FA JUMP JUMPDEST SWAP1 POP PUSH2 0x154C TIMESTAMP PUSH2 0x178B JUMP JUMPDEST PUSH2 0x1555 DUP3 PUSH2 0x178B JUMP JUMPDEST PUSH1 0x40 MLOAD PUSH1 0x20 ADD PUSH2 0x1566 SWAP3 SWAP2 SWAP1 PUSH2 0x2AC3 JUMP JUMPDEST PUSH1 0x40 MLOAD PUSH1 0x20 DUP2 DUP4 SUB SUB DUP2 MSTORE SWAP1 PUSH1 0x40 MSTORE SWAP2 POP POP SWAP1 JUMP JUMPDEST PUSH2 0x1583 PUSH2 0x1859 JUMP JUMPDEST PUSH20 0xFFFFFFFFFFFFFFFFFFFFFFFFFFFFFFFFFFFFFFFF AND PUSH2 0x15A1 PUSH2 0x12A9 JUMP JUMPDEST PUSH20 0xFFFFFFFFFFFFFFFFFFFFFFFFFFFFFFFFFFFFFFFF AND EQ PUSH2 0x1600 JUMPI PUSH2 0x15C4 PUSH2 0x1859 JUMP JUMPDEST PUSH1 0x40 MLOAD PUSH32 0x118CDAA700000000000000000000000000000000000000000000000000000000 DUP2 MSTORE PUSH1 0x4 ADD PUSH2 0x15F7 SWAP2 SWAP1 PUSH2 0x1ECD JUMP JUMPDEST PUSH1 0x40 MLOAD DUP1 SWAP2 SUB SWAP1 REVERT JUMPDEST JUMP JUMPDEST PUSH2 0x160A PUSH2 0x1861 JUMP JUMPDEST PUSH1 0x0 DUP1 PUSH1 0x14 PUSH2 0x100 EXP DUP2 SLOAD DUP2 PUSH1 0xFF MUL NOT AND SWAP1 DUP4 ISZERO ISZERO MUL OR SWAP1 SSTORE POP PUSH32 0x5DB9EE0A495BF2E6FF9C91A7834C1BA4FDD244A5E8AA4E537BD38AEAE4B073AA PUSH2 0x164D PUSH2 0x1859 JUMP JUMPDEST PUSH1 0x40 MLOAD PUSH2 0x165A SWAP2 SWAP1 PUSH2 0x1ECD JUMP JUMPDEST PUSH1 0x40 MLOAD DUP1 SWAP2 SUB SWAP1 LOG1 JUMP JUMPDEST PUSH1 0x0 DUP1 PUSH1 0x0 SWAP1 SLOAD SWAP1 PUSH2 0x100 EXP SWAP1 DIV PUSH20 0xFFFFFFFFFFFFFFFFFFFFFFFFFFFFFFFFFFFFFFFF AND SWAP1 POP DUP2 PUSH1 0x0 DUP1 PUSH2 0x100 EXP DUP2 SLOAD DUP2 PUSH20 0xFFFFFFFFFFFFFFFFFFFFFFFFFFFFFFFFFFFFFFFF MUL NOT AND SWAP1 DUP4 PUSH20 0xFFFFFFFFFFFFFFFFFFFFFFFFFFFFFFFFFFFFFFFF AND MUL OR SWAP1 SSTORE POP DUP2 PUSH20 0xFFFFFFFFFFFFFFFFFFFFFFFFFFFFFFFFFFFFFFFF AND DUP2 PUSH20 0xFFFFFFFFFFFFFFFFFFFFFFFFFFFFFFFFFFFFFFFF AND PUSH32 0x8BE0079C531659141344CD1FD0A4F28419497F9722A3DAAFE3B4186F6B6457E0 PUSH1 0x40 MLOAD PUSH1 0x40 MLOAD DUP1 SWAP2 SUB SWAP1 LOG3 POP POP JUMP JUMPDEST PUSH2 0x1730 PUSH2 0x14C0 JUMP JUMPDEST PUSH1 0x1 PUSH1 0x0 PUSH1 0x14 PUSH2 0x100 EXP DUP2 SLOAD DUP2 PUSH1 0xFF MUL NOT AND SWAP1 DUP4 ISZERO ISZERO MUL OR SWAP1 SSTORE POP PUSH32 0x62E78CEA01BEE320CD4E420270B5EA74000D11B0C9F74754EBDBFC544B05A258 PUSH2 0x1774 PUSH2 0x1859 JUMP JUMPDEST PUSH1 0x40 MLOAD PUSH2 0x1781 SWAP2 SWAP1 PUSH2 0x1ECD JUMP JUMPDEST PUSH1 0x40 MLOAD DUP1 SWAP2 SUB SWAP1 LOG1 JUMP JUMPDEST PUSH1 0x60 PUSH1 0x0 PUSH1 0x1 PUSH2 0x179A DUP5 PUSH2 0x18A1 JUMP JUMPDEST ADD SWAP1 POP PUSH1 0x0 DUP2 PUSH8 0xFFFFFFFFFFFFFFFF DUP2 GT ISZERO PUSH2 0x17B9 JUMPI PUSH2 0x17B8 PUSH2 0x1A7A JUMP JUMPDEST JUMPDEST PUSH1 0x40 MLOAD SWAP1 DUP1 DUP3 MSTORE DUP1 PUSH1 0x1F ADD PUSH1 0x1F NOT AND PUSH1 0x20 ADD DUP3 ADD PUSH1 0x40 MSTORE DUP1 ISZERO PUSH2 0x17EB JUMPI DUP2 PUSH1 0x20 ADD PUSH1 0x1 DUP3 MUL DUP1 CALLDATASIZE DUP4 CALLDATACOPY DUP1 DUP3 ADD SWAP2 POP POP SWAP1 POP JUMPDEST POP SWAP1 POP PUSH1 0x0 DUP3 PUSH1 0x20 ADD DUP3 ADD SWAP1 POP JUMPDEST PUSH1 0x1 ISZERO PUSH2 0x184E JUMPI DUP1 DUP1 PUSH1 0x1 SWAP1 SUB SWAP2 POP POP PUSH32 0x3031323334353637383961626364656600000000000000000000000000000000 PUSH1 0xA DUP7 MOD BYTE DUP2 MSTORE8 PUSH1 0xA DUP6 DUP2 PUSH2 0x1842 JUMPI PUSH2 0x1841 PUSH2 0x29CB JUMP JUMPDEST JUMPDEST DIV SWAP5 POP PUSH1 0x0 DUP6 SUB PUSH2 0x17F9 JUMPI JUMPDEST DUP2 SWAP4 POP POP POP POP SWAP2 SWAP1 POP JUMP JUMPDEST PUSH1 0x0 CALLER SWAP1 POP SWAP1 JUMP JUMPDEST PUSH2 0x1869 PUSH2 0xCAD JUMP JUMPDEST PUSH2 0x189F JUMPI PUSH1 0x40 MLOAD PUSH32 0x8DFC202B00000000000000000000000000000000000000000000000000000000 DUP2 MSTORE PUSH1 0x4 ADD PUSH1 0x40 MLOAD DUP1 SWAP2 SUB SWAP1 REVERT JUMPDEST JUMP JUMPDEST PUSH1 0x0 DUP1 PUSH1 0x0 SWAP1 POP PUSH27 0x184F03E93FF9F4DAA797ED6E38ED64BF6A1F010000000000000000 DUP4 LT PUSH2 0x18FF JUMPI PUSH27 0x184F03E93FF9F4DAA797ED6E38ED64BF6A1F010000000000000000 DUP4 DUP2 PUSH2 0x18F5 JUMPI PUSH2 0x18F4 PUSH2 0x29CB JUMP JUMPDEST JUMPDEST DIV SWAP3 POP PUSH1 0x40 DUP2 ADD SWAP1 POP JUMPDEST PUSH14 0x4EE2D6D415B85ACEF8100000000 DUP4 LT PUSH2 0x193C JUMPI PUSH14 0x4EE2D6D415B85ACEF8100000000 DUP4 DUP2 PUSH2 0x1932 JUMPI PUSH2 0x1931 PUSH2 0x29CB JUMP JUMPDEST JUMPDEST DIV SWAP3 POP PUSH1 0x20 DUP2 ADD SWAP1 POP JUMPDEST PUSH7 0x2386F26FC10000 DUP4 LT PUSH2 0x196B JUMPI PUSH7 0x2386F26FC10000 DUP4 DUP2 PUSH2 0x1961 JUMPI PUSH2 0x1960 PUSH2 0x29CB JUMP JUMPDEST JUMPDEST DIV SWAP3 POP PUSH1 0x10 DUP2 ADD SWAP1 POP JUMPDEST PUSH4 0x5F5E100 DUP4 LT PUSH2 0x1994 JUMPI PUSH4 0x5F5E100 DUP4 DUP2 PUSH2 0x198A JUMPI PUSH2 0x1989 PUSH2 0x29CB JUMP JUMPDEST JUMPDEST DIV SWAP3 POP PUSH1 0x8 DUP2 ADD SWAP1 POP JUMPDEST PUSH2 0x2710 DUP4 LT PUSH2 0x19B9 JUMPI PUSH2 0x2710 DUP4 DUP2 PUSH2 0x19AF JUMPI PUSH2 0x19AE PUSH2 0x29CB JUMP JUMPDEST JUMPDEST DIV SWAP3 POP PUSH1 0x4 DUP2 ADD SWAP1 POP JUMPDEST PUSH1 0x64 DUP4 LT PUSH2 0x19DC JUMPI PUSH1 0x64 DUP4 DUP2 PUSH2 0x19D2 JUMPI PUSH2 0x19D1 PUSH2 0x29CB JUMP JUMPDEST JUMPDEST DIV SWAP3 POP PUSH1 0x2 DUP2 ADD SWAP1 POP JUMPDEST PUSH1 0xA DUP4 LT PUSH2 0x19EB JUMPI PUSH1 0x1 DUP2 ADD SWAP1 POP JUMPDEST DUP1 SWAP2 POP POP SWAP2 SWAP1 POP JUMP JUMPDEST PUSH1 0x40 MLOAD DUP1 PUSH1 0xA0 ADD PUSH1 0x40 MSTORE DUP1 PUSH1 0x0 DUP2 MSTORE PUSH1 0x20 ADD PUSH1 0x0 DUP2 MSTORE PUSH1 0x20 ADD PUSH1 0x0 PUSH1 0x2 DUP2 GT ISZERO PUSH2 0x1A21 JUMPI PUSH2 0x1A20 PUSH2 0x1C31 JUMP JUMPDEST JUMPDEST DUP2 MSTORE PUSH1 0x20 ADD PUSH1 0x60 DUP2 MSTORE PUSH1 0x20 ADD PUSH1 0x0 PUSH20 0xFFFFFFFFFFFFFFFFFFFFFFFFFFFFFFFFFFFFFFFF AND DUP2 MSTORE POP SWAP1 JUMP JUMPDEST PUSH1 0x0 PUSH1 0x40 MLOAD SWAP1 POP SWAP1 JUMP JUMPDEST PUSH1 0x0 DUP1 REVERT JUMPDEST PUSH1 0x0 DUP1 REVERT JUMPDEST PUSH1 0x0 DUP1 REVERT JUMPDEST PUSH1 0x0 DUP1 REVERT JUMPDEST PUSH1 0x0 PUSH1 0x1F NOT PUSH1 0x1F DUP4 ADD AND SWAP1 POP SWAP2 SWAP1 POP JUMP JUMPDEST PUSH32 0x4E487B7100000000000000000000000000000000000000000000000000000000 PUSH1 0x0 MSTORE PUSH1 0x41 PUSH1 0x4 MSTORE PUSH1 0x24 PUSH1 0x0 REVERT JUMPDEST PUSH2 0x1AB2 DUP3 PUSH2 0x1A69 JUMP JUMPDEST DUP2 ADD DUP2 DUP2 LT PUSH8 0xFFFFFFFFFFFFFFFF DUP3 GT OR ISZERO PUSH2 0x1AD1 JUMPI PUSH2 0x1AD0 PUSH2 0x1A7A JUMP JUMPDEST JUMPDEST DUP1 PUSH1 0x40 MSTORE POP POP POP JUMP JUMPDEST PUSH1 0x0 PUSH2 0x1AE4 PUSH2 0x1A4B JUMP JUMPDEST SWAP1 POP PUSH2 0x1AF0 DUP3 DUP3 PUSH2 0x1AA9 JUMP JUMPDEST SWAP2 SWAP1 POP JUMP JUMPDEST PUSH1 0x0 PUSH8 0xFFFFFFFFFFFFFFFF DUP3 GT ISZERO PUSH2 0x1B10 JUMPI PUSH2 0x1B0F PUSH2 0x1A7A JUMP JUMPDEST JUMPDEST PUSH2 0x1B19 DUP3 PUSH2 0x1A69 JUMP JUMPDEST SWAP1 POP PUSH1 0x20 DUP2 ADD SWAP1 POP SWAP2 SWAP1 POP JUMP JUMPDEST DUP3 DUP2 DUP4 CALLDATACOPY PUSH1 0x0 DUP4 DUP4 ADD MSTORE POP POP POP JUMP JUMPDEST PUSH1 0x0 PUSH2 0x1B48 PUSH2 0x1B43 DUP5 PUSH2 0x1AF5 JUMP JUMPDEST PUSH2 0x1ADA JUMP JUMPDEST SWAP1 POP DUP3 DUP2 MSTORE PUSH1 0x20 DUP2 ADD DUP5 DUP5 DUP5 ADD GT ISZERO PUSH2 0x1B64 JUMPI PUSH2 0x1B63 PUSH2 0x1A64 JUMP JUMPDEST JUMPDEST PUSH2 0x1B6F DUP5 DUP3 DUP6 PUSH2 0x1B26 JUMP JUMPDEST POP SWAP4 SWAP3 POP POP POP JUMP JUMPDEST PUSH1 0x0 DUP3 PUSH1 0x1F DUP4 ADD SLT PUSH2 0x1B8C JUMPI PUSH2 0x1B8B PUSH2 0x1A5F JUMP JUMPDEST JUMPDEST DUP2 CALLDATALOAD PUSH2 0x1B9C DUP5 DUP3 PUSH1 0x20 DUP7 ADD PUSH2 0x1B35 JUMP JUMPDEST SWAP2 POP POP SWAP3 SWAP2 POP POP JUMP JUMPDEST PUSH1 0x0 PUSH1 0x20 DUP3 DUP5 SUB SLT ISZERO PUSH2 0x1BBB JUMPI PUSH2 0x1BBA PUSH2 0x1A55 JUMP JUMPDEST JUMPDEST PUSH1 0x0 DUP3 ADD CALLDATALOAD PUSH8 0xFFFFFFFFFFFFFFFF DUP2 GT ISZERO PUSH2 0x1BD9 JUMPI PUSH2 0x1BD8 PUSH2 0x1A5A JUMP JUMPDEST JUMPDEST PUSH2 0x1BE5 DUP5 DUP3 DUP6 ADD PUSH2 0x1B77 JUMP JUMPDEST SWAP2 POP POP SWAP3 SWAP2 POP POP JUMP JUMPDEST PUSH1 0x0 DUP2 SWAP1 POP SWAP2 SWAP1 POP JUMP JUMPDEST PUSH2 0x1C01 DUP2 PUSH2 0x1BEE JUMP JUMPDEST DUP3 MSTORE POP POP JUMP JUMPDEST PUSH1 0x0 PUSH1 0x20 DUP3 ADD SWAP1 POP PUSH2 0x1C1C PUSH1 0x0 DUP4 ADD DUP5 PUSH2 0x1BF8 JUMP JUMPDEST SWAP3 SWAP2 POP POP JUMP JUMPDEST PUSH2 0x1C2B DUP2 PUSH2 0x1BEE JUMP JUMPDEST DUP3 MSTORE POP POP JUMP JUMPDEST PUSH32 0x4E487B7100000000000000000000000000000000000000000000000000000000 PUSH1 0x0 MSTORE PUSH1 0x21 PUSH1 0x4 MSTORE PUSH1 0x24 PUSH1 0x0 REVERT JUMPDEST PUSH1 0x3 DUP2 LT PUSH2 0x1C71 JUMPI PUSH2 0x1C70 PUSH2 0x1C31 JUMP JUMPDEST JUMPDEST POP JUMP JUMPDEST PUSH1 0x0 DUP2 SWAP1 POP PUSH2 0x1C82 DUP3 PUSH2 0x1C60 JUMP JUMPDEST SWAP2 SWAP1 POP JUMP JUMPDEST PUSH1 0x0 PUSH2 0x1C92 DUP3 PUSH2 0x1C74 JUMP JUMPDEST SWAP1 POP SWAP2 SWAP1 POP JUMP JUMPDEST PUSH2 0x1CA2 DUP2 PUSH2 0x1C87 JUMP JUMPDEST DUP3 MSTORE POP POP JUMP JUMPDEST PUSH1 0x0 DUP2 MLOAD SWAP1 POP SWAP2 SWAP1 POP JUMP JUMPDEST PUSH1 0x0 DUP3 DUP3 MSTORE PUSH1 0x20 DUP3 ADD SWAP1 POP SWAP3 SWAP2 POP POP JUMP JUMPDEST PUSH1 0x0 JUMPDEST DUP4 DUP2 LT ISZERO PUSH2 0x1CE2 JUMPI DUP1 DUP3 ADD MLOAD DUP2 DUP5 ADD MSTORE PUSH1 0x20 DUP2 ADD SWAP1 POP PUSH2 0x1CC7 JUMP JUMPDEST PUSH1 0x0 DUP5 DUP5 ADD MSTORE POP POP POP POP JUMP JUMPDEST PUSH1 0x0 PUSH2 0x1CF9 DUP3 PUSH2 0x1CA8 JUMP JUMPDEST PUSH2 0x1D03 DUP2 DUP6 PUSH2 0x1CB3 JUMP JUMPDEST SWAP4 POP PUSH2 0x1D13 DUP2 DUP6 PUSH1 0x20 DUP7 ADD PUSH2 0x1CC4 JUMP JUMPDEST PUSH2 0x1D1C DUP2 PUSH2 0x1A69 JUMP JUMPDEST DUP5 ADD SWAP2 POP POP SWAP3 SWAP2 POP POP JUMP JUMPDEST PUSH1 0x0 PUSH20 0xFFFFFFFFFFFFFFFFFFFFFFFFFFFFFFFFFFFFFFFF DUP3 AND SWAP1 POP SWAP2 SWAP1 POP JUMP JUMPDEST PUSH1 0x0 PUSH2 0x1D52 DUP3 PUSH2 0x1D27 JUMP JUMPDEST SWAP1 POP SWAP2 SWAP1 POP JUMP JUMPDEST PUSH2 0x1D62 DUP2 PUSH2 0x1D47 JUMP JUMPDEST DUP3 MSTORE POP POP JUMP JUMPDEST PUSH1 0x0 PUSH1 0xA0 DUP4 ADD PUSH1 0x0 DUP4 ADD MLOAD PUSH2 0x1D80 PUSH1 0x0 DUP7 ADD DUP3 PUSH2 0x1C22 JUMP JUMPDEST POP PUSH1 0x20 DUP4 ADD MLOAD PUSH2 0x1D93 PUSH1 0x20 DUP7 ADD DUP3 PUSH2 0x1C22 JUMP JUMPDEST POP PUSH1 0x40 DUP4 ADD MLOAD PUSH2 0x1DA6 PUSH1 0x40 DUP7 ADD DUP3 PUSH2 0x1C99 JUMP JUMPDEST POP PUSH1 0x60 DUP4 ADD MLOAD DUP5 DUP3 SUB PUSH1 0x60 DUP7 ADD MSTORE PUSH2 0x1DBE DUP3 DUP3 PUSH2 0x1CEE JUMP JUMPDEST SWAP2 POP POP PUSH1 0x80 DUP4 ADD MLOAD PUSH2 0x1DD3 PUSH1 0x80 DUP7 ADD DUP3 PUSH2 0x1D59 JUMP JUMPDEST POP DUP1 SWAP2 POP POP SWAP3 SWAP2 POP POP JUMP JUMPDEST PUSH1 0x0 PUSH1 0x20 DUP3 ADD SWAP1 POP DUP2 DUP2 SUB PUSH1 0x0 DUP4 ADD MSTORE PUSH2 0x1DF8 DUP2 DUP5 PUSH2 0x1D68 JUMP JUMPDEST SWAP1 POP SWAP3 SWAP2 POP POP JUMP JUMPDEST PUSH1 0x0 DUP2 ISZERO ISZERO SWAP1 POP SWAP2 SWAP1 POP JUMP JUMPDEST PUSH2 0x1E15 DUP2 PUSH2 0x1E00 JUMP JUMPDEST DUP3 MSTORE POP POP JUMP JUMPDEST PUSH1 0x0 PUSH1 0x20 DUP3 ADD SWAP1 POP PUSH2 0x1E30 PUSH1 0x0 DUP4 ADD DUP5 PUSH2 0x1E0C JUMP JUMPDEST SWAP3 SWAP2 POP POP JUMP JUMPDEST PUSH2 0x1E3F DUP2 PUSH2 0x1BEE JUMP JUMPDEST DUP2 EQ PUSH2 0x1E4A JUMPI PUSH1 0x0 DUP1 REVERT JUMPDEST POP JUMP JUMPDEST PUSH1 0x0 DUP2 CALLDATALOAD SWAP1 POP PUSH2 0x1E5C DUP2 PUSH2 0x1E36 JUMP JUMPDEST SWAP3 SWAP2 POP POP JUMP JUMPDEST PUSH1 0x0 DUP1 PUSH1 0x40 DUP4 DUP6 SUB SLT ISZERO PUSH2 0x1E79 JUMPI PUSH2 0x1E78 PUSH2 0x1A55 JUMP JUMPDEST JUMPDEST PUSH1 0x0 DUP4 ADD CALLDATALOAD PUSH8 0xFFFFFFFFFFFFFFFF DUP2 GT ISZERO PUSH2 0x1E97 JUMPI PUSH2 0x1E96 PUSH2 0x1A5A JUMP JUMPDEST JUMPDEST PUSH2 0x1EA3 DUP6 DUP3 DUP7 ADD PUSH2 0x1B77 JUMP JUMPDEST SWAP3 POP POP PUSH1 0x20 PUSH2 0x1EB4 DUP6 DUP3 DUP7 ADD PUSH2 0x1E4D JUMP JUMPDEST SWAP2 POP POP SWAP3 POP SWAP3 SWAP1 POP JUMP JUMPDEST PUSH2 0x1EC7 DUP2 PUSH2 0x1D47 JUMP JUMPDEST DUP3 MSTORE POP POP JUMP JUMPDEST PUSH1 0x0 PUSH1 0x20 DUP3 ADD SWAP1 POP PUSH2 0x1EE2 PUSH1 0x0 DUP4 ADD DUP5 PUSH2 0x1EBE JUMP JUMPDEST SWAP3 SWAP2 POP POP JUMP JUMPDEST PUSH1 0x0 PUSH1 0x20 DUP3 DUP5 SUB SLT ISZERO PUSH2 0x1EFE JUMPI PUSH2 0x1EFD PUSH2 0x1A55 JUMP JUMPDEST JUMPDEST PUSH1 0x0 PUSH2 0x1F0C DUP5 DUP3 DUP6 ADD PUSH2 0x1E4D JUMP JUMPDEST SWAP2 POP POP SWAP3 SWAP2 POP POP JUMP JUMPDEST PUSH2 0x1F1E DUP2 PUSH2 0x1C87 JUMP JUMPDEST DUP3 MSTORE POP POP JUMP JUMPDEST PUSH1 0x0 DUP3 DUP3 MSTORE PUSH1 0x20 DUP3 ADD SWAP1 POP SWAP3 SWAP2 POP POP JUMP JUMPDEST PUSH1 0x0 PUSH2 0x1F40 DUP3 PUSH2 0x1CA8 JUMP JUMPDEST PUSH2 0x1F4A DUP2 DUP6 PUSH2 0x1F24 JUMP JUMPDEST SWAP4 POP PUSH2 0x1F5A DUP2 DUP6 PUSH1 0x20 DUP7 ADD PUSH2 0x1CC4 JUMP JUMPDEST PUSH2 0x1F63 DUP2 PUSH2 0x1A69 JUMP JUMPDEST DUP5 ADD SWAP2 POP POP SWAP3 SWAP2 POP POP JUMP JUMPDEST PUSH1 0x0 PUSH1 0xA0 DUP3 ADD SWAP1 POP PUSH2 0x1F83 PUSH1 0x0 DUP4 ADD DUP9 PUSH2 0x1BF8 JUMP JUMPDEST PUSH2 0x1F90 PUSH1 0x20 DUP4 ADD DUP8 PUSH2 0x1BF8 JUMP JUMPDEST PUSH2 0x1F9D PUSH1 0x40 DUP4 ADD DUP7 PUSH2 0x1F15 JUMP JUMPDEST DUP2 DUP2 SUB PUSH1 0x60 DUP4 ADD MSTORE PUSH2 0x1FAF DUP2 DUP6 PUSH2 0x1F35 JUMP JUMPDEST SWAP1 POP PUSH2 0x1FBE PUSH1 0x80 DUP4 ADD DUP5 PUSH2 0x1EBE JUMP JUMPDEST SWAP7 SWAP6 POP POP POP POP POP POP JUMP JUMPDEST PUSH2 0x1FD1 DUP2 PUSH2 0x1D47 JUMP JUMPDEST DUP2 EQ PUSH2 0x1FDC JUMPI PUSH1 0x0 DUP1 REVERT JUMPDEST POP JUMP JUMPDEST PUSH1 0x0 DUP2 CALLDATALOAD SWAP1 POP PUSH2 0x1FEE DUP2 PUSH2 0x1FC8 JUMP JUMPDEST SWAP3 SWAP2 POP POP JUMP JUMPDEST PUSH1 0x0 PUSH1 0x20 DUP3 DUP5 SUB SLT ISZERO PUSH2 0x200A JUMPI PUSH2 0x2009 PUSH2 0x1A55 JUMP JUMPDEST JUMPDEST PUSH1 0x0 PUSH2 0x2018 DUP5 DUP3 DUP6 ADD PUSH2 0x1FDF JUMP JUMPDEST SWAP2 POP POP SWAP3 SWAP2 POP POP JUMP JUMPDEST PUSH1 0x0 DUP2 SWAP1 POP SWAP3 SWAP2 POP POP JUMP JUMPDEST PUSH1 0x0 PUSH2 0x2037 DUP3 PUSH2 0x1CA8 JUMP JUMPDEST PUSH2 0x2041 DUP2 DUP6 PUSH2 0x2021 JUMP JUMPDEST SWAP4 POP PUSH2 0x2051 DUP2 DUP6 PUSH1 0x20 DUP7 ADD PUSH2 0x1CC4 JUMP JUMPDEST DUP1 DUP5 ADD SWAP2 POP POP SWAP3 SWAP2 POP POP JUMP JUMPDEST PUSH1 0x0 PUSH2 0x2069 DUP3 DUP5 PUSH2 0x202C JUMP JUMPDEST SWAP2 POP DUP2 SWAP1 POP SWAP3 SWAP2 POP POP JUMP JUMPDEST PUSH32 0x496E76616C69642063616D706169676E20636F64650000000000000000000000 PUSH1 0x0 DUP3 ADD MSTORE POP JUMP JUMPDEST PUSH1 0x0 PUSH2 0x20AA PUSH1 0x15 DUP4 PUSH2 0x1F24 JUMP JUMPDEST SWAP2 POP PUSH2 0x20B5 DUP3 PUSH2 0x2074 JUMP JUMPDEST PUSH1 0x20 DUP3 ADD SWAP1 POP SWAP2 SWAP1 POP JUMP JUMPDEST PUSH1 0x0 PUSH1 0x20 DUP3 ADD SWAP1 POP DUP2 DUP2 SUB PUSH1 0x0 DUP4 ADD MSTORE PUSH2 0x20D9 DUP2 PUSH2 0x209D JUMP JUMPDEST SWAP1 POP SWAP2 SWAP1 POP JUMP JUMPDEST PUSH32 0x43616D706169676E206973206E6F742061637469766500000000000000000000 PUSH1 0x0 DUP3 ADD MSTORE POP JUMP JUMPDEST PUSH1 0x0 PUSH2 0x2116 PUSH1 0x16 DUP4 PUSH2 0x1F24 JUMP JUMPDEST SWAP2 POP PUSH2 0x2121 DUP3 PUSH2 0x20E0 JUMP JUMPDEST PUSH1 0x20 DUP3 ADD SWAP1 POP SWAP2 SWAP1 POP JUMP JUMPDEST PUSH1 0x0 PUSH1 0x20 DUP3 ADD SWAP1 POP DUP2 DUP2 SUB PUSH1 0x0 DUP4 ADD MSTORE PUSH2 0x2145 DUP2 PUSH2 0x2109 JUMP JUMPDEST SWAP1 POP SWAP2 SWAP1 POP JUMP JUMPDEST PUSH32 0x4F6E6C792074686520616476657274697365722063616E207265717565737420 PUSH1 0x0 DUP3 ADD MSTORE PUSH32 0x7769746864726177616C00000000000000000000000000000000000000000000 PUSH1 0x20 DUP3 ADD MSTORE POP JUMP JUMPDEST PUSH1 0x0 PUSH2 0x21A8 PUSH1 0x2A DUP4 PUSH2 0x1F24 JUMP JUMPDEST SWAP2 POP PUSH2 0x21B3 DUP3 PUSH2 0x214C JUMP JUMPDEST PUSH1 0x40 DUP3 ADD SWAP1 POP SWAP2 SWAP1 POP JUMP JUMPDEST PUSH1 0x0 PUSH1 0x20 DUP3 ADD SWAP1 POP DUP2 DUP2 SUB PUSH1 0x0 DUP4 ADD MSTORE PUSH2 0x21D7 DUP2 PUSH2 0x219B JUMP JUMPDEST SWAP1 POP SWAP2 SWAP1 POP JUMP JUMPDEST PUSH1 0x0 PUSH1 0x20 DUP3 ADD SWAP1 POP DUP2 DUP2 SUB PUSH1 0x0 DUP4 ADD MSTORE PUSH2 0x21F8 DUP2 DUP5 PUSH2 0x1F35 JUMP JUMPDEST SWAP1 POP SWAP3 SWAP2 POP POP JUMP JUMPDEST PUSH32 0x746865206275646765742073686F756C64206265206772656174657220746861 PUSH1 0x0 DUP3 ADD MSTORE PUSH32 0x6E207A65726F0000000000000000000000000000000000000000000000000000 PUSH1 0x20 DUP3 ADD MSTORE POP JUMP JUMPDEST PUSH1 0x0 PUSH2 0x225C PUSH1 0x26 DUP4 PUSH2 0x1F24 JUMP JUMPDEST SWAP2 POP PUSH2 0x2267 DUP3 PUSH2 0x2200 JUMP JUMPDEST PUSH1 0x40 DUP3 ADD SWAP1 POP SWAP2 SWAP1 POP JUMP JUMPDEST PUSH1 0x0 PUSH1 0x20 DUP3 ADD SWAP1 POP DUP2 DUP2 SUB PUSH1 0x0 DUP4 ADD MSTORE PUSH2 0x228B DUP2 PUSH2 0x224F JUMP JUMPDEST SWAP1 POP SWAP2 SWAP1 POP JUMP JUMPDEST PUSH32 0x4E487B7100000000000000000000000000000000000000000000000000000000 PUSH1 0x0 MSTORE PUSH1 0x11 PUSH1 0x4 MSTORE PUSH1 0x24 PUSH1 0x0 REVERT JUMPDEST PUSH1 0x0 PUSH2 0x22CC DUP3 PUSH2 0x1BEE JUMP JUMPDEST SWAP2 POP PUSH32 0xFFFFFFFFFFFFFFFFFFFFFFFFFFFFFFFFFFFFFFFFFFFFFFFFFFFFFFFFFFFFFFFF DUP3 SUB PUSH2 0x22FE JUMPI PUSH2 0x22FD PUSH2 0x2292 JUMP JUMPDEST JUMPDEST PUSH1 0x1 DUP3 ADD SWAP1 POP SWAP2 SWAP1 POP JUMP JUMPDEST PUSH32 0x4E487B7100000000000000000000000000000000000000000000000000000000 PUSH1 0x0 MSTORE PUSH1 0x22 PUSH1 0x4 MSTORE PUSH1 0x24 PUSH1 0x0 REVERT JUMPDEST PUSH1 0x0 PUSH1 0x2 DUP3 DIV SWAP1 POP PUSH1 0x1 DUP3 AND DUP1 PUSH2 0x2350 JUMPI PUSH1 0x7F DUP3 AND SWAP2 POP JUMPDEST PUSH1 0x20 DUP3 LT DUP2 SUB PUSH2 0x2363 JUMPI PUSH2 0x2362 PUSH2 0x2309 JUMP JUMPDEST JUMPDEST POP SWAP2 SWAP1 POP JUMP JUMPDEST PUSH1 0x0 DUP2 SWAP1 POP DUP2 PUSH1 0x0 MSTORE PUSH1 0x20 PUSH1 0x0 KECCAK256 SWAP1 POP SWAP2 SWAP1 POP JUMP JUMPDEST PUSH1 0x0 PUSH1 0x20 PUSH1 0x1F DUP4 ADD DIV SWAP1 POP SWAP2 SWAP1 POP JUMP JUMPDEST PUSH1 0x0 DUP3 DUP3 SHL SWAP1 POP SWAP3 SWAP2 POP POP JUMP JUMPDEST PUSH1 0x0 PUSH1 0x8 DUP4 MUL PUSH2 0x23CB PUSH32 0xFFFFFFFFFFFFFFFFFFFFFFFFFFFFFFFFFFFFFFFFFFFFFFFFFFFFFFFFFFFFFFFF DUP3 PUSH2 0x238E JUMP JUMPDEST PUSH2 0x23D5 DUP7 DUP4 PUSH2 0x238E JUMP JUMPDEST SWAP6 POP DUP1 NOT DUP5 AND SWAP4 POP DUP1 DUP7 AND DUP5 OR SWAP3 POP POP POP SWAP4 SWAP3 POP POP POP JUMP JUMPDEST PUSH1 0x0 DUP2 SWAP1 POP SWAP2 SWAP1 POP JUMP JUMPDEST PUSH1 0x0 PUSH2 0x2412 PUSH2 0x240D PUSH2 0x2408 DUP5 PUSH2 0x1BEE JUMP JUMPDEST PUSH2 0x23ED JUMP JUMPDEST PUSH2 0x1BEE JUMP JUMPDEST SWAP1 POP SWAP2 SWAP1 POP JUMP JUMPDEST PUSH1 0x0 DUP2 SWAP1 POP SWAP2 SWAP1 POP JUMP JUMPDEST PUSH2 0x242C DUP4 PUSH2 0x23F7 JUMP JUMPDEST PUSH2 0x2440 PUSH2 0x2438 DUP3 PUSH2 0x2419 JUMP JUMPDEST DUP5 DUP5 SLOAD PUSH2 0x239B JUMP JUMPDEST DUP3 SSTORE POP POP POP POP JUMP JUMPDEST PUSH1 0x0 SWAP1 JUMP JUMPDEST PUSH2 0x2455 PUSH2 0x2448 JUMP JUMPDEST PUSH2 0x2460 DUP2 DUP5 DUP5 PUSH2 0x2423 JUMP JUMPDEST POP POP POP JUMP JUMPDEST JUMPDEST DUP2 DUP2 LT ISZERO PUSH2 0x2484 JUMPI PUSH2 0x2479 PUSH1 0x0 DUP3 PUSH2 0x244D JUMP JUMPDEST PUSH1 0x1 DUP2 ADD SWAP1 POP PUSH2 0x2466 JUMP JUMPDEST POP POP JUMP JUMPDEST PUSH1 0x1F DUP3 GT ISZERO PUSH2 0x24C9 JUMPI PUSH2 0x249A DUP2 PUSH2 0x2369 JUMP JUMPDEST PUSH2 0x24A3 DUP5 PUSH2 0x237E JUMP JUMPDEST DUP2 ADD PUSH1 0x20 DUP6 LT ISZERO PUSH2 0x24B2 JUMPI DUP2 SWAP1 POP JUMPDEST PUSH2 0x24C6 PUSH2 0x24BE DUP6 PUSH2 0x237E JUMP JUMPDEST DUP4 ADD DUP3 PUSH2 0x2465 JUMP JUMPDEST POP POP JUMPDEST POP POP POP JUMP JUMPDEST PUSH1 0x0 DUP3 DUP3 SHR SWAP1 POP SWAP3 SWAP2 POP POP JUMP JUMPDEST PUSH1 0x0 PUSH2 0x24EC PUSH1 0x0 NOT DUP5 PUSH1 0x8 MUL PUSH2 0x24CE JUMP JUMPDEST NOT DUP1 DUP4 AND SWAP2 POP POP SWAP3 SWAP2 POP POP JUMP JUMPDEST PUSH1 0x0 PUSH2 0x2505 DUP4 DUP4 PUSH2 0x24DB JUMP JUMPDEST SWAP2 POP DUP3 PUSH1 0x2 MUL DUP3 OR SWAP1 POP SWAP3 SWAP2 POP POP JUMP JUMPDEST PUSH2 0x251E DUP3 PUSH2 0x1CA8 JUMP JUMPDEST PUSH8 0xFFFFFFFFFFFFFFFF DUP2 GT ISZERO PUSH2 0x2537 JUMPI PUSH2 0x2536 PUSH2 0x1A7A JUMP JUMPDEST JUMPDEST PUSH2 0x2541 DUP3 SLOAD PUSH2 0x2338 JUMP JUMPDEST PUSH2 0x254C DUP3 DUP3 DUP6 PUSH2 0x2488 JUMP JUMPDEST PUSH1 0x0 PUSH1 0x20 SWAP1 POP PUSH1 0x1F DUP4 GT PUSH1 0x1 DUP2 EQ PUSH2 0x257F JUMPI PUSH1 0x0 DUP5 ISZERO PUSH2 0x256D JUMPI DUP3 DUP8 ADD MLOAD SWAP1 POP JUMPDEST PUSH2 0x2577 DUP6 DUP3 PUSH2 0x24F9 JUMP JUMPDEST DUP7 SSTORE POP PUSH2 0x25DF JUMP JUMPDEST PUSH1 0x1F NOT DUP5 AND PUSH2 0x258D DUP7 PUSH2 0x2369 JUMP JUMPDEST PUSH1 0x0 JUMPDEST DUP3 DUP2 LT ISZERO PUSH2 0x25B5 JUMPI DUP5 DUP10 ADD MLOAD DUP3 SSTORE PUSH1 0x1 DUP3 ADD SWAP2 POP PUSH1 0x20 DUP6 ADD SWAP5 POP PUSH1 0x20 DUP2 ADD SWAP1 POP PUSH2 0x2590 JUMP JUMPDEST DUP7 DUP4 LT ISZERO PUSH2 0x25D2 JUMPI DUP5 DUP10 ADD MLOAD PUSH2 0x25CE PUSH1 0x1F DUP10 AND DUP3 PUSH2 0x24DB JUMP JUMPDEST DUP4 SSTORE POP JUMPDEST PUSH1 0x1 PUSH1 0x2 DUP9 MUL ADD DUP9 SSTORE POP POP POP JUMPDEST POP POP POP POP POP POP JUMP JUMPDEST PUSH1 0x0 PUSH1 0x40 DUP3 ADD SWAP1 POP DUP2 DUP2 SUB PUSH1 0x0 DUP4 ADD MSTORE PUSH2 0x2601 DUP2 DUP6 PUSH2 0x1F35 JUMP JUMPDEST SWAP1 POP PUSH2 0x2610 PUSH1 0x20 DUP4 ADD DUP5 PUSH2 0x1BF8 JUMP JUMPDEST SWAP4 SWAP3 POP POP POP JUMP JUMPDEST PUSH32 0x4F6E6C79207468652061647665727469736572206F72206F776E65722063616E PUSH1 0x0 DUP3 ADD MSTORE PUSH32 0x2072657175657374207769746864726177616C00000000000000000000000000 PUSH1 0x20 DUP3 ADD MSTORE POP JUMP JUMPDEST PUSH1 0x0 PUSH2 0x2673 PUSH1 0x33 DUP4 PUSH2 0x1F24 JUMP JUMPDEST SWAP2 POP PUSH2 0x267E DUP3 PUSH2 0x2617 JUMP JUMPDEST PUSH1 0x40 DUP3 ADD SWAP1 POP SWAP2 SWAP1 POP JUMP JUMPDEST PUSH1 0x0 PUSH1 0x20 DUP3 ADD SWAP1 POP DUP2 DUP2 SUB PUSH1 0x0 DUP4 ADD MSTORE PUSH2 0x26A2 DUP2 PUSH2 0x2666 JUMP JUMPDEST SWAP1 POP SWAP2 SWAP1 POP JUMP JUMPDEST PUSH1 0x0 PUSH2 0x26B4 DUP3 PUSH2 0x1BEE JUMP JUMPDEST SWAP2 POP PUSH2 0x26BF DUP4 PUSH2 0x1BEE JUMP JUMPDEST SWAP3 POP DUP3 DUP3 SUB SWAP1 POP DUP2 DUP2 GT ISZERO PUSH2 0x26D7 JUMPI PUSH2 0x26D6 PUSH2 0x2292 JUMP JUMPDEST JUMPDEST SWAP3 SWAP2 POP POP JUMP JUMPDEST PUSH1 0x0 PUSH1 0x60 DUP3 ADD SWAP1 POP DUP2 DUP2 SUB PUSH1 0x0 DUP4 ADD MSTORE PUSH2 0x26F7 DUP2 DUP7 PUSH2 0x1F35 JUMP JUMPDEST SWAP1 POP PUSH2 0x2706 PUSH1 0x20 DUP4 ADD DUP6 PUSH2 0x1EBE JUMP JUMPDEST PUSH2 0x2713 PUSH1 0x40 DUP4 ADD DUP5 PUSH2 0x1BF8 JUMP JUMPDEST SWAP5 SWAP4 POP POP POP POP JUMP JUMPDEST PUSH32 0x5769746864726177616C206E6F74207265717565737465640000000000000000 PUSH1 0x0 DUP3 ADD MSTORE POP JUMP JUMPDEST PUSH1 0x0 PUSH2 0x2751 PUSH1 0x18 DUP4 PUSH2 0x1F24 JUMP JUMPDEST SWAP2 POP PUSH2 0x275C DUP3 PUSH2 0x271B JUMP JUMPDEST PUSH1 0x20 DUP3 ADD SWAP1 POP SWAP2 SWAP1 POP JUMP JUMPDEST PUSH1 0x0 PUSH1 0x20 DUP3 ADD SWAP1 POP DUP2 DUP2 SUB PUSH1 0x0 DUP4 ADD MSTORE PUSH2 0x2780 DUP2 PUSH2 0x2744 JUMP JUMPDEST SWAP1 POP SWAP2 SWAP1 POP JUMP JUMPDEST PUSH32 0x4275646765742065786365656465640000000000000000000000000000000000 PUSH1 0x0 DUP3 ADD MSTORE POP JUMP JUMPDEST PUSH1 0x0 PUSH2 0x27BD PUSH1 0xF DUP4 PUSH2 0x1F24 JUMP JUMPDEST SWAP2 POP PUSH2 0x27C8 DUP3 PUSH2 0x2787 JUMP JUMPDEST PUSH1 0x20 DUP3 ADD SWAP1 POP SWAP2 SWAP1 POP JUMP JUMPDEST PUSH1 0x0 PUSH1 0x20 DUP3 ADD SWAP1 POP DUP2 DUP2 SUB PUSH1 0x0 DUP4 ADD MSTORE PUSH2 0x27EC DUP2 PUSH2 0x27B0 JUMP JUMPDEST SWAP1 POP SWAP2 SWAP1 POP JUMP JUMPDEST PUSH32 0x205468652063757272656E7420616D6F756E7420636C61696D65642073686F75 PUSH1 0x0 DUP3 ADD MSTORE PUSH32 0x6C642062652067726561746572207468616E207A65726F000000000000000000 PUSH1 0x20 DUP3 ADD MSTORE POP JUMP JUMPDEST PUSH1 0x0 PUSH2 0x284F PUSH1 0x37 DUP4 PUSH2 0x1F24 JUMP JUMPDEST SWAP2 POP PUSH2 0x285A DUP3 PUSH2 0x27F3 JUMP JUMPDEST PUSH1 0x40 DUP3 ADD SWAP1 POP SWAP2 SWAP1 POP JUMP JUMPDEST PUSH1 0x0 PUSH1 0x20 DUP3 ADD SWAP1 POP DUP2 DUP2 SUB PUSH1 0x0 DUP4 ADD MSTORE PUSH2 0x287E DUP2 PUSH2 0x2842 JUMP JUMPDEST SWAP1 POP SWAP2 SWAP1 POP JUMP JUMPDEST PUSH32 0x496E73756666696369656E7420636F6E74726163742062616C616E6365000000 PUSH1 0x0 DUP3 ADD MSTORE POP JUMP JUMPDEST PUSH1 0x0 PUSH2 0x28BB PUSH1 0x1D DUP4 PUSH2 0x1F24 JUMP JUMPDEST SWAP2 POP PUSH2 0x28C6 DUP3 PUSH2 0x2885 JUMP JUMPDEST PUSH1 0x20 DUP3 ADD SWAP1 POP SWAP2 SWAP1 POP JUMP JUMPDEST PUSH1 0x0 PUSH1 0x20 DUP3 ADD SWAP1 POP DUP2 DUP2 SUB PUSH1 0x0 DUP4 ADD MSTORE PUSH2 0x28EA DUP2 PUSH2 0x28AE JUMP JUMPDEST SWAP1 POP SWAP2 SWAP1 POP JUMP JUMPDEST PUSH1 0x0 PUSH2 0x28FC DUP3 PUSH2 0x1BEE JUMP JUMPDEST SWAP2 POP PUSH2 0x2907 DUP4 PUSH2 0x1BEE JUMP JUMPDEST SWAP3 POP DUP3 DUP3 ADD SWAP1 POP DUP1 DUP3 GT ISZERO PUSH2 0x291F JUMPI PUSH2 0x291E PUSH2 0x2292 JUMP JUMPDEST JUMPDEST SWAP3 SWAP2 POP POP JUMP JUMPDEST PUSH1 0x0 DUP2 SWAP1 POP SWAP2 SWAP1 POP JUMP JUMPDEST PUSH2 0x2940 PUSH2 0x293B DUP3 PUSH2 0x1BEE JUMP JUMPDEST PUSH2 0x2925 JUMP JUMPDEST DUP3 MSTORE POP POP JUMP JUMPDEST PUSH1 0x0 DUP2 PUSH1 0x60 SHL SWAP1 POP SWAP2 SWAP1 POP JUMP JUMPDEST PUSH1 0x0 PUSH2 0x295E DUP3 PUSH2 0x2946 JUMP JUMPDEST SWAP1 POP SWAP2 SWAP1 POP JUMP JUMPDEST PUSH1 0x0 PUSH2 0x2970 DUP3 PUSH2 0x2953 JUMP JUMPDEST SWAP1 POP SWAP2 SWAP1 POP JUMP JUMPDEST PUSH2 0x2988 PUSH2 0x2983 DUP3 PUSH2 0x1D47 JUMP JUMPDEST PUSH2 0x2965 JUMP JUMPDEST DUP3 MSTORE POP POP JUMP JUMPDEST PUSH1 0x0 PUSH2 0x299A DUP3 DUP7 PUSH2 0x292F JUMP JUMPDEST PUSH1 0x20 DUP3 ADD SWAP2 POP PUSH2 0x29AA DUP3 DUP6 PUSH2 0x292F JUMP JUMPDEST PUSH1 0x20 DUP3 ADD SWAP2 POP PUSH2 0x29BA DUP3 DUP5 PUSH2 0x2977 JUMP JUMPDEST PUSH1 0x14 DUP3 ADD SWAP2 POP DUP2 SWAP1 POP SWAP5 SWAP4 POP POP POP POP JUMP JUMPDEST PUSH32 0x4E487B7100000000000000000000000000000000000000000000000000000000 PUSH1 0x0 MSTORE PUSH1 0x12 PUSH1 0x4 MSTORE PUSH1 0x24 PUSH1 0x0 REVERT JUMPDEST PUSH1 0x0 PUSH2 0x2A05 DUP3 PUSH2 0x1BEE JUMP JUMPDEST SWAP2 POP PUSH2 0x2A10 DUP4 PUSH2 0x1BEE JUMP JUMPDEST SWAP3 POP DUP3 PUSH2 0x2A20 JUMPI PUSH2 0x2A1F PUSH2 0x29CB JUMP JUMPDEST JUMPDEST DUP3 DUP3 MOD SWAP1 POP SWAP3 SWAP2 POP POP JUMP JUMPDEST PUSH32 0x43414D504149474E2D0000000000000000000000000000000000000000000000 PUSH1 0x0 DUP3 ADD MSTORE POP JUMP JUMPDEST PUSH1 0x0 PUSH2 0x2A61 PUSH1 0x9 DUP4 PUSH2 0x2021 JUMP JUMPDEST SWAP2 POP PUSH2 0x2A6C DUP3 PUSH2 0x2A2B JUMP JUMPDEST PUSH1 0x9 DUP3 ADD SWAP1 POP SWAP2 SWAP1 POP JUMP JUMPDEST PUSH32 0x2D00000000000000000000000000000000000000000000000000000000000000 PUSH1 0x0 DUP3 ADD MSTORE POP JUMP JUMPDEST PUSH1 0x0 PUSH2 0x2AAD PUSH1 0x1 DUP4 PUSH2 0x2021 JUMP JUMPDEST SWAP2 POP PUSH2 0x2AB8 DUP3 PUSH2 0x2A77 JUMP JUMPDEST PUSH1 0x1 DUP3 ADD SWAP1 POP SWAP2 SWAP1 POP JUMP JUMPDEST PUSH1 0x0 PUSH2 0x2ACE DUP3 PUSH2 0x2A54 JUMP JUMPDEST SWAP2 POP PUSH2 0x2ADA DUP3 DUP6 PUSH2 0x202C JUMP JUMPDEST SWAP2 POP PUSH2 0x2AE5 DUP3 PUSH2 0x2AA0 JUMP JUMPDEST SWAP2 POP PUSH2 0x2AF1 DUP3 DUP5 PUSH2 0x202C JUMP JUMPDEST SWAP2 POP DUP2 SWAP1 POP SWAP4 SWAP3 POP POP POP JUMP INVALID LOG2 PUSH5 0x6970667358 0x22 SLT KECCAK256 0xB6 DUP6 JUMPDEST SWAP12 0x25 0xC4 0xE0 0xE2 EXTCODESIZE RETURNDATACOPY 0xDF SWAP9 0xD9 0xBF 0xCA SWAP1 SHL SLOAD PUSH13 0x4A8E5AB1C45AE4EB9CC1D6A55A PUSH5 0x736F6C6343 STOP ADDMOD XOR STOP CALLER "
        },
        "methodIdentifiers": {
          "adCampaignCount()": "0bedb86d",
          "adCampaigns(uint256)": "a649d04f",
          "approveWithdrawal(string,uint256)": "72a79388",
          "campaignCodesToId(string)": "d0ac4013",
          "claimPayment(string,uint256)": "7aab369b",
          "createAdCampaign()": "0da949df",
          "getAdCampaignByCode(string)": "415eaedd",
          "owner()": "8da5cb5b",
          "pause()": "8456cb59",
          "paused()": "5c975abb",
          "renounceOwnership()": "715018a6",
          "requestAndApproveWithdrawal(string)": "3f0c4988",
          "requestWithdrawal(string)": "088b76d4",
          "transferOwnership(address)": "f2fde38b",
          "unpause()": "3f4ba83a"
        }
      }
    }
  }
}