{
  "_format": "hh-sol-artifact-1",
  "contractName": "AdCampaignManager",
  "sourceName": "contracts/AdCampaignManager.sol",
  "abi": [
    {
      "inputs": [],
      "stateMutability": "nonpayable",
      "type": "constructor"
    },
    {
      "inputs": [],
      "name": "EnforcedPause",
      "type": "error"
    },
    {
      "inputs": [],
      "name": "ExpectedPause",
      "type": "error"
    },
    {
      "inputs": [
        {
          "internalType": "address",
          "name": "owner",
          "type": "address"
        }
      ],
      "name": "OwnableInvalidOwner",
      "type": "error"
    },
    {
      "inputs": [
        {
          "internalType": "address",
          "name": "account",
          "type": "address"
        }
      ],
      "name": "OwnableUnauthorizedAccount",
      "type": "error"
    },
    {
      "inputs": [],
      "name": "ReentrancyGuardReentrantCall",
      "type": "error"
    },
    {
      "anonymous": false,
      "inputs": [
        {
          "indexed": false,
          "internalType": "string",
          "name": "campaignCode",
          "type": "string"
        },
        {
          "indexed": false,
          "internalType": "uint256",
          "name": "budget",
          "type": "uint256"
        }
      ],
      "name": "AdCampaignCreated",
      "type": "event"
    },
    {
      "anonymous": false,
      "inputs": [
        {
          "indexed": false,
          "internalType": "string",
          "name": "campaignCode",
          "type": "string"
        },
        {
          "indexed": false,
          "internalType": "address",
          "name": "advertiser",
          "type": "address"
        },
        {
          "indexed": false,
          "internalType": "uint256",
          "name": "amount",
          "type": "uint256"
        }
      ],
      "name": "BudgetWithdrawn",
      "type": "event"
    },
    {
      "anonymous": false,
      "inputs": [
        {
          "indexed": true,
          "internalType": "address",
          "name": "previousOwner",
          "type": "address"
        },
        {
          "indexed": true,
          "internalType": "address",
          "name": "newOwner",
          "type": "address"
        }
      ],
      "name": "OwnershipTransferred",
      "type": "event"
    },
    {
      "anonymous": false,
      "inputs": [
        {
          "indexed": false,
          "internalType": "address",
          "name": "account",
          "type": "address"
        }
      ],
      "name": "Paused",
      "type": "event"
    },
    {
      "anonymous": false,
      "inputs": [
        {
          "indexed": false,
          "internalType": "string",
          "name": "campaignCode",
          "type": "string"
        },
        {
          "indexed": false,
          "internalType": "uint256",
          "name": "paymentAmount",
          "type": "uint256"
        }
      ],
      "name": "PaymentReleased",
      "type": "event"
    },
    {
      "anonymous": false,
      "inputs": [
        {
          "indexed": false,
          "internalType": "string",
          "name": "campaignCode",
          "type": "string"
        },
        {
          "indexed": false,
          "internalType": "uint256",
          "name": "paymentAmount",
          "type": "uint256"
        }
      ],
      "name": "PaymentReleasedOnWithdrawApproval",
      "type": "event"
    },
    {
      "anonymous": false,
      "inputs": [
        {
          "indexed": false,
          "internalType": "address",
          "name": "account",
          "type": "address"
        }
      ],
      "name": "Unpaused",
      "type": "event"
    },
    {
      "anonymous": false,
      "inputs": [
        {
          "indexed": false,
          "internalType": "string",
          "name": "campaignCode",
          "type": "string"
        }
      ],
      "name": "WithdrawalRequested",
      "type": "event"
    },
    {
      "inputs": [],
      "name": "adCampaignCount",
      "outputs": [
        {
          "internalType": "uint256",
          "name": "",
          "type": "uint256"
        }
      ],
      "stateMutability": "view",
      "type": "function"
    },
    {
      "inputs": [
        {
          "internalType": "uint256",
          "name": "",
          "type": "uint256"
        }
      ],
      "name": "adCampaigns",
      "outputs": [
        {
          "internalType": "uint256",
          "name": "budget",
          "type": "uint256"
        },
        {
          "internalType": "uint256",
          "name": "amountSpent",
          "type": "uint256"
        },
        {
          "internalType": "enum AdCampaignManager.CampaignStatus",
          "name": "status",
          "type": "uint8"
        },
        {
          "internalType": "string",
          "name": "campaignCode",
          "type": "string"
        },
        {
          "internalType": "address",
          "name": "advertiser",
          "type": "address"
        }
      ],
      "stateMutability": "view",
      "type": "function"
    },
    {
      "inputs": [
        {
          "internalType": "string",
          "name": "campaignCode",
          "type": "string"
        },
        {
          "internalType": "uint256",
          "name": "currentAmountSpent",
          "type": "uint256"
        }
      ],
      "name": "approveWithdrawal",
      "outputs": [],
      "stateMutability": "nonpayable",
      "type": "function"
    },
    {
      "inputs": [
        {
          "internalType": "string",
          "name": "",
          "type": "string"
        }
      ],
      "name": "campaignCodesToId",
      "outputs": [
        {
          "internalType": "uint256",
          "name": "",
          "type": "uint256"
        }
      ],
      "stateMutability": "view",
      "type": "function"
    },
    {
      "inputs": [
        {
          "internalType": "string",
          "name": "campaignCode",
          "type": "string"
        },
        {
          "internalType": "uint256",
          "name": "currentAmountSpent",
          "type": "uint256"
        }
      ],
      "name": "claimPayment",
      "outputs": [],
      "stateMutability": "nonpayable",
      "type": "function"
    },
    {
      "inputs": [],
      "name": "createAdCampaign",
      "outputs": [],
      "stateMutability": "payable",
      "type": "function"
    },
    {
      "inputs": [
        {
          "internalType": "string",
          "name": "campaignCode",
          "type": "string"
        }
      ],
      "name": "getAdCampaignByCode",
      "outputs": [
        {
          "components": [
            {
              "internalType": "uint256",
              "name": "budget",
              "type": "uint256"
            },
            {
              "internalType": "uint256",
              "name": "amountSpent",
              "type": "uint256"
            },
            {
              "internalType": "enum AdCampaignManager.CampaignStatus",
              "name": "status",
              "type": "uint8"
            },
            {
              "internalType": "string",
              "name": "campaignCode",
              "type": "string"
            },
            {
              "internalType": "address",
              "name": "advertiser",
              "type": "address"
            }
          ],
          "internalType": "struct AdCampaignManager.AdCampaign",
          "name": "",
          "type": "tuple"
        }
      ],
      "stateMutability": "view",
      "type": "function"
    },
    {
      "inputs": [],
      "name": "owner",
      "outputs": [
        {
          "internalType": "address",
          "name": "",
          "type": "address"
        }
      ],
      "stateMutability": "view",
      "type": "function"
    },
    {
      "inputs": [],
      "name": "pause",
      "outputs": [],
      "stateMutability": "nonpayable",
      "type": "function"
    },
    {
      "inputs": [],
      "name": "paused",
      "outputs": [
        {
          "internalType": "bool",
          "name": "",
          "type": "bool"
        }
      ],
      "stateMutability": "view",
      "type": "function"
    },
    {
      "inputs": [],
      "name": "renounceOwnership",
      "outputs": [],
      "stateMutability": "nonpayable",
      "type": "function"
    },
    {
      "inputs": [
        {
          "internalType": "string",
          "name": "campaignCode",
          "type": "string"
        }
      ],
      "name": "requestAndApproveWithdrawal",
      "outputs": [],
      "stateMutability": "nonpayable",
      "type": "function"
    },
    {
      "inputs": [
        {
          "internalType": "string",
          "name": "campaignCode",
          "type": "string"
        }
      ],
      "name": "requestWithdrawal",
      "outputs": [],
      "stateMutability": "nonpayable",
      "type": "function"
    },
    {
      "inputs": [
        {
          "internalType": "address",
          "name": "newOwner",
          "type": "address"
        }
      ],
      "name": "transferOwnership",
      "outputs": [],
      "stateMutability": "nonpayable",
      "type": "function"
    },
    {
      "inputs": [],
      "name": "unpause",
      "outputs": [],
      "stateMutability": "nonpayable",
      "type": "function"
    },
    {
      "stateMutability": "payable",
      "type": "receive"
    }
  ],
  "bytecode": "0x60806040523480156200001157600080fd5b5033600073ffffffffffffffffffffffffffffffffffffffff168173ffffffffffffffffffffffffffffffffffffffff1603620000885760006040517f1e4fbdf70000000000000000000000000000000000000000000000000000000081526004016200007f9190620001ca565b60405180910390fd5b6200009981620000c160201b60201c565b5060008060146101000a81548160ff02191690831515021790555060018081905550620001e7565b60008060009054906101000a900473ffffffffffffffffffffffffffffffffffffffff169050816000806101000a81548173ffffffffffffffffffffffffffffffffffffffff021916908373ffffffffffffffffffffffffffffffffffffffff1602179055508173ffffffffffffffffffffffffffffffffffffffff168173ffffffffffffffffffffffffffffffffffffffff167f8be0079c531659141344cd1fd0a4f28419497f9722a3daafe3b4186f6b6457e060405160405180910390a35050565b600073ffffffffffffffffffffffffffffffffffffffff82169050919050565b6000620001b28262000185565b9050919050565b620001c481620001a5565b82525050565b6000602082019050620001e16000830184620001b9565b92915050565b612b3380620001f76000396000f3fe6080604052600436106100ec5760003560e01c8063715018a61161008a5780638da5cb5b116100595780638da5cb5b1461027e578063a649d04f146102a9578063d0ac4013146102ea578063f2fde38b14610327576100f3565b8063715018a6146101fe57806372a79388146102155780637aab369b1461023e5780638456cb5914610267576100f3565b80633f0c4988116100c65780633f0c4988146101565780633f4ba83a1461017f578063415eaedd146101965780635c975abb146101d3576100f3565b8063088b76d4146100f85780630bedb86d146101215780630da949df1461014c576100f3565b366100f357005b600080fd5b34801561010457600080fd5b5061011f600480360381019061011a9190611ba5565b610350565b005b34801561012d57600080fd5b50610136610550565b6040516101439190611c07565b60405180910390f35b610154610556565b005b34801561016257600080fd5b5061017d60048036038101906101789190611ba5565b610740565b005b34801561018b57600080fd5b50610194610ad0565b005b3480156101a257600080fd5b506101bd60048036038101906101b89190611ba5565b610ae2565b6040516101ca9190611dde565b60405180910390f35b3480156101df57600080fd5b506101e8610cad565b6040516101f59190611e1b565b60405180910390f35b34801561020a57600080fd5b50610213610cc3565b005b34801561022157600080fd5b5061023c60048036038101906102379190611e62565b610cd7565b005b34801561024a57600080fd5b5061026560048036038101906102609190611e62565b610fd7565b005b34801561027357600080fd5b5061027c611297565b005b34801561028a57600080fd5b506102936112a9565b6040516102a09190611ecd565b60405180910390f35b3480156102b557600080fd5b506102d060048036038101906102cb9190611ee8565b6112d2565b6040516102e1959493929190611f6e565b60405180910390f35b3480156102f657600080fd5b50610311600480360381019061030c9190611ba5565b6113bd565b60405161031e9190611c07565b60405180910390f35b34801561033357600080fd5b5061034e60048036038101906103499190611ff4565b6113eb565b005b610358611471565b600060028260405161036a919061205d565b9081526020016040518091039020549050600081116103be576040517f08c379a00000000000000000000000000000000000000000000000000000000081526004016103b5906120c0565b60405180910390fd5b6000600360008381526020019081526020016000209050600060028111156103e9576103e8611c31565b5b8160020160009054906101000a900460ff16600281111561040d5761040c611c31565b5b1461044d576040517f08c379a00000000000000000000000000000000000000000000000000000000081526004016104449061212c565b60405180910390fd5b8060040160009054906101000a900473ffffffffffffffffffffffffffffffffffffffff1673ffffffffffffffffffffffffffffffffffffffff163373ffffffffffffffffffffffffffffffffffffffff16146104df576040517f08c379a00000000000000000000000000000000000000000000000000000000081526004016104d6906121be565b60405180910390fd5b60018160020160006101000a81548160ff0219169083600281111561050757610506611c31565b5b02179055507ff7160323284ae4aa0d98de6ca199de6f8af66ee3742f4fee6ddaa64c51266c888360405161053b91906121de565b60405180910390a1505061054d6114b7565b50565b60045481565b61055e6114c0565b610566611471565b600034116105a9576040517f08c379a00000000000000000000000000000000000000000000000000000000081526004016105a090612272565b60405180910390fd5b600460008154809291906105bc906122c1565b919050555060006105cb611501565b90506040518060a0016040528034815260200160008152602001600060028111156105f9576105f8611c31565b5b81526020018281526020013373ffffffffffffffffffffffffffffffffffffffff16815250600360006004548152602001908152602001600020600082015181600001556020820151816001015560408201518160020160006101000a81548160ff0219169083600281111561067257610671611c31565b5b0217905550606082015181600301908161068c9190612515565b5060808201518160040160006101000a81548173ffffffffffffffffffffffffffffffffffffffff021916908373ffffffffffffffffffffffffffffffffffffffff1602179055509050506004546002826040516106ea919061205d565b9081526020016040518091039020819055507fc79154d0a4bae450367237b7422a1e23347c6fcafb5c10d57932694982687b73813460405161072d9291906125e7565b60405180910390a15061073e6114b7565b565b610748611471565b600060028260405161075a919061205d565b9081526020016040518091039020549050600081116107ae576040517f08c379a00000000000000000000000000000000000000000000000000000000081526004016107a5906120c0565b60405180910390fd5b6000600360008381526020019081526020016000209050600060028111156107d9576107d8611c31565b5b8160020160009054906101000a900460ff1660028111156107fd576107fc611c31565b5b1461083d576040517f08c379a00000000000000000000000000000000000000000000000000000000081526004016108349061212c565b60405180910390fd5b8060040160009054906101000a900473ffffffffffffffffffffffffffffffffffffffff1673ffffffffffffffffffffffffffffffffffffffff163373ffffffffffffffffffffffffffffffffffffffff1614806108cd575061089e6112a9565b73ffffffffffffffffffffffffffffffffffffffff163373ffffffffffffffffffffffffffffffffffffffff16145b61090c576040517f08c379a000000000000000000000000000000000000000000000000000000000815260040161090390612689565b60405180910390fd5b60008160010154826000015461092291906126a9565b905060028260020160006101000a81548160ff0219169083600281111561094c5761094b611c31565b5b021790555060008111156109c6578160040160009054906101000a900473ffffffffffffffffffffffffffffffffffffffff1673ffffffffffffffffffffffffffffffffffffffff166108fc829081150290604051600060405180830381858888f193505050501580156109c4573d6000803e3d6000fd5b505b600082600101541115610a26576109db6112a9565b73ffffffffffffffffffffffffffffffffffffffff166108fc83600101549081150290604051600060405180830381858888f19350505050158015610a24573d6000803e3d6000fd5b505b7fba9059f3850aee53fbd909cc5b38d859e4a645f2ad3da7093ab74c7b88f24bf2848360040160009054906101000a900473ffffffffffffffffffffffffffffffffffffffff1683604051610a7d939291906126dd565b60405180910390a17fd94c2a1bdebb5c53e4d8c915ab66e4ac6cb53eb59bb0c69f423bb4f6f6084de3848360010154604051610aba9291906125e7565b60405180910390a1505050610acd6114b7565b50565b610ad861157b565b610ae0611602565b565b610aea6119f4565b6000600283604051610afc919061205d565b908152602001604051809103902054905060008111610b50576040517f08c379a0000000000000000000000000000000000000000000000000000000008152600401610b47906120c0565b60405180910390fd5b600360008281526020019081526020016000206040518060a001604052908160008201548152602001600182015481526020016002820160009054906101000a900460ff166002811115610ba757610ba6611c31565b5b6002811115610bb957610bb8611c31565b5b8152602001600382018054610bcd90612338565b80601f0160208091040260200160405190810160405280929190818152602001828054610bf990612338565b8015610c465780601f10610c1b57610100808354040283529160200191610c46565b820191906000526020600020905b815481529060010190602001808311610c2957829003601f168201915b505050505081526020016004820160009054906101000a900473ffffffffffffffffffffffffffffffffffffffff1673ffffffffffffffffffffffffffffffffffffffff1673ffffffffffffffffffffffffffffffffffffffff1681525050915050919050565b60008060149054906101000a900460ff16905090565b610ccb61157b565b610cd56000611664565b565b610cdf61157b565b610ce7611471565b6000600283604051610cf9919061205d565b908152602001604051809103902054905060008111610d4d576040517f08c379a0000000000000000000000000000000000000000000000000000000008152600401610d44906120c0565b60405180910390fd5b600060036000838152602001908152602001600020905060016002811115610d7857610d77611c31565b5b8160020160009054906101000a900460ff166002811115610d9c57610d9b611c31565b5b14610ddc576040517f08c379a0000000000000000000000000000000000000000000000000000000008152600401610dd390612767565b60405180910390fd5b8060000154831115610e23576040517f08c379a0000000000000000000000000000000000000000000000000000000008152600401610e1a906127d3565b60405180910390fd5b8281600101819055506000838260000154610e3e91906126a9565b905060028260020160006101000a81548160ff02191690836002811115610e6857610e67611c31565b5b02179055506000811115610ee2578160040160009054906101000a900473ffffffffffffffffffffffffffffffffffffffff1673ffffffffffffffffffffffffffffffffffffffff166108fc829081150290604051600060405180830381858888f19350505050158015610ee0573d6000803e3d6000fd5b505b610eea6112a9565b73ffffffffffffffffffffffffffffffffffffffff166108fc859081150290604051600060405180830381858888f19350505050158015610f2f573d6000803e3d6000fd5b507fba9059f3850aee53fbd909cc5b38d859e4a645f2ad3da7093ab74c7b88f24bf2858360040160009054906101000a900473ffffffffffffffffffffffffffffffffffffffff1683604051610f87939291906126dd565b60405180910390a17fd94c2a1bdebb5c53e4d8c915ab66e4ac6cb53eb59bb0c69f423bb4f6f6084de38585604051610fc09291906125e7565b60405180910390a1505050610fd36114b7565b5050565b610fdf61157b565b610fe76114c0565b610fef611471565b6000600283604051611001919061205d565b908152602001604051809103902054905060008111611055576040517f08c379a000000000000000000000000000000000000000000000000000000000815260040161104c906120c0565b60405180910390fd5b6000600360008381526020019081526020016000209050600060028111156110805761107f611c31565b5b8160020160009054906101000a900460ff1660028111156110a4576110a3611c31565b5b146110e4576040517f08c379a00000000000000000000000000000000000000000000000000000000081526004016110db9061212c565b60405180910390fd5b60008160010154846110f691906126a9565b90506000811161113b576040517f08c379a000000000000000000000000000000000000000000000000000000000815260040161113290612865565b60405180910390fd5b60008260010154836000015461115191906126a9565b90506000828211156111635782611165565b815b9050804710156111aa576040517f08c379a00000000000000000000000000000000000000000000000000000000081526004016111a1906128d1565b60405180910390fd5b8084600101546111ba91906128f1565b846001018190555083600001548460010154106111ff5760028460020160006101000a81548160ff021916908360028111156111f9576111f8611c31565b5b02179055505b6112076112a9565b73ffffffffffffffffffffffffffffffffffffffff166108fc829081150290604051600060405180830381858888f1935050505015801561124c573d6000803e3d6000fd5b507f4a1f19202167cbf263d5e4ac0deb8eb1d58700a6e621b10a650d456ed5a5ad53878260405161127e9291906125e7565b60405180910390a150505050506112936114b7565b5050565b61129f61157b565b6112a7611728565b565b60008060009054906101000a900473ffffffffffffffffffffffffffffffffffffffff16905090565b60036020528060005260406000206000915090508060000154908060010154908060020160009054906101000a900460ff169080600301805461131490612338565b80601f016020809104026020016040519081016040528092919081815260200182805461134090612338565b801561138d5780601f106113625761010080835404028352916020019161138d565b820191906000526020600020905b81548152906001019060200180831161137057829003601f168201915b5050505050908060040160009054906101000a900473ffffffffffffffffffffffffffffffffffffffff16905085565b6002818051602081018201805184825260208301602085012081835280955050505050506000915090505481565b6113f361157b565b600073ffffffffffffffffffffffffffffffffffffffff168173ffffffffffffffffffffffffffffffffffffffff16036114655760006040517f1e4fbdf700000000000000000000000000000000000000000000000000000000815260040161145c9190611ecd565b60405180910390fd5b61146e81611664565b50565b6002600154036114ad576040517f3ee5aeb500000000000000000000000000000000000000000000000000000000815260040160405180910390fd5b6002600181905550565b60018081905550565b6114c8610cad565b156114ff576040517fd93c066500000000000000000000000000000000000000000000000000000000815260040160405180910390fd5b565b60606000620f424042443360405160200161151e9392919061298e565b6040516020818303038152906040528051906020012060001c61154191906129fa565b905061154c4261178b565b6115558261178b565b604051602001611566929190612ac3565b60405160208183030381529060405291505090565b611583611859565b73ffffffffffffffffffffffffffffffffffffffff166115a16112a9565b73ffffffffffffffffffffffffffffffffffffffff1614611600576115c4611859565b6040517f118cdaa70000000000000000000000000000000000000000000000000000000081526004016115f79190611ecd565b60405180910390fd5b565b61160a611861565b60008060146101000a81548160ff0219169083151502179055507f5db9ee0a495bf2e6ff9c91a7834c1ba4fdd244a5e8aa4e537bd38aeae4b073aa61164d611859565b60405161165a9190611ecd565b60405180910390a1565b60008060009054906101000a900473ffffffffffffffffffffffffffffffffffffffff169050816000806101000a81548173ffffffffffffffffffffffffffffffffffffffff021916908373ffffffffffffffffffffffffffffffffffffffff1602179055508173ffffffffffffffffffffffffffffffffffffffff168173ffffffffffffffffffffffffffffffffffffffff167f8be0079c531659141344cd1fd0a4f28419497f9722a3daafe3b4186f6b6457e060405160405180910390a35050565b6117306114c0565b6001600060146101000a81548160ff0219169083151502179055507f62e78cea01bee320cd4e420270b5ea74000d11b0c9f74754ebdbfc544b05a258611774611859565b6040516117819190611ecd565b60405180910390a1565b60606000600161179a846118a1565b01905060008167ffffffffffffffff8111156117b9576117b8611a7a565b5b6040519080825280601f01601f1916602001820160405280156117eb5781602001600182028036833780820191505090505b509050600082602001820190505b60011561184e578080600190039150507f3031323334353637383961626364656600000000000000000000000000000000600a86061a8153600a8581611842576118416129cb565b5b049450600085036117f9575b819350505050919050565b600033905090565b611869610cad565b61189f576040517f8dfc202b00000000000000000000000000000000000000000000000000000000815260040160405180910390fd5b565b600080600090507a184f03e93ff9f4daa797ed6e38ed64bf6a1f01000000000000000083106118ff577a184f03e93ff9f4daa797ed6e38ed64bf6a1f01000000000000000083816118f5576118f46129cb565b5b0492506040810190505b6d04ee2d6d415b85acef8100000000831061193c576d04ee2d6d415b85acef81000000008381611932576119316129cb565b5b0492506020810190505b662386f26fc10000831061196b57662386f26fc100008381611961576119606129cb565b5b0492506010810190505b6305f5e1008310611994576305f5e100838161198a576119896129cb565b5b0492506008810190505b61271083106119b95761271083816119af576119ae6129cb565b5b0492506004810190505b606483106119dc57606483816119d2576119d16129cb565b5b0492506002810190505b600a83106119eb576001810190505b80915050919050565b6040518060a00160405280600081526020016000815260200160006002811115611a2157611a20611c31565b5b815260200160608152602001600073ffffffffffffffffffffffffffffffffffffffff1681525090565b6000604051905090565b600080fd5b600080fd5b600080fd5b600080fd5b6000601f19601f8301169050919050565b7f4e487b7100000000000000000000000000000000000000000000000000000000600052604160045260246000fd5b611ab282611a69565b810181811067ffffffffffffffff82111715611ad157611ad0611a7a565b5b80604052505050565b6000611ae4611a4b565b9050611af08282611aa9565b919050565b600067ffffffffffffffff821115611b1057611b0f611a7a565b5b611b1982611a69565b9050602081019050919050565b82818337600083830152505050565b6000611b48611b4384611af5565b611ada565b905082815260208101848484011115611b6457611b63611a64565b5b611b6f848285611b26565b509392505050565b600082601f830112611b8c57611b8b611a5f565b5b8135611b9c848260208601611b35565b91505092915050565b600060208284031215611bbb57611bba611a55565b5b600082013567ffffffffffffffff811115611bd957611bd8611a5a565b5b611be584828501611b77565b91505092915050565b6000819050919050565b611c0181611bee565b82525050565b6000602082019050611c1c6000830184611bf8565b92915050565b611c2b81611bee565b82525050565b7f4e487b7100000000000000000000000000000000000000000000000000000000600052602160045260246000fd5b60038110611c7157611c70611c31565b5b50565b6000819050611c8282611c60565b919050565b6000611c9282611c74565b9050919050565b611ca281611c87565b82525050565b600081519050919050565b600082825260208201905092915050565b60005b83811015611ce2578082015181840152602081019050611cc7565b60008484015250505050565b6000611cf982611ca8565b611d038185611cb3565b9350611d13818560208601611cc4565b611d1c81611a69565b840191505092915050565b600073ffffffffffffffffffffffffffffffffffffffff82169050919050565b6000611d5282611d27565b9050919050565b611d6281611d47565b82525050565b600060a083016000830151611d806000860182611c22565b506020830151611d936020860182611c22565b506040830151611da66040860182611c99565b5060608301518482036060860152611dbe8282611cee565b9150506080830151611dd36080860182611d59565b508091505092915050565b60006020820190508181036000830152611df88184611d68565b905092915050565b60008115159050919050565b611e1581611e00565b82525050565b6000602082019050611e306000830184611e0c565b92915050565b611e3f81611bee565b8114611e4a57600080fd5b50565b600081359050611e5c81611e36565b92915050565b60008060408385031215611e7957611e78611a55565b5b600083013567ffffffffffffffff811115611e9757611e96611a5a565b5b611ea385828601611b77565b9250506020611eb485828601611e4d565b9150509250929050565b611ec781611d47565b82525050565b6000602082019050611ee26000830184611ebe565b92915050565b600060208284031215611efe57611efd611a55565b5b6000611f0c84828501611e4d565b91505092915050565b611f1e81611c87565b82525050565b600082825260208201905092915050565b6000611f4082611ca8565b611f4a8185611f24565b9350611f5a818560208601611cc4565b611f6381611a69565b840191505092915050565b600060a082019050611f836000830188611bf8565b611f906020830187611bf8565b611f9d6040830186611f15565b8181036060830152611faf8185611f35565b9050611fbe6080830184611ebe565b9695505050505050565b611fd181611d47565b8114611fdc57600080fd5b50565b600081359050611fee81611fc8565b92915050565b60006020828403121561200a57612009611a55565b5b600061201884828501611fdf565b91505092915050565b600081905092915050565b600061203782611ca8565b6120418185612021565b9350612051818560208601611cc4565b80840191505092915050565b6000612069828461202c565b915081905092915050565b7f496e76616c69642063616d706169676e20636f64650000000000000000000000600082015250565b60006120aa601583611f24565b91506120b582612074565b602082019050919050565b600060208201905081810360008301526120d98161209d565b9050919050565b7f43616d706169676e206973206e6f742061637469766500000000000000000000600082015250565b6000612116601683611f24565b9150612121826120e0565b602082019050919050565b6000602082019050818103600083015261214581612109565b9050919050565b7f4f6e6c792074686520616476657274697365722063616e20726571756573742060008201527f7769746864726177616c00000000000000000000000000000000000000000000602082015250565b60006121a8602a83611f24565b91506121b38261214c565b604082019050919050565b600060208201905081810360008301526121d78161219b565b9050919050565b600060208201905081810360008301526121f88184611f35565b905092915050565b7f746865206275646765742073686f756c6420626520677265617465722074686160008201527f6e207a65726f0000000000000000000000000000000000000000000000000000602082015250565b600061225c602683611f24565b915061226782612200565b604082019050919050565b6000602082019050818103600083015261228b8161224f565b9050919050565b7f4e487b7100000000000000000000000000000000000000000000000000000000600052601160045260246000fd5b60006122cc82611bee565b91507fffffffffffffffffffffffffffffffffffffffffffffffffffffffffffffffff82036122fe576122fd612292565b5b600182019050919050565b7f4e487b7100000000000000000000000000000000000000000000000000000000600052602260045260246000fd5b6000600282049050600182168061235057607f821691505b60208210810361236357612362612309565b5b50919050565b60008190508160005260206000209050919050565b60006020601f8301049050919050565b600082821b905092915050565b6000600883026123cb7fffffffffffffffffffffffffffffffffffffffffffffffffffffffffffffffff8261238e565b6123d5868361238e565b95508019841693508086168417925050509392505050565b6000819050919050565b600061241261240d61240884611bee565b6123ed565b611bee565b9050919050565b6000819050919050565b61242c836123f7565b61244061243882612419565b84845461239b565b825550505050565b600090565b612455612448565b612460818484612423565b505050565b5b818110156124845761247960008261244d565b600181019050612466565b5050565b601f8211156124c95761249a81612369565b6124a38461237e565b810160208510156124b2578190505b6124c66124be8561237e565b830182612465565b50505b505050565b600082821c905092915050565b60006124ec600019846008026124ce565b1980831691505092915050565b600061250583836124db565b9150826002028217905092915050565b61251e82611ca8565b67ffffffffffffffff81111561253757612536611a7a565b5b6125418254612338565b61254c828285612488565b600060209050601f83116001811461257f576000841561256d578287015190505b61257785826124f9565b8655506125df565b601f19841661258d86612369565b60005b828110156125b557848901518255600182019150602085019450602081019050612590565b868310156125d257848901516125ce601f8916826124db565b8355505b6001600288020188555050505b505050505050565b600060408201905081810360008301526126018185611f35565b90506126106020830184611bf8565b9392505050565b7f4f6e6c79207468652061647665727469736572206f72206f776e65722063616e60008201527f2072657175657374207769746864726177616c00000000000000000000000000602082015250565b6000612673603383611f24565b915061267e82612617565b604082019050919050565b600060208201905081810360008301526126a281612666565b9050919050565b60006126b482611bee565b91506126bf83611bee565b92508282039050818111156126d7576126d6612292565b5b92915050565b600060608201905081810360008301526126f78186611f35565b90506127066020830185611ebe565b6127136040830184611bf8565b949350505050565b7f5769746864726177616c206e6f74207265717565737465640000000000000000600082015250565b6000612751601883611f24565b915061275c8261271b565b602082019050919050565b6000602082019050818103600083015261278081612744565b9050919050565b7f4275646765742065786365656465640000000000000000000000000000000000600082015250565b60006127bd600f83611f24565b91506127c882612787565b602082019050919050565b600060208201905081810360008301526127ec816127b0565b9050919050565b7f205468652063757272656e7420616d6f756e7420636c61696d65642073686f7560008201527f6c642062652067726561746572207468616e207a65726f000000000000000000602082015250565b600061284f603783611f24565b915061285a826127f3565b604082019050919050565b6000602082019050818103600083015261287e81612842565b9050919050565b7f496e73756666696369656e7420636f6e74726163742062616c616e6365000000600082015250565b60006128bb601d83611f24565b91506128c682612885565b602082019050919050565b600060208201905081810360008301526128ea816128ae565b9050919050565b60006128fc82611bee565b915061290783611bee565b925082820190508082111561291f5761291e612292565b5b92915050565b6000819050919050565b61294061293b82611bee565b612925565b82525050565b60008160601b9050919050565b600061295e82612946565b9050919050565b600061297082612953565b9050919050565b61298861298382611d47565b612965565b82525050565b600061299a828661292f565b6020820191506129aa828561292f565b6020820191506129ba8284612977565b601482019150819050949350505050565b7f4e487b7100000000000000000000000000000000000000000000000000000000600052601260045260246000fd5b6000612a0582611bee565b9150612a1083611bee565b925082612a2057612a1f6129cb565b5b828206905092915050565b7f43414d504149474e2d0000000000000000000000000000000000000000000000600082015250565b6000612a61600983612021565b9150612a6c82612a2b565b600982019050919050565b7f2d00000000000000000000000000000000000000000000000000000000000000600082015250565b6000612aad600183612021565b9150612ab882612a77565b600182019050919050565b6000612ace82612a54565b9150612ada828561202c565b9150612ae582612aa0565b9150612af1828461202c565b9150819050939250505056fea2646970667358221220b6855b9b25c4e0e23b3edf98d9bfca901b546c4a8e5ab1c45ae4eb9cc1d6a55a64736f6c63430008180033",
  "linkReferences": {},
  "deployedLinkReferences": {}
}