{
  "_format": "hh-sol-artifact-1",
  "contractName": "AdCampaignManager",
  "sourceName": "contracts/AdCampaignManager.sol",
  "abi": [
    {
      "inputs": [],
      "stateMutability": "nonpayable",
      "type": "constructor"
    },
    {
      "inputs": [],
      "name": "EnforcedPause",
      "type": "error"
    },
    {
      "inputs": [],
      "name": "ExpectedPause",
      "type": "error"
    },
    {
      "inputs": [
        {
          "internalType": "address",
          "name": "owner",
          "type": "address"
        }
      ],
      "name": "OwnableInvalidOwner",
      "type": "error"
    },
    {
      "inputs": [
        {
          "internalType": "address",
          "name": "account",
          "type": "address"
        }
      ],
      "name": "OwnableUnauthorizedAccount",
      "type": "error"
    },
    {
      "inputs": [],
      "name": "ReentrancyGuardReentrantCall",
      "type": "error"
    },
    {
      "anonymous": false,
      "inputs": [
        {
          "indexed": false,
          "internalType": "string",
          "name": "campaignCode",
          "type": "string"
        },
        {
          "indexed": false,
          "internalType": "uint256",
          "name": "budget",
          "type": "uint256"
        }
      ],
      "name": "AdCampaignCreated",
      "type": "event"
    },
    {
      "anonymous": false,
      "inputs": [
        {
          "indexed": false,
          "internalType": "string",
          "name": "campaignCode",
          "type": "string"
        },
        {
          "indexed": false,
          "internalType": "address",
          "name": "advertiser",
          "type": "address"
        },
        {
          "indexed": false,
          "internalType": "uint256",
          "name": "amount",
          "type": "uint256"
        }
      ],
      "name": "BudgetWithdrawn",
      "type": "event"
    },
    {
      "anonymous": false,
      "inputs": [
        {
          "indexed": true,
          "internalType": "address",
          "name": "previousOwner",
          "type": "address"
        },
        {
          "indexed": true,
          "internalType": "address",
          "name": "newOwner",
          "type": "address"
        }
      ],
      "name": "OwnershipTransferred",
      "type": "event"
    },
    {
      "anonymous": false,
      "inputs": [
        {
          "indexed": false,
          "internalType": "address",
          "name": "account",
          "type": "address"
        }
      ],
      "name": "Paused",
      "type": "event"
    },
    {
      "anonymous": false,
      "inputs": [
        {
          "indexed": false,
          "internalType": "string",
          "name": "campaignCode",
          "type": "string"
        },
        {
          "indexed": false,
          "internalType": "uint256",
          "name": "paymentAmount",
          "type": "uint256"
        }
      ],
      "name": "PaymentReleased",
      "type": "event"
    },
    {
      "anonymous": false,
      "inputs": [
        {
          "indexed": false,
          "internalType": "string",
          "name": "campaignCode",
          "type": "string"
        },
        {
          "indexed": false,
          "internalType": "uint256",
          "name": "paymentAmount",
          "type": "uint256"
        }
      ],
      "name": "PaymentReleasedOnWithdrawApproval",
      "type": "event"
    },
    {
      "anonymous": false,
      "inputs": [
        {
          "indexed": false,
          "internalType": "address",
          "name": "account",
          "type": "address"
        }
      ],
      "name": "Unpaused",
      "type": "event"
    },
    {
      "inputs": [],
      "name": "adCampaignCount",
      "outputs": [
        {
          "internalType": "uint256",
          "name": "",
          "type": "uint256"
        }
      ],
      "stateMutability": "view",
      "type": "function"
    },
    {
      "inputs": [
        {
          "internalType": "uint256",
          "name": "",
          "type": "uint256"
        }
      ],
      "name": "adCampaigns",
      "outputs": [
        {
          "internalType": "uint256",
          "name": "budget",
          "type": "uint256"
        },
        {
          "internalType": "uint256",
          "name": "amountSpent",
          "type": "uint256"
        },
        {
          "internalType": "enum AdCampaignManager.CampaignStatus",
          "name": "status",
          "type": "uint8"
        },
        {
          "internalType": "string",
          "name": "campaignCode",
          "type": "string"
        },
        {
          "internalType": "address",
          "name": "advertiser",
          "type": "address"
        }
      ],
      "stateMutability": "view",
      "type": "function"
    },
    {
      "inputs": [
        {
          "internalType": "string",
          "name": "",
          "type": "string"
        }
      ],
      "name": "campaignCodesToId",
      "outputs": [
        {
          "internalType": "uint256",
          "name": "",
          "type": "uint256"
        }
      ],
      "stateMutability": "view",
      "type": "function"
    },
    {
      "inputs": [
        {
          "internalType": "string",
          "name": "campaignCode",
          "type": "string"
        },
        {
          "internalType": "uint256",
          "name": "currentAmountSpent",
          "type": "uint256"
        }
      ],
      "name": "claimPayment",
      "outputs": [],
      "stateMutability": "nonpayable",
      "type": "function"
    },
    {
      "inputs": [],
      "name": "createAdCampaign",
      "outputs": [],
      "stateMutability": "payable",
      "type": "function"
    },
    {
      "inputs": [
        {
          "internalType": "string",
          "name": "campaignCode",
          "type": "string"
        }
      ],
      "name": "getAdCampaignByCode",
      "outputs": [
        {
          "components": [
            {
              "internalType": "uint256",
              "name": "budget",
              "type": "uint256"
            },
            {
              "internalType": "uint256",
              "name": "amountSpent",
              "type": "uint256"
            },
            {
              "internalType": "enum AdCampaignManager.CampaignStatus",
              "name": "status",
              "type": "uint8"
            },
            {
              "internalType": "string",
              "name": "campaignCode",
              "type": "string"
            },
            {
              "internalType": "address",
              "name": "advertiser",
              "type": "address"
            }
          ],
          "internalType": "struct AdCampaignManager.AdCampaign",
          "name": "",
          "type": "tuple"
        }
      ],
      "stateMutability": "view",
      "type": "function"
    },
    {
      "inputs": [],
      "name": "owner",
      "outputs": [
        {
          "internalType": "address",
          "name": "",
          "type": "address"
        }
      ],
      "stateMutability": "view",
      "type": "function"
    },
    {
      "inputs": [],
      "name": "pause",
      "outputs": [],
      "stateMutability": "nonpayable",
      "type": "function"
    },
    {
      "inputs": [],
      "name": "paused",
      "outputs": [
        {
          "internalType": "bool",
          "name": "",
          "type": "bool"
        }
      ],
      "stateMutability": "view",
      "type": "function"
    },
    {
      "inputs": [],
      "name": "renounceOwnership",
      "outputs": [],
      "stateMutability": "nonpayable",
      "type": "function"
    },
    {
      "inputs": [
        {
          "internalType": "string",
          "name": "campaignCode",
          "type": "string"
        },
        {
          "internalType": "uint256",
          "name": "currentAmountSpent",
          "type": "uint256"
        }
      ],
      "name": "requestAndApproveWithdrawal",
      "outputs": [],
      "stateMutability": "nonpayable",
      "type": "function"
    },
    {
      "inputs": [
        {
          "internalType": "address",
          "name": "newOwner",
          "type": "address"
        }
      ],
      "name": "transferOwnership",
      "outputs": [],
      "stateMutability": "nonpayable",
      "type": "function"
    },
    {
      "inputs": [],
      "name": "unpause",
      "outputs": [],
      "stateMutability": "nonpayable",
      "type": "function"
    },
    {
      "stateMutability": "payable",
      "type": "receive"
    }
  ],
  "bytecode": "0x60806040523480156200001157600080fd5b5033600073ffffffffffffffffffffffffffffffffffffffff168173ffffffffffffffffffffffffffffffffffffffff1603620000885760006040517f1e4fbdf70000000000000000000000000000000000000000000000000000000081526004016200007f9190620001ca565b60405180910390fd5b6200009981620000c160201b60201c565b5060008060146101000a81548160ff02191690831515021790555060018081905550620001e7565b60008060009054906101000a900473ffffffffffffffffffffffffffffffffffffffff169050816000806101000a81548173ffffffffffffffffffffffffffffffffffffffff021916908373ffffffffffffffffffffffffffffffffffffffff1602179055508173ffffffffffffffffffffffffffffffffffffffff168173ffffffffffffffffffffffffffffffffffffffff167f8be0079c531659141344cd1fd0a4f28419497f9722a3daafe3b4186f6b6457e060405160405180910390a35050565b600073ffffffffffffffffffffffffffffffffffffffff82169050919050565b6000620001b28262000185565b9050919050565b620001c481620001a5565b82525050565b6000602082019050620001e16000830184620001b9565b92915050565b61253480620001f76000396000f3fe6080604052600436106100c65760003560e01c80637aab369b1161007f578063a649d04f11610059578063a649d04f14610208578063cbef613214610249578063d0ac401314610272578063f2fde38b146102af576100cd565b80637aab369b1461019d5780638456cb59146101c65780638da5cb5b146101dd576100cd565b80630bedb86d146100d25780630da949df146100fd5780633f4ba83a14610107578063415eaedd1461011e5780635c975abb1461015b578063715018a614610186576100cd565b366100cd57005b600080fd5b3480156100de57600080fd5b506100e76102d8565b6040516100f49190611539565b60405180910390f35b6101056102de565b005b34801561011357600080fd5b5061011c6104c8565b005b34801561012a57600080fd5b50610145600480360381019061014091906116ae565b6104da565b60405161015291906118b3565b60405180910390f35b34801561016757600080fd5b506101706106a5565b60405161017d91906118f0565b60405180910390f35b34801561019257600080fd5b5061019b6106bb565b005b3480156101a957600080fd5b506101c460048036038101906101bf9190611937565b6106cf565b005b3480156101d257600080fd5b506101db61098f565b005b3480156101e957600080fd5b506101f26109a1565b6040516101ff91906119a2565b60405180910390f35b34801561021457600080fd5b5061022f600480360381019061022a91906119bd565b6109ca565b604051610240959493929190611a43565b60405180910390f35b34801561025557600080fd5b50610270600480360381019061026b9190611937565b610ab5565b005b34801561027e57600080fd5b50610299600480360381019061029491906116ae565b610e92565b6040516102a69190611539565b60405180910390f35b3480156102bb57600080fd5b506102d660048036038101906102d19190611ac9565b610ec0565b005b60045481565b6102e6610f46565b6102ee610f87565b60003411610331576040517f08c379a000000000000000000000000000000000000000000000000000000000815260040161032890611b68565b60405180910390fd5b6004600081548092919061034490611bb7565b91905055506000610353610fcd565b90506040518060a00160405280348152602001600081526020016000600181111561038157610380611706565b5b81526020018281526020013373ffffffffffffffffffffffffffffffffffffffff16815250600360006004548152602001908152602001600020600082015181600001556020820151816001015560408201518160020160006101000a81548160ff021916908360018111156103fa576103f9611706565b5b021790555060608201518160030190816104149190611e0b565b5060808201518160040160006101000a81548173ffffffffffffffffffffffffffffffffffffffff021916908373ffffffffffffffffffffffffffffffffffffffff1602179055509050506004546002826040516104729190611f19565b9081526020016040518091039020819055507fc79154d0a4bae450367237b7422a1e23347c6fcafb5c10d57932694982687b7381346040516104b5929190611f30565b60405180910390a1506104c6611047565b565b6104d0611050565b6104d86110d7565b565b6104e26114c9565b60006002836040516104f49190611f19565b908152602001604051809103902054905060008111610548576040517f08c379a000000000000000000000000000000000000000000000000000000000815260040161053f90611fac565b60405180910390fd5b600360008281526020019081526020016000206040518060a001604052908160008201548152602001600182015481526020016002820160009054906101000a900460ff16600181111561059f5761059e611706565b5b60018111156105b1576105b0611706565b5b81526020016003820180546105c590611c2e565b80601f01602080910402602001604051908101604052809291908181526020018280546105f190611c2e565b801561063e5780601f106106135761010080835404028352916020019161063e565b820191906000526020600020905b81548152906001019060200180831161062157829003601f168201915b505050505081526020016004820160009054906101000a900473ffffffffffffffffffffffffffffffffffffffff1673ffffffffffffffffffffffffffffffffffffffff1673ffffffffffffffffffffffffffffffffffffffff1681525050915050919050565b60008060149054906101000a900460ff16905090565b6106c3611050565b6106cd6000611139565b565b6106d7611050565b6106df610f46565b6106e7610f87565b60006002836040516106f99190611f19565b90815260200160405180910390205490506000811161074d576040517f08c379a000000000000000000000000000000000000000000000000000000000815260040161074490611fac565b60405180910390fd5b60006003600083815260200190815260200160002090506000600181111561077857610777611706565b5b8160020160009054906101000a900460ff16600181111561079c5761079b611706565b5b146107dc576040517f08c379a00000000000000000000000000000000000000000000000000000000081526004016107d390612018565b60405180910390fd5b60008160010154846107ee9190612038565b905060008111610833576040517f08c379a000000000000000000000000000000000000000000000000000000000815260040161082a906120de565b60405180910390fd5b6000826001015483600001546108499190612038565b905060008282111561085b578261085d565b815b9050804710156108a2576040517f08c379a00000000000000000000000000000000000000000000000000000000081526004016108999061214a565b60405180910390fd5b8084600101546108b2919061216a565b846001018190555083600001548460010154106108f75760018460020160006101000a81548160ff021916908360018111156108f1576108f0611706565b5b02179055505b6108ff6109a1565b73ffffffffffffffffffffffffffffffffffffffff166108fc829081150290604051600060405180830381858888f19350505050158015610944573d6000803e3d6000fd5b507f4a1f19202167cbf263d5e4ac0deb8eb1d58700a6e621b10a650d456ed5a5ad538782604051610976929190611f30565b60405180910390a1505050505061098b611047565b5050565b610997611050565b61099f6111fd565b565b60008060009054906101000a900473ffffffffffffffffffffffffffffffffffffffff16905090565b60036020528060005260406000206000915090508060000154908060010154908060020160009054906101000a900460ff1690806003018054610a0c90611c2e565b80601f0160208091040260200160405190810160405280929190818152602001828054610a3890611c2e565b8015610a855780601f10610a5a57610100808354040283529160200191610a85565b820191906000526020600020905b815481529060010190602001808311610a6857829003601f168201915b5050505050908060040160009054906101000a900473ffffffffffffffffffffffffffffffffffffffff16905085565b610abd610f87565b6000600283604051610acf9190611f19565b908152602001604051809103902054905060008111610b23576040517f08c379a0000000000000000000000000000000000000000000000000000000008152600401610b1a90611fac565b60405180910390fd5b600060036000838152602001908152602001600020905060006001811115610b4e57610b4d611706565b5b8160020160009054906101000a900460ff166001811115610b7257610b71611706565b5b14610bb2576040517f08c379a0000000000000000000000000000000000000000000000000000000008152600401610ba990612018565b60405180910390fd5b8060040160009054906101000a900473ffffffffffffffffffffffffffffffffffffffff1673ffffffffffffffffffffffffffffffffffffffff163373ffffffffffffffffffffffffffffffffffffffff161480610c425750610c136109a1565b73ffffffffffffffffffffffffffffffffffffffff163373ffffffffffffffffffffffffffffffffffffffff16145b610c81576040517f08c379a0000000000000000000000000000000000000000000000000000000008152600401610c7890612210565b60405180910390fd5b8281600101541115610cc8576040517f08c379a0000000000000000000000000000000000000000000000000000000008152600401610cbf906122c8565b60405180910390fd5b6000838260000154610cda9190612038565b905060018260020160006101000a81548160ff02191690836001811115610d0457610d03611706565b5b02179055506000811115610d7e578160040160009054906101000a900473ffffffffffffffffffffffffffffffffffffffff1673ffffffffffffffffffffffffffffffffffffffff166108fc829081150290604051600060405180830381858888f19350505050158015610d7c573d6000803e3d6000fd5b505b6000826001015485610d909190612038565b90506000811115610dea57610da36109a1565b73ffffffffffffffffffffffffffffffffffffffff166108fc829081150290604051600060405180830381858888f19350505050158015610de8573d6000803e3d6000fd5b505b7fba9059f3850aee53fbd909cc5b38d859e4a645f2ad3da7093ab74c7b88f24bf2868460040160009054906101000a900473ffffffffffffffffffffffffffffffffffffffff1684604051610e41939291906122e8565b60405180910390a17fd94c2a1bdebb5c53e4d8c915ab66e4ac6cb53eb59bb0c69f423bb4f6f6084de38682604051610e7a929190611f30565b60405180910390a150505050610e8e611047565b5050565b6002818051602081018201805184825260208301602085012081835280955050505050506000915090505481565b610ec8611050565b600073ffffffffffffffffffffffffffffffffffffffff168173ffffffffffffffffffffffffffffffffffffffff1603610f3a5760006040517f1e4fbdf7000000000000000000000000000000000000000000000000000000008152600401610f3191906119a2565b60405180910390fd5b610f4381611139565b50565b610f4e6106a5565b15610f85576040517fd93c066500000000000000000000000000000000000000000000000000000000815260040160405180910390fd5b565b600260015403610fc3576040517f3ee5aeb500000000000000000000000000000000000000000000000000000000815260040160405180910390fd5b6002600181905550565b60606000620f4240424433604051602001610fea9392919061238f565b6040516020818303038152906040528051906020012060001c61100d91906123fb565b905061101842611260565b61102182611260565b6040516020016110329291906124c4565b60405160208183030381529060405291505090565b60018081905550565b61105861132e565b73ffffffffffffffffffffffffffffffffffffffff166110766109a1565b73ffffffffffffffffffffffffffffffffffffffff16146110d55761109961132e565b6040517f118cdaa70000000000000000000000000000000000000000000000000000000081526004016110cc91906119a2565b60405180910390fd5b565b6110df611336565b60008060146101000a81548160ff0219169083151502179055507f5db9ee0a495bf2e6ff9c91a7834c1ba4fdd244a5e8aa4e537bd38aeae4b073aa61112261132e565b60405161112f91906119a2565b60405180910390a1565b60008060009054906101000a900473ffffffffffffffffffffffffffffffffffffffff169050816000806101000a81548173ffffffffffffffffffffffffffffffffffffffff021916908373ffffffffffffffffffffffffffffffffffffffff1602179055508173ffffffffffffffffffffffffffffffffffffffff168173ffffffffffffffffffffffffffffffffffffffff167f8be0079c531659141344cd1fd0a4f28419497f9722a3daafe3b4186f6b6457e060405160405180910390a35050565b611205610f46565b6001600060146101000a81548160ff0219169083151502179055507f62e78cea01bee320cd4e420270b5ea74000d11b0c9f74754ebdbfc544b05a25861124961132e565b60405161125691906119a2565b60405180910390a1565b60606000600161126f84611376565b01905060008167ffffffffffffffff81111561128e5761128d611583565b5b6040519080825280601f01601f1916602001820160405280156112c05781602001600182028036833780820191505090505b509050600082602001820190505b600115611323578080600190039150507f3031323334353637383961626364656600000000000000000000000000000000600a86061a8153600a8581611317576113166123cc565b5b049450600085036112ce575b819350505050919050565b600033905090565b61133e6106a5565b611374576040517f8dfc202b00000000000000000000000000000000000000000000000000000000815260040160405180910390fd5b565b600080600090507a184f03e93ff9f4daa797ed6e38ed64bf6a1f01000000000000000083106113d4577a184f03e93ff9f4daa797ed6e38ed64bf6a1f01000000000000000083816113ca576113c96123cc565b5b0492506040810190505b6d04ee2d6d415b85acef81000000008310611411576d04ee2d6d415b85acef81000000008381611407576114066123cc565b5b0492506020810190505b662386f26fc10000831061144057662386f26fc100008381611436576114356123cc565b5b0492506010810190505b6305f5e1008310611469576305f5e100838161145f5761145e6123cc565b5b0492506008810190505b612710831061148e576127108381611484576114836123cc565b5b0492506004810190505b606483106114b157606483816114a7576114a66123cc565b5b0492506002810190505b600a83106114c0576001810190505b80915050919050565b6040518060a001604052806000815260200160008152602001600060018111156114f6576114f5611706565b5b815260200160608152602001600073ffffffffffffffffffffffffffffffffffffffff1681525090565b6000819050919050565b61153381611520565b82525050565b600060208201905061154e600083018461152a565b92915050565b6000604051905090565b600080fd5b600080fd5b600080fd5b600080fd5b6000601f19601f8301169050919050565b7f4e487b7100000000000000000000000000000000000000000000000000000000600052604160045260246000fd5b6115bb82611572565b810181811067ffffffffffffffff821117156115da576115d9611583565b5b80604052505050565b60006115ed611554565b90506115f982826115b2565b919050565b600067ffffffffffffffff82111561161957611618611583565b5b61162282611572565b9050602081019050919050565b82818337600083830152505050565b600061165161164c846115fe565b6115e3565b90508281526020810184848401111561166d5761166c61156d565b5b61167884828561162f565b509392505050565b600082601f83011261169557611694611568565b5b81356116a584826020860161163e565b91505092915050565b6000602082840312156116c4576116c361155e565b5b600082013567ffffffffffffffff8111156116e2576116e1611563565b5b6116ee84828501611680565b91505092915050565b61170081611520565b82525050565b7f4e487b7100000000000000000000000000000000000000000000000000000000600052602160045260246000fd5b6002811061174657611745611706565b5b50565b600081905061175782611735565b919050565b600061176782611749565b9050919050565b6117778161175c565b82525050565b600081519050919050565b600082825260208201905092915050565b60005b838110156117b757808201518184015260208101905061179c565b60008484015250505050565b60006117ce8261177d565b6117d88185611788565b93506117e8818560208601611799565b6117f181611572565b840191505092915050565b600073ffffffffffffffffffffffffffffffffffffffff82169050919050565b6000611827826117fc565b9050919050565b6118378161181c565b82525050565b600060a08301600083015161185560008601826116f7565b50602083015161186860208601826116f7565b50604083015161187b604086018261176e565b506060830151848203606086015261189382826117c3565b91505060808301516118a8608086018261182e565b508091505092915050565b600060208201905081810360008301526118cd818461183d565b905092915050565b60008115159050919050565b6118ea816118d5565b82525050565b600060208201905061190560008301846118e1565b92915050565b61191481611520565b811461191f57600080fd5b50565b6000813590506119318161190b565b92915050565b6000806040838503121561194e5761194d61155e565b5b600083013567ffffffffffffffff81111561196c5761196b611563565b5b61197885828601611680565b925050602061198985828601611922565b9150509250929050565b61199c8161181c565b82525050565b60006020820190506119b76000830184611993565b92915050565b6000602082840312156119d3576119d261155e565b5b60006119e184828501611922565b91505092915050565b6119f38161175c565b82525050565b600082825260208201905092915050565b6000611a158261177d565b611a1f81856119f9565b9350611a2f818560208601611799565b611a3881611572565b840191505092915050565b600060a082019050611a58600083018861152a565b611a65602083018761152a565b611a7260408301866119ea565b8181036060830152611a848185611a0a565b9050611a936080830184611993565b9695505050505050565b611aa68161181c565b8114611ab157600080fd5b50565b600081359050611ac381611a9d565b92915050565b600060208284031215611adf57611ade61155e565b5b6000611aed84828501611ab4565b91505092915050565b7f746865206275646765742073686f756c6420626520677265617465722074686160008201527f6e207a65726f0000000000000000000000000000000000000000000000000000602082015250565b6000611b526026836119f9565b9150611b5d82611af6565b604082019050919050565b60006020820190508181036000830152611b8181611b45565b9050919050565b7f4e487b7100000000000000000000000000000000000000000000000000000000600052601160045260246000fd5b6000611bc282611520565b91507fffffffffffffffffffffffffffffffffffffffffffffffffffffffffffffffff8203611bf457611bf3611b88565b5b600182019050919050565b7f4e487b7100000000000000000000000000000000000000000000000000000000600052602260045260246000fd5b60006002820490506001821680611c4657607f821691505b602082108103611c5957611c58611bff565b5b50919050565b60008190508160005260206000209050919050565b60006020601f8301049050919050565b600082821b905092915050565b600060088302611cc17fffffffffffffffffffffffffffffffffffffffffffffffffffffffffffffffff82611c84565b611ccb8683611c84565b95508019841693508086168417925050509392505050565b6000819050919050565b6000611d08611d03611cfe84611520565b611ce3565b611520565b9050919050565b6000819050919050565b611d2283611ced565b611d36611d2e82611d0f565b848454611c91565b825550505050565b600090565b611d4b611d3e565b611d56818484611d19565b505050565b5b81811015611d7a57611d6f600082611d43565b600181019050611d5c565b5050565b601f821115611dbf57611d9081611c5f565b611d9984611c74565b81016020851015611da8578190505b611dbc611db485611c74565b830182611d5b565b50505b505050565b600082821c905092915050565b6000611de260001984600802611dc4565b1980831691505092915050565b6000611dfb8383611dd1565b9150826002028217905092915050565b611e148261177d565b67ffffffffffffffff811115611e2d57611e2c611583565b5b611e378254611c2e565b611e42828285611d7e565b600060209050601f831160018114611e755760008415611e63578287015190505b611e6d8582611def565b865550611ed5565b601f198416611e8386611c5f565b60005b82811015611eab57848901518255600182019150602085019450602081019050611e86565b86831015611ec85784890151611ec4601f891682611dd1565b8355505b6001600288020188555050505b505050505050565b600081905092915050565b6000611ef38261177d565b611efd8185611edd565b9350611f0d818560208601611799565b80840191505092915050565b6000611f258284611ee8565b915081905092915050565b60006040820190508181036000830152611f4a8185611a0a565b9050611f59602083018461152a565b9392505050565b7f496e76616c69642063616d706169676e20636f64650000000000000000000000600082015250565b6000611f966015836119f9565b9150611fa182611f60565b602082019050919050565b60006020820190508181036000830152611fc581611f89565b9050919050565b7f43616d706169676e206973206e6f742061637469766500000000000000000000600082015250565b60006120026016836119f9565b915061200d82611fcc565b602082019050919050565b6000602082019050818103600083015261203181611ff5565b9050919050565b600061204382611520565b915061204e83611520565b925082820390508181111561206657612065611b88565b5b92915050565b7f205468652063757272656e7420616d6f756e7420636c61696d65642073686f7560008201527f6c642062652067726561746572207468616e207a65726f000000000000000000602082015250565b60006120c86037836119f9565b91506120d38261206c565b604082019050919050565b600060208201905081810360008301526120f7816120bb565b9050919050565b7f496e73756666696369656e7420636f6e74726163742062616c616e6365000000600082015250565b6000612134601d836119f9565b915061213f826120fe565b602082019050919050565b6000602082019050818103600083015261216381612127565b9050919050565b600061217582611520565b915061218083611520565b925082820190508082111561219857612197611b88565b5b92915050565b7f4f6e6c79207468652061647665727469736572206f72206f776e65722063616e60008201527f2072657175657374207769746864726177616c00000000000000000000000000602082015250565b60006121fa6033836119f9565b91506122058261219e565b604082019050919050565b60006020820190508181036000830152612229816121ed565b9050919050565b7f207468652063757272656e7420616d6f756e74207370656e742073686f756c6460008201527f2062652067726561746572207468616e2074686520616c726561647920636c6160208201527f696d656420416d6f756e74000000000000000000000000000000000000000000604082015250565b60006122b2604b836119f9565b91506122bd82612230565b606082019050919050565b600060208201905081810360008301526122e1816122a5565b9050919050565b600060608201905081810360008301526123028186611a0a565b90506123116020830185611993565b61231e604083018461152a565b949350505050565b6000819050919050565b61234161233c82611520565b612326565b82525050565b60008160601b9050919050565b600061235f82612347565b9050919050565b600061237182612354565b9050919050565b6123896123848261181c565b612366565b82525050565b600061239b8286612330565b6020820191506123ab8285612330565b6020820191506123bb8284612378565b601482019150819050949350505050565b7f4e487b7100000000000000000000000000000000000000000000000000000000600052601260045260246000fd5b600061240682611520565b915061241183611520565b925082612421576124206123cc565b5b828206905092915050565b7f43414d504149474e2d0000000000000000000000000000000000000000000000600082015250565b6000612462600983611edd565b915061246d8261242c565b600982019050919050565b7f2d00000000000000000000000000000000000000000000000000000000000000600082015250565b60006124ae600183611edd565b91506124b982612478565b600182019050919050565b60006124cf82612455565b91506124db8285611ee8565b91506124e6826124a1565b91506124f28284611ee8565b9150819050939250505056fea264697066735822122072feea91fb7110b2a5fcbb7c899d8277fc0dc460ec735f559fa87163c36355b964736f6c63430008180033",
  "linkReferences": {},
  "deployedLinkReferences": {}
}