{
  "_format": "hh-sol-artifact-1",
  "contractName": "AdCampaignManagerV2",
  "sourceName": "contracts/AdCampaignManagerV2.sol",
  "abi": [
    {
      "inputs": [],
      "stateMutability": "nonpayable",
      "type": "constructor"
    },
    {
      "inputs": [],
      "name": "EnforcedPause",
      "type": "error"
    },
    {
      "inputs": [],
      "name": "ExpectedPause",
      "type": "error"
    },
    {
      "inputs": [
        {
          "internalType": "address",
          "name": "owner",
          "type": "address"
        }
      ],
      "name": "OwnableInvalidOwner",
      "type": "error"
    },
    {
      "inputs": [
        {
          "internalType": "address",
          "name": "account",
          "type": "address"
        }
      ],
      "name": "OwnableUnauthorizedAccount",
      "type": "error"
    },
    {
      "inputs": [],
      "name": "ReentrancyGuardReentrantCall",
      "type": "error"
    },
    {
      "anonymous": false,
      "inputs": [
        {
          "indexed": false,
          "internalType": "string",
          "name": "campaignCode",
          "type": "string"
        },
        {
          "indexed": false,
          "internalType": "uint256",
          "name": "budget",
          "type": "uint256"
        }
      ],
      "name": "AdCampaignCreated",
      "type": "event"
    },
    {
      "anonymous": false,
      "inputs": [
        {
          "indexed": false,
          "internalType": "string",
          "name": "campaignCode",
          "type": "string"
        },
        {
          "indexed": false,
          "internalType": "address",
          "name": "advertiser",
          "type": "address"
        },
        {
          "indexed": false,
          "internalType": "uint256",
          "name": "amount",
          "type": "uint256"
        }
      ],
      "name": "BudgetWithdrawn",
      "type": "event"
    },
    {
      "anonymous": false,
      "inputs": [
        {
          "indexed": true,
          "internalType": "address",
          "name": "previousOwner",
          "type": "address"
        },
        {
          "indexed": true,
          "internalType": "address",
          "name": "newOwner",
          "type": "address"
        }
      ],
      "name": "OwnershipTransferred",
      "type": "event"
    },
    {
      "anonymous": false,
      "inputs": [
        {
          "indexed": false,
          "internalType": "address",
          "name": "account",
          "type": "address"
        }
      ],
      "name": "Paused",
      "type": "event"
    },
    {
      "anonymous": false,
      "inputs": [
        {
          "indexed": false,
          "internalType": "string",
          "name": "campaignCode",
          "type": "string"
        },
        {
          "indexed": false,
          "internalType": "uint256",
          "name": "paymentAmount",
          "type": "uint256"
        }
      ],
      "name": "PaymentReleased",
      "type": "event"
    },
    {
      "anonymous": false,
      "inputs": [
        {
          "indexed": false,
          "internalType": "string",
          "name": "campaignCode",
          "type": "string"
        },
        {
          "indexed": false,
          "internalType": "uint256",
          "name": "paymentAmount",
          "type": "uint256"
        }
      ],
      "name": "PaymentReleasedOnWithdrawApproval",
      "type": "event"
    },
    {
      "anonymous": false,
      "inputs": [
        {
          "indexed": false,
          "internalType": "address",
          "name": "account",
          "type": "address"
        }
      ],
      "name": "Unpaused",
      "type": "event"
    },
    {
      "anonymous": false,
      "inputs": [
        {
          "indexed": false,
          "internalType": "string",
          "name": "campaignCode",
          "type": "string"
        }
      ],
      "name": "WithdrawalRequested",
      "type": "event"
    },
    {
      "inputs": [],
      "name": "adCampaignCount",
      "outputs": [
        {
          "internalType": "uint256",
          "name": "",
          "type": "uint256"
        }
      ],
      "stateMutability": "view",
      "type": "function"
    },
    {
      "inputs": [
        {
          "internalType": "uint256",
          "name": "",
          "type": "uint256"
        }
      ],
      "name": "adCampaigns",
      "outputs": [
        {
          "internalType": "uint256",
          "name": "budget",
          "type": "uint256"
        },
        {
          "internalType": "uint256",
          "name": "amountSpent",
          "type": "uint256"
        },
        {
          "internalType": "enum AdCampaignManagerV2.CampaignStatus",
          "name": "status",
          "type": "uint8"
        },
        {
          "internalType": "string",
          "name": "campaignCode",
          "type": "string"
        },
        {
          "internalType": "address",
          "name": "advertiser",
          "type": "address"
        }
      ],
      "stateMutability": "view",
      "type": "function"
    },
    {
      "inputs": [
        {
          "internalType": "string",
          "name": "campaignCode",
          "type": "string"
        },
        {
          "internalType": "uint256",
          "name": "currentAmountSpent",
          "type": "uint256"
        }
      ],
      "name": "approveWithdrawal",
      "outputs": [],
      "stateMutability": "nonpayable",
      "type": "function"
    },
    {
      "inputs": [
        {
          "internalType": "string",
          "name": "",
          "type": "string"
        }
      ],
      "name": "campaignCodesToId",
      "outputs": [
        {
          "internalType": "uint256",
          "name": "",
          "type": "uint256"
        }
      ],
      "stateMutability": "view",
      "type": "function"
    },
    {
      "inputs": [
        {
          "internalType": "string",
          "name": "campaignCode",
          "type": "string"
        },
        {
          "internalType": "uint256",
          "name": "currentAmountSpent",
          "type": "uint256"
        }
      ],
      "name": "claimPayment",
      "outputs": [],
      "stateMutability": "nonpayable",
      "type": "function"
    },
    {
      "inputs": [],
      "name": "createAdCampaign",
      "outputs": [],
      "stateMutability": "payable",
      "type": "function"
    },
    {
      "inputs": [
        {
          "internalType": "string",
          "name": "campaignCode",
          "type": "string"
        }
      ],
      "name": "getAdCampaignByCode",
      "outputs": [
        {
          "components": [
            {
              "internalType": "uint256",
              "name": "budget",
              "type": "uint256"
            },
            {
              "internalType": "uint256",
              "name": "amountSpent",
              "type": "uint256"
            },
            {
              "internalType": "enum AdCampaignManagerV2.CampaignStatus",
              "name": "status",
              "type": "uint8"
            },
            {
              "internalType": "string",
              "name": "campaignCode",
              "type": "string"
            },
            {
              "internalType": "address",
              "name": "advertiser",
              "type": "address"
            }
          ],
          "internalType": "struct AdCampaignManagerV2.AdCampaign",
          "name": "",
          "type": "tuple"
        }
      ],
      "stateMutability": "view",
      "type": "function"
    },
    {
      "inputs": [],
      "name": "owner",
      "outputs": [
        {
          "internalType": "address",
          "name": "",
          "type": "address"
        }
      ],
      "stateMutability": "view",
      "type": "function"
    },
    {
      "inputs": [],
      "name": "pause",
      "outputs": [],
      "stateMutability": "nonpayable",
      "type": "function"
    },
    {
      "inputs": [],
      "name": "paused",
      "outputs": [
        {
          "internalType": "bool",
          "name": "",
          "type": "bool"
        }
      ],
      "stateMutability": "view",
      "type": "function"
    },
    {
      "inputs": [],
      "name": "renounceOwnership",
      "outputs": [],
      "stateMutability": "nonpayable",
      "type": "function"
    },
    {
      "inputs": [
        {
          "internalType": "string",
          "name": "campaignCode",
          "type": "string"
        },
        {
          "internalType": "uint256",
          "name": "currentAmountSpent",
          "type": "uint256"
        }
      ],
      "name": "requestAndApproveWithdrawal",
      "outputs": [],
      "stateMutability": "nonpayable",
      "type": "function"
    },
    {
      "inputs": [
        {
          "internalType": "string",
          "name": "campaignCode",
          "type": "string"
        }
      ],
      "name": "requestWithdrawal",
      "outputs": [],
      "stateMutability": "nonpayable",
      "type": "function"
    },
    {
      "inputs": [
        {
          "internalType": "address",
          "name": "newOwner",
          "type": "address"
        }
      ],
      "name": "transferOwnership",
      "outputs": [],
      "stateMutability": "nonpayable",
      "type": "function"
    },
    {
      "inputs": [],
      "name": "unpause",
      "outputs": [],
      "stateMutability": "nonpayable",
      "type": "function"
    },
    {
      "stateMutability": "payable",
      "type": "receive"
    }
  ],
  "bytecode": "0x60806040523480156200001157600080fd5b5033600073ffffffffffffffffffffffffffffffffffffffff168173ffffffffffffffffffffffffffffffffffffffff1603620000885760006040517f1e4fbdf70000000000000000000000000000000000000000000000000000000081526004016200007f9190620001ca565b60405180910390fd5b6200009981620000c160201b60201c565b5060008060146101000a81548160ff02191690831515021790555060018081905550620001e7565b60008060009054906101000a900473ffffffffffffffffffffffffffffffffffffffff169050816000806101000a81548173ffffffffffffffffffffffffffffffffffffffff021916908373ffffffffffffffffffffffffffffffffffffffff1602179055508173ffffffffffffffffffffffffffffffffffffffff168173ffffffffffffffffffffffffffffffffffffffff167f8be0079c531659141344cd1fd0a4f28419497f9722a3daafe3b4186f6b6457e060405160405180910390a35050565b600073ffffffffffffffffffffffffffffffffffffffff82169050919050565b6000620001b28262000185565b9050919050565b620001c481620001a5565b82525050565b6000602082019050620001e16000830184620001b9565b92915050565b612c3880620001f76000396000f3fe6080604052600436106100ec5760003560e01c806372a793881161008a578063a649d04f11610059578063a649d04f14610280578063cbef6132146102c1578063d0ac4013146102ea578063f2fde38b14610327576100f3565b806372a79388146101ec5780637aab369b146102155780638456cb591461023e5780638da5cb5b14610255576100f3565b80633f4ba83a116100c65780633f4ba83a14610156578063415eaedd1461016d5780635c975abb146101aa578063715018a6146101d5576100f3565b8063088b76d4146100f85780630bedb86d146101215780630da949df1461014c576100f3565b366100f357005b600080fd5b34801561010457600080fd5b5061011f600480360381019061011a9190611bf2565b610350565b005b34801561012d57600080fd5b50610136610550565b6040516101439190611c54565b60405180910390f35b610154610556565b005b34801561016257600080fd5b5061016b610740565b005b34801561017957600080fd5b50610194600480360381019061018f9190611bf2565b610752565b6040516101a19190611e2b565b60405180910390f35b3480156101b657600080fd5b506101bf61091d565b6040516101cc9190611e68565b60405180910390f35b3480156101e157600080fd5b506101ea610933565b005b3480156101f857600080fd5b50610213600480360381019061020e9190611eaf565b610947565b005b34801561022157600080fd5b5061023c60048036038101906102379190611eaf565b610c47565b005b34801561024a57600080fd5b50610253610f07565b005b34801561026157600080fd5b5061026a610f19565b6040516102779190611f1a565b60405180910390f35b34801561028c57600080fd5b506102a760048036038101906102a29190611f35565b610f42565b6040516102b8959493929190611fbb565b60405180910390f35b3480156102cd57600080fd5b506102e860048036038101906102e39190611eaf565b61102d565b005b3480156102f657600080fd5b50610311600480360381019061030c9190611bf2565b61140a565b60405161031e9190611c54565b60405180910390f35b34801561033357600080fd5b5061034e60048036038101906103499190612041565b611438565b005b6103586114be565b600060028260405161036a91906120aa565b9081526020016040518091039020549050600081116103be576040517f08c379a00000000000000000000000000000000000000000000000000000000081526004016103b59061210d565b60405180910390fd5b6000600360008381526020019081526020016000209050600060028111156103e9576103e8611c7e565b5b8160020160009054906101000a900460ff16600281111561040d5761040c611c7e565b5b1461044d576040517f08c379a000000000000000000000000000000000000000000000000000000000815260040161044490612179565b60405180910390fd5b8060040160009054906101000a900473ffffffffffffffffffffffffffffffffffffffff1673ffffffffffffffffffffffffffffffffffffffff163373ffffffffffffffffffffffffffffffffffffffff16146104df576040517f08c379a00000000000000000000000000000000000000000000000000000000081526004016104d69061220b565b60405180910390fd5b60018160020160006101000a81548160ff0219169083600281111561050757610506611c7e565b5b02179055507ff7160323284ae4aa0d98de6ca199de6f8af66ee3742f4fee6ddaa64c51266c888360405161053b919061222b565b60405180910390a1505061054d611504565b50565b60045481565b61055e61150d565b6105666114be565b600034116105a9576040517f08c379a00000000000000000000000000000000000000000000000000000000081526004016105a0906122bf565b60405180910390fd5b600460008154809291906105bc9061230e565b919050555060006105cb61154e565b90506040518060a0016040528034815260200160008152602001600060028111156105f9576105f8611c7e565b5b81526020018281526020013373ffffffffffffffffffffffffffffffffffffffff16815250600360006004548152602001908152602001600020600082015181600001556020820151816001015560408201518160020160006101000a81548160ff0219169083600281111561067257610671611c7e565b5b0217905550606082015181600301908161068c9190612562565b5060808201518160040160006101000a81548173ffffffffffffffffffffffffffffffffffffffff021916908373ffffffffffffffffffffffffffffffffffffffff1602179055509050506004546002826040516106ea91906120aa565b9081526020016040518091039020819055507fc79154d0a4bae450367237b7422a1e23347c6fcafb5c10d57932694982687b73813460405161072d929190612634565b60405180910390a15061073e611504565b565b6107486115c8565b61075061164f565b565b61075a611a41565b600060028360405161076c91906120aa565b9081526020016040518091039020549050600081116107c0576040517f08c379a00000000000000000000000000000000000000000000000000000000081526004016107b79061210d565b60405180910390fd5b600360008281526020019081526020016000206040518060a001604052908160008201548152602001600182015481526020016002820160009054906101000a900460ff16600281111561081757610816611c7e565b5b600281111561082957610828611c7e565b5b815260200160038201805461083d90612385565b80601f016020809104026020016040519081016040528092919081815260200182805461086990612385565b80156108b65780601f1061088b576101008083540402835291602001916108b6565b820191906000526020600020905b81548152906001019060200180831161089957829003601f168201915b505050505081526020016004820160009054906101000a900473ffffffffffffffffffffffffffffffffffffffff1673ffffffffffffffffffffffffffffffffffffffff1673ffffffffffffffffffffffffffffffffffffffff1681525050915050919050565b60008060149054906101000a900460ff16905090565b61093b6115c8565b61094560006116b1565b565b61094f6115c8565b6109576114be565b600060028360405161096991906120aa565b9081526020016040518091039020549050600081116109bd576040517f08c379a00000000000000000000000000000000000000000000000000000000081526004016109b49061210d565b60405180910390fd5b6000600360008381526020019081526020016000209050600160028111156109e8576109e7611c7e565b5b8160020160009054906101000a900460ff166002811115610a0c57610a0b611c7e565b5b14610a4c576040517f08c379a0000000000000000000000000000000000000000000000000000000008152600401610a43906126b0565b60405180910390fd5b8060000154831115610a93576040517f08c379a0000000000000000000000000000000000000000000000000000000008152600401610a8a9061271c565b60405180910390fd5b8281600101819055506000838260000154610aae919061273c565b905060028260020160006101000a81548160ff02191690836002811115610ad857610ad7611c7e565b5b02179055506000811115610b52578160040160009054906101000a900473ffffffffffffffffffffffffffffffffffffffff1673ffffffffffffffffffffffffffffffffffffffff166108fc829081150290604051600060405180830381858888f19350505050158015610b50573d6000803e3d6000fd5b505b610b5a610f19565b73ffffffffffffffffffffffffffffffffffffffff166108fc859081150290604051600060405180830381858888f19350505050158015610b9f573d6000803e3d6000fd5b507fba9059f3850aee53fbd909cc5b38d859e4a645f2ad3da7093ab74c7b88f24bf2858360040160009054906101000a900473ffffffffffffffffffffffffffffffffffffffff1683604051610bf793929190612770565b60405180910390a17fd94c2a1bdebb5c53e4d8c915ab66e4ac6cb53eb59bb0c69f423bb4f6f6084de38585604051610c30929190612634565b60405180910390a1505050610c43611504565b5050565b610c4f6115c8565b610c5761150d565b610c5f6114be565b6000600283604051610c7191906120aa565b908152602001604051809103902054905060008111610cc5576040517f08c379a0000000000000000000000000000000000000000000000000000000008152600401610cbc9061210d565b60405180910390fd5b600060036000838152602001908152602001600020905060006002811115610cf057610cef611c7e565b5b8160020160009054906101000a900460ff166002811115610d1457610d13611c7e565b5b14610d54576040517f08c379a0000000000000000000000000000000000000000000000000000000008152600401610d4b90612179565b60405180910390fd5b6000816001015484610d66919061273c565b905060008111610dab576040517f08c379a0000000000000000000000000000000000000000000000000000000008152600401610da290612820565b60405180910390fd5b600082600101548360000154610dc1919061273c565b9050600082821115610dd35782610dd5565b815b905080471015610e1a576040517f08c379a0000000000000000000000000000000000000000000000000000000008152600401610e119061288c565b60405180910390fd5b808460010154610e2a91906128ac565b84600101819055508360000154846001015410610e6f5760028460020160006101000a81548160ff02191690836002811115610e6957610e68611c7e565b5b02179055505b610e77610f19565b73ffffffffffffffffffffffffffffffffffffffff166108fc829081150290604051600060405180830381858888f19350505050158015610ebc573d6000803e3d6000fd5b507f4a1f19202167cbf263d5e4ac0deb8eb1d58700a6e621b10a650d456ed5a5ad538782604051610eee929190612634565b60405180910390a15050505050610f03611504565b5050565b610f0f6115c8565b610f17611775565b565b60008060009054906101000a900473ffffffffffffffffffffffffffffffffffffffff16905090565b60036020528060005260406000206000915090508060000154908060010154908060020160009054906101000a900460ff1690806003018054610f8490612385565b80601f0160208091040260200160405190810160405280929190818152602001828054610fb090612385565b8015610ffd5780601f10610fd257610100808354040283529160200191610ffd565b820191906000526020600020905b815481529060010190602001808311610fe057829003601f168201915b5050505050908060040160009054906101000a900473ffffffffffffffffffffffffffffffffffffffff16905085565b6110356114be565b600060028360405161104791906120aa565b90815260200160405180910390205490506000811161109b576040517f08c379a00000000000000000000000000000000000000000000000000000000081526004016110929061210d565b60405180910390fd5b6000600360008381526020019081526020016000209050600060028111156110c6576110c5611c7e565b5b8160020160009054906101000a900460ff1660028111156110ea576110e9611c7e565b5b1461112a576040517f08c379a000000000000000000000000000000000000000000000000000000000815260040161112190612179565b60405180910390fd5b8060040160009054906101000a900473ffffffffffffffffffffffffffffffffffffffff1673ffffffffffffffffffffffffffffffffffffffff163373ffffffffffffffffffffffffffffffffffffffff1614806111ba575061118b610f19565b73ffffffffffffffffffffffffffffffffffffffff163373ffffffffffffffffffffffffffffffffffffffff16145b6111f9576040517f08c379a00000000000000000000000000000000000000000000000000000000081526004016111f090612952565b60405180910390fd5b8281600101541115611240576040517f08c379a000000000000000000000000000000000000000000000000000000000815260040161123790612a0a565b60405180910390fd5b6000838260000154611252919061273c565b905060028260020160006101000a81548160ff0219169083600281111561127c5761127b611c7e565b5b021790555060008111156112f6578160040160009054906101000a900473ffffffffffffffffffffffffffffffffffffffff1673ffffffffffffffffffffffffffffffffffffffff166108fc829081150290604051600060405180830381858888f193505050501580156112f4573d6000803e3d6000fd5b505b6000826001015485611308919061273c565b905060008111156113625761131b610f19565b73ffffffffffffffffffffffffffffffffffffffff166108fc829081150290604051600060405180830381858888f19350505050158015611360573d6000803e3d6000fd5b505b7fba9059f3850aee53fbd909cc5b38d859e4a645f2ad3da7093ab74c7b88f24bf2868460040160009054906101000a900473ffffffffffffffffffffffffffffffffffffffff16846040516113b993929190612770565b60405180910390a17fd94c2a1bdebb5c53e4d8c915ab66e4ac6cb53eb59bb0c69f423bb4f6f6084de386826040516113f2929190612634565b60405180910390a150505050611406611504565b5050565b6002818051602081018201805184825260208301602085012081835280955050505050506000915090505481565b6114406115c8565b600073ffffffffffffffffffffffffffffffffffffffff168173ffffffffffffffffffffffffffffffffffffffff16036114b25760006040517f1e4fbdf70000000000000000000000000000000000000000000000000000000081526004016114a99190611f1a565b60405180910390fd5b6114bb816116b1565b50565b6002600154036114fa576040517f3ee5aeb500000000000000000000000000000000000000000000000000000000815260040160405180910390fd5b6002600181905550565b60018081905550565b61151561091d565b1561154c576040517fd93c066500000000000000000000000000000000000000000000000000000000815260040160405180910390fd5b565b60606000620f424042443360405160200161156b93929190612a93565b6040516020818303038152906040528051906020012060001c61158e9190612aff565b9050611599426117d8565b6115a2826117d8565b6040516020016115b3929190612bc8565b60405160208183030381529060405291505090565b6115d06118a6565b73ffffffffffffffffffffffffffffffffffffffff166115ee610f19565b73ffffffffffffffffffffffffffffffffffffffff161461164d576116116118a6565b6040517f118cdaa70000000000000000000000000000000000000000000000000000000081526004016116449190611f1a565b60405180910390fd5b565b6116576118ae565b60008060146101000a81548160ff0219169083151502179055507f5db9ee0a495bf2e6ff9c91a7834c1ba4fdd244a5e8aa4e537bd38aeae4b073aa61169a6118a6565b6040516116a79190611f1a565b60405180910390a1565b60008060009054906101000a900473ffffffffffffffffffffffffffffffffffffffff169050816000806101000a81548173ffffffffffffffffffffffffffffffffffffffff021916908373ffffffffffffffffffffffffffffffffffffffff1602179055508173ffffffffffffffffffffffffffffffffffffffff168173ffffffffffffffffffffffffffffffffffffffff167f8be0079c531659141344cd1fd0a4f28419497f9722a3daafe3b4186f6b6457e060405160405180910390a35050565b61177d61150d565b6001600060146101000a81548160ff0219169083151502179055507f62e78cea01bee320cd4e420270b5ea74000d11b0c9f74754ebdbfc544b05a2586117c16118a6565b6040516117ce9190611f1a565b60405180910390a1565b6060600060016117e7846118ee565b01905060008167ffffffffffffffff81111561180657611805611ac7565b5b6040519080825280601f01601f1916602001820160405280156118385781602001600182028036833780820191505090505b509050600082602001820190505b60011561189b578080600190039150507f3031323334353637383961626364656600000000000000000000000000000000600a86061a8153600a858161188f5761188e612ad0565b5b04945060008503611846575b819350505050919050565b600033905090565b6118b661091d565b6118ec576040517f8dfc202b00000000000000000000000000000000000000000000000000000000815260040160405180910390fd5b565b600080600090507a184f03e93ff9f4daa797ed6e38ed64bf6a1f010000000000000000831061194c577a184f03e93ff9f4daa797ed6e38ed64bf6a1f010000000000000000838161194257611941612ad0565b5b0492506040810190505b6d04ee2d6d415b85acef81000000008310611989576d04ee2d6d415b85acef8100000000838161197f5761197e612ad0565b5b0492506020810190505b662386f26fc1000083106119b857662386f26fc1000083816119ae576119ad612ad0565b5b0492506010810190505b6305f5e10083106119e1576305f5e10083816119d7576119d6612ad0565b5b0492506008810190505b6127108310611a065761271083816119fc576119fb612ad0565b5b0492506004810190505b60648310611a295760648381611a1f57611a1e612ad0565b5b0492506002810190505b600a8310611a38576001810190505b80915050919050565b6040518060a00160405280600081526020016000815260200160006002811115611a6e57611a6d611c7e565b5b815260200160608152602001600073ffffffffffffffffffffffffffffffffffffffff1681525090565b6000604051905090565b600080fd5b600080fd5b600080fd5b600080fd5b6000601f19601f8301169050919050565b7f4e487b7100000000000000000000000000000000000000000000000000000000600052604160045260246000fd5b611aff82611ab6565b810181811067ffffffffffffffff82111715611b1e57611b1d611ac7565b5b80604052505050565b6000611b31611a98565b9050611b3d8282611af6565b919050565b600067ffffffffffffffff821115611b5d57611b5c611ac7565b5b611b6682611ab6565b9050602081019050919050565b82818337600083830152505050565b6000611b95611b9084611b42565b611b27565b905082815260208101848484011115611bb157611bb0611ab1565b5b611bbc848285611b73565b509392505050565b600082601f830112611bd957611bd8611aac565b5b8135611be9848260208601611b82565b91505092915050565b600060208284031215611c0857611c07611aa2565b5b600082013567ffffffffffffffff811115611c2657611c25611aa7565b5b611c3284828501611bc4565b91505092915050565b6000819050919050565b611c4e81611c3b565b82525050565b6000602082019050611c696000830184611c45565b92915050565b611c7881611c3b565b82525050565b7f4e487b7100000000000000000000000000000000000000000000000000000000600052602160045260246000fd5b60038110611cbe57611cbd611c7e565b5b50565b6000819050611ccf82611cad565b919050565b6000611cdf82611cc1565b9050919050565b611cef81611cd4565b82525050565b600081519050919050565b600082825260208201905092915050565b60005b83811015611d2f578082015181840152602081019050611d14565b60008484015250505050565b6000611d4682611cf5565b611d508185611d00565b9350611d60818560208601611d11565b611d6981611ab6565b840191505092915050565b600073ffffffffffffffffffffffffffffffffffffffff82169050919050565b6000611d9f82611d74565b9050919050565b611daf81611d94565b82525050565b600060a083016000830151611dcd6000860182611c6f565b506020830151611de06020860182611c6f565b506040830151611df36040860182611ce6565b5060608301518482036060860152611e0b8282611d3b565b9150506080830151611e206080860182611da6565b508091505092915050565b60006020820190508181036000830152611e458184611db5565b905092915050565b60008115159050919050565b611e6281611e4d565b82525050565b6000602082019050611e7d6000830184611e59565b92915050565b611e8c81611c3b565b8114611e9757600080fd5b50565b600081359050611ea981611e83565b92915050565b60008060408385031215611ec657611ec5611aa2565b5b600083013567ffffffffffffffff811115611ee457611ee3611aa7565b5b611ef085828601611bc4565b9250506020611f0185828601611e9a565b9150509250929050565b611f1481611d94565b82525050565b6000602082019050611f2f6000830184611f0b565b92915050565b600060208284031215611f4b57611f4a611aa2565b5b6000611f5984828501611e9a565b91505092915050565b611f6b81611cd4565b82525050565b600082825260208201905092915050565b6000611f8d82611cf5565b611f978185611f71565b9350611fa7818560208601611d11565b611fb081611ab6565b840191505092915050565b600060a082019050611fd06000830188611c45565b611fdd6020830187611c45565b611fea6040830186611f62565b8181036060830152611ffc8185611f82565b905061200b6080830184611f0b565b9695505050505050565b61201e81611d94565b811461202957600080fd5b50565b60008135905061203b81612015565b92915050565b60006020828403121561205757612056611aa2565b5b60006120658482850161202c565b91505092915050565b600081905092915050565b600061208482611cf5565b61208e818561206e565b935061209e818560208601611d11565b80840191505092915050565b60006120b68284612079565b915081905092915050565b7f496e76616c69642063616d706169676e20636f64650000000000000000000000600082015250565b60006120f7601583611f71565b9150612102826120c1565b602082019050919050565b60006020820190508181036000830152612126816120ea565b9050919050565b7f43616d706169676e206973206e6f742061637469766500000000000000000000600082015250565b6000612163601683611f71565b915061216e8261212d565b602082019050919050565b6000602082019050818103600083015261219281612156565b9050919050565b7f4f6e6c792074686520616476657274697365722063616e20726571756573742060008201527f7769746864726177616c00000000000000000000000000000000000000000000602082015250565b60006121f5602a83611f71565b915061220082612199565b604082019050919050565b60006020820190508181036000830152612224816121e8565b9050919050565b600060208201905081810360008301526122458184611f82565b905092915050565b7f746865206275646765742073686f756c6420626520677265617465722074686160008201527f6e207a65726f0000000000000000000000000000000000000000000000000000602082015250565b60006122a9602683611f71565b91506122b48261224d565b604082019050919050565b600060208201905081810360008301526122d88161229c565b9050919050565b7f4e487b7100000000000000000000000000000000000000000000000000000000600052601160045260246000fd5b600061231982611c3b565b91507fffffffffffffffffffffffffffffffffffffffffffffffffffffffffffffffff820361234b5761234a6122df565b5b600182019050919050565b7f4e487b7100000000000000000000000000000000000000000000000000000000600052602260045260246000fd5b6000600282049050600182168061239d57607f821691505b6020821081036123b0576123af612356565b5b50919050565b60008190508160005260206000209050919050565b60006020601f8301049050919050565b600082821b905092915050565b6000600883026124187fffffffffffffffffffffffffffffffffffffffffffffffffffffffffffffffff826123db565b61242286836123db565b95508019841693508086168417925050509392505050565b6000819050919050565b600061245f61245a61245584611c3b565b61243a565b611c3b565b9050919050565b6000819050919050565b61247983612444565b61248d61248582612466565b8484546123e8565b825550505050565b600090565b6124a2612495565b6124ad818484612470565b505050565b5b818110156124d1576124c660008261249a565b6001810190506124b3565b5050565b601f821115612516576124e7816123b6565b6124f0846123cb565b810160208510156124ff578190505b61251361250b856123cb565b8301826124b2565b50505b505050565b600082821c905092915050565b60006125396000198460080261251b565b1980831691505092915050565b60006125528383612528565b9150826002028217905092915050565b61256b82611cf5565b67ffffffffffffffff81111561258457612583611ac7565b5b61258e8254612385565b6125998282856124d5565b600060209050601f8311600181146125cc57600084156125ba578287015190505b6125c48582612546565b86555061262c565b601f1984166125da866123b6565b60005b82811015612602578489015182556001820191506020850194506020810190506125dd565b8683101561261f578489015161261b601f891682612528565b8355505b6001600288020188555050505b505050505050565b6000604082019050818103600083015261264e8185611f82565b905061265d6020830184611c45565b9392505050565b7f5769746864726177616c206e6f74207265717565737465640000000000000000600082015250565b600061269a601883611f71565b91506126a582612664565b602082019050919050565b600060208201905081810360008301526126c98161268d565b9050919050565b7f4275646765742065786365656465640000000000000000000000000000000000600082015250565b6000612706600f83611f71565b9150612711826126d0565b602082019050919050565b60006020820190508181036000830152612735816126f9565b9050919050565b600061274782611c3b565b915061275283611c3b565b925082820390508181111561276a576127696122df565b5b92915050565b6000606082019050818103600083015261278a8186611f82565b90506127996020830185611f0b565b6127a66040830184611c45565b949350505050565b7f205468652063757272656e7420616d6f756e7420636c61696d65642073686f7560008201527f6c642062652067726561746572207468616e207a65726f000000000000000000602082015250565b600061280a603783611f71565b9150612815826127ae565b604082019050919050565b60006020820190508181036000830152612839816127fd565b9050919050565b7f496e73756666696369656e7420636f6e74726163742062616c616e6365000000600082015250565b6000612876601d83611f71565b915061288182612840565b602082019050919050565b600060208201905081810360008301526128a581612869565b9050919050565b60006128b782611c3b565b91506128c283611c3b565b92508282019050808211156128da576128d96122df565b5b92915050565b7f4f6e6c79207468652061647665727469736572206f72206f776e65722063616e60008201527f2072657175657374207769746864726177616c00000000000000000000000000602082015250565b600061293c603383611f71565b9150612947826128e0565b604082019050919050565b6000602082019050818103600083015261296b8161292f565b9050919050565b7f207468652063757272656e7420616d6f756e74207370656e742073686f756c6460008201527f2062652067726561746572207468616e2074686520616c726561647920636c6160208201527f696d656420416d6f756e74000000000000000000000000000000000000000000604082015250565b60006129f4604b83611f71565b91506129ff82612972565b606082019050919050565b60006020820190508181036000830152612a23816129e7565b9050919050565b6000819050919050565b612a45612a4082611c3b565b612a2a565b82525050565b60008160601b9050919050565b6000612a6382612a4b565b9050919050565b6000612a7582612a58565b9050919050565b612a8d612a8882611d94565b612a6a565b82525050565b6000612a9f8286612a34565b602082019150612aaf8285612a34565b602082019150612abf8284612a7c565b601482019150819050949350505050565b7f4e487b7100000000000000000000000000000000000000000000000000000000600052601260045260246000fd5b6000612b0a82611c3b565b9150612b1583611c3b565b925082612b2557612b24612ad0565b5b828206905092915050565b7f43414d504149474e2d0000000000000000000000000000000000000000000000600082015250565b6000612b6660098361206e565b9150612b7182612b30565b600982019050919050565b7f2d00000000000000000000000000000000000000000000000000000000000000600082015250565b6000612bb260018361206e565b9150612bbd82612b7c565b600182019050919050565b6000612bd382612b59565b9150612bdf8285612079565b9150612bea82612ba5565b9150612bf68284612079565b9150819050939250505056fea26469706673582212209c7d683f4488a7d8004b243bea8b23a525d0857d7ef3a6549ea2fb0ae815f33f64736f6c63430008180033",
  "linkReferences": {},
  "deployedLinkReferences": {}
}