{
  "_format": "hh-sol-artifact-1",
  "contractName": "CompetitionEscrow",
  "sourceName": "contracts/CompetitionEscrow.sol",
  "abi": [
    {
      "inputs": [],
      "name": "EnforcedPause",
      "type": "error"
    },
    {
      "inputs": [],
      "name": "ExpectedPause",
      "type": "error"
    },
    {
      "inputs": [
        {
          "internalType": "address",
          "name": "owner",
          "type": "address"
        }
      ],
      "name": "OwnableInvalidOwner",
      "type": "error"
    },
    {
      "inputs": [
        {
          "internalType": "address",
          "name": "account",
          "type": "address"
        }
      ],
      "name": "OwnableUnauthorizedAccount",
      "type": "error"
    },
    {
      "inputs": [],
      "name": "ReentrancyGuardReentrantCall",
      "type": "error"
    },
    {
      "anonymous": false,
      "inputs": [
        {
          "indexed": true,
          "internalType": "uint256",
          "name": "escrowId",
          "type": "uint256"
        },
        {
          "indexed": true,
          "internalType": "address",
          "name": "depositor",
          "type": "address"
        },
        {
          "indexed": false,
          "internalType": "uint256",
          "name": "amount",
          "type": "uint256"
        }
      ],
      "name": "Deposited",
      "type": "event"
    },
    {
      "anonymous": false,
      "inputs": [
        {
          "indexed": true,
          "internalType": "uint256",
          "name": "escrowId",
          "type": "uint256"
        },
        {
          "indexed": false,
          "internalType": "address",
          "name": "depositor",
          "type": "address"
        },
        {
          "indexed": false,
          "internalType": "address",
          "name": "recipient",
          "type": "address"
        },
        {
          "indexed": false,
          "internalType": "uint256",
          "name": "depositorAmount",
          "type": "uint256"
        },
        {
          "indexed": false,
          "internalType": "uint256",
          "name": "recipientAmount",
          "type": "uint256"
        }
      ],
      "name": "DisputeResolved",
      "type": "event"
    },
    {
      "anonymous": false,
      "inputs": [
        {
          "indexed": true,
          "internalType": "address",
          "name": "previousOwner",
          "type": "address"
        },
        {
          "indexed": true,
          "internalType": "address",
          "name": "newOwner",
          "type": "address"
        }
      ],
      "name": "OwnershipTransferred",
      "type": "event"
    },
    {
      "anonymous": false,
      "inputs": [
        {
          "indexed": false,
          "internalType": "address",
          "name": "account",
          "type": "address"
        }
      ],
      "name": "Paused",
      "type": "event"
    },
    {
      "anonymous": false,
      "inputs": [
        {
          "indexed": true,
          "internalType": "uint256",
          "name": "escrowId",
          "type": "uint256"
        },
        {
          "indexed": true,
          "internalType": "address",
          "name": "recipient",
          "type": "address"
        }
      ],
      "name": "RecipientSet",
      "type": "event"
    },
    {
      "anonymous": false,
      "inputs": [
        {
          "indexed": true,
          "internalType": "uint256",
          "name": "escrowId",
          "type": "uint256"
        },
        {
          "indexed": true,
          "internalType": "address",
          "name": "depositor",
          "type": "address"
        },
        {
          "indexed": false,
          "internalType": "uint256",
          "name": "amount",
          "type": "uint256"
        }
      ],
      "name": "Refunded",
      "type": "event"
    },
    {
      "anonymous": false,
      "inputs": [
        {
          "indexed": true,
          "internalType": "uint256",
          "name": "escrowId",
          "type": "uint256"
        },
        {
          "indexed": true,
          "internalType": "address",
          "name": "recipient",
          "type": "address"
        },
        {
          "indexed": false,
          "internalType": "uint256",
          "name": "amount",
          "type": "uint256"
        }
      ],
      "name": "Released",
      "type": "event"
    },
    {
      "anonymous": false,
      "inputs": [
        {
          "indexed": false,
          "internalType": "address",
          "name": "account",
          "type": "address"
        }
      ],
      "name": "Unpaused",
      "type": "event"
    },
    {
      "inputs": [],
      "name": "deposit",
      "outputs": [],
      "stateMutability": "payable",
      "type": "function"
    },
    {
      "inputs": [],
      "name": "owner",
      "outputs": [
        {
          "internalType": "address",
          "name": "",
          "type": "address"
        }
      ],
      "stateMutability": "view",
      "type": "function"
    },
    {
      "inputs": [],
      "name": "pause",
      "outputs": [],
      "stateMutability": "nonpayable",
      "type": "function"
    },
    {
      "inputs": [],
      "name": "paused",
      "outputs": [
        {
          "internalType": "bool",
          "name": "",
          "type": "bool"
        }
      ],
      "stateMutability": "view",
      "type": "function"
    },
    {
      "inputs": [
        {
          "internalType": "uint256",
          "name": "escrowId",
          "type": "uint256"
        }
      ],
      "name": "refund",
      "outputs": [],
      "stateMutability": "nonpayable",
      "type": "function"
    },
    {
      "inputs": [
        {
          "internalType": "uint256",
          "name": "escrowId",
          "type": "uint256"
        }
      ],
      "name": "release",
      "outputs": [],
      "stateMutability": "nonpayable",
      "type": "function"
    },
    {
      "inputs": [],
      "name": "renounceOwnership",
      "outputs": [],
      "stateMutability": "nonpayable",
      "type": "function"
    },
    {
      "inputs": [
        {
          "internalType": "uint256",
          "name": "escrowId",
          "type": "uint256"
        },
        {
          "internalType": "uint256",
          "name": "depositorPercentage",
          "type": "uint256"
        }
      ],
      "name": "resolveDispute",
      "outputs": [],
      "stateMutability": "nonpayable",
      "type": "function"
    },
    {
      "inputs": [
        {
          "internalType": "uint256",
          "name": "escrowId",
          "type": "uint256"
        },
        {
          "internalType": "address payable",
          "name": "recipient",
          "type": "address"
        }
      ],
      "name": "setRecipient",
      "outputs": [],
      "stateMutability": "nonpayable",
      "type": "function"
    },
    {
      "inputs": [
        {
          "internalType": "address",
          "name": "newOwner",
          "type": "address"
        }
      ],
      "name": "transferOwnership",
      "outputs": [],
      "stateMutability": "nonpayable",
      "type": "function"
    },
    {
      "inputs": [],
      "name": "unpause",
      "outputs": [],
      "stateMutability": "nonpayable",
      "type": "function"
    },
    {
      "stateMutability": "payable",
      "type": "receive"
    }
  ],
  "bytecode": "0x608060405260006003553480156200001657600080fd5b5033600073ffffffffffffffffffffffffffffffffffffffff168173ffffffffffffffffffffffffffffffffffffffff16036200008d5760006040517f1e4fbdf7000000000000000000000000000000000000000000000000000000008152600401620000849190620001cf565b60405180910390fd5b6200009e81620000c660201b60201c565b5060008060146101000a81548160ff02191690831515021790555060018081905550620001ec565b60008060009054906101000a900473ffffffffffffffffffffffffffffffffffffffff169050816000806101000a81548173ffffffffffffffffffffffffffffffffffffffff021916908373ffffffffffffffffffffffffffffffffffffffff1602179055508173ffffffffffffffffffffffffffffffffffffffff168173ffffffffffffffffffffffffffffffffffffffff167f8be0079c531659141344cd1fd0a4f28419497f9722a3daafe3b4186f6b6457e060405160405180910390a35050565b600073ffffffffffffffffffffffffffffffffffffffff82169050919050565b6000620001b7826200018a565b9050919050565b620001c981620001aa565b82525050565b6000602082019050620001e66000830184620001be565b92915050565b6123a980620001fc6000396000f3fe6080604052600436106100a05760003560e01c80638456cb59116100645780638456cb59146101575780638da5cb5b1461016e578063bdc84ac314610199578063d0e30db0146101c2578063dd6e7b0c146101cc578063f2fde38b146101f5576100a7565b8063278ecde1146100ac57806337bdc99b146100d55780633f4ba83a146100fe5780635c975abb14610115578063715018a614610140576100a7565b366100a757005b600080fd5b3480156100b857600080fd5b506100d360048036038101906100ce9190611753565b61021e565b005b3480156100e157600080fd5b506100fc60048036038101906100f79190611753565b6105d8565b005b34801561010a57600080fd5b50610113610a20565b005b34801561012157600080fd5b5061012a610a32565b604051610137919061179b565b60405180910390f35b34801561014c57600080fd5b50610155610a48565b005b34801561016357600080fd5b5061016c610a5c565b005b34801561017a57600080fd5b50610183610a6e565b60405161019091906117f7565b60405180910390f35b3480156101a557600080fd5b506101c060048036038101906101bb9190611812565b610a97565b005b6101ca610efc565b005b3480156101d857600080fd5b506101f360048036038101906101ee9190611890565b6110c7565b005b34801561020157600080fd5b5061021c600480360381019061021791906118fc565b6113aa565b005b610226611430565b61022e611476565b60006002600083815260200190815260200160002090508060000160009054906101000a900473ffffffffffffffffffffffffffffffffffffffff1673ffffffffffffffffffffffffffffffffffffffff163373ffffffffffffffffffffffffffffffffffffffff16146102d7576040517f08c379a00000000000000000000000000000000000000000000000000000000081526004016102ce906119ac565b60405180910390fd5b8060040160019054906101000a900460ff1615610329576040517f08c379a000000000000000000000000000000000000000000000000000000000815260040161032090611a18565b60405180910390fd5b8060040160009054906101000a900460ff161561037b576040517f08c379a000000000000000000000000000000000000000000000000000000000815260040161037290611a84565b60405180910390fd5b623b5380816003015461038e9190611ad3565b4210156103d0576040517f08c379a00000000000000000000000000000000000000000000000000000000081526004016103c790611b53565b60405180910390fd5b600073ffffffffffffffffffffffffffffffffffffffff168160010160009054906101000a900473ffffffffffffffffffffffffffffffffffffffff1673ffffffffffffffffffffffffffffffffffffffff1614610463576040517f08c379a000000000000000000000000000000000000000000000000000000000815260040161045a90611bbf565b60405180910390fd5b60008160000160009054906101000a900473ffffffffffffffffffffffffffffffffffffffff1673ffffffffffffffffffffffffffffffffffffffff1682600201546040516104b190611c10565b60006040518083038185875af1925050503d80600081146104ee576040519150601f19603f3d011682016040523d82523d6000602084013e6104f3565b606091505b5050905080610537576040517f08c379a000000000000000000000000000000000000000000000000000000000815260040161052e90611c71565b60405180910390fd5b60018260040160006101000a81548160ff0219169083151502179055508160000160009054906101000a900473ffffffffffffffffffffffffffffffffffffffff1673ffffffffffffffffffffffffffffffffffffffff16837f7ca5472b7ea78c2c0141c5a12ee6d170cf4ce8ed06be3d22c8252ddfc7a6a2c484600201546040516105c39190611ca0565b60405180910390a350506105d56114b7565b50565b6105e0611430565b6105e8611476565b60006002600083815260200190815260200160002090508060040160019054906101000a900460ff1615610651576040517f08c379a000000000000000000000000000000000000000000000000000000000815260040161064890611a18565b60405180910390fd5b8060040160009054906101000a900460ff16156106a3576040517f08c379a000000000000000000000000000000000000000000000000000000000815260040161069a90611a84565b60405180910390fd5b600073ffffffffffffffffffffffffffffffffffffffff168160010160009054906101000a900473ffffffffffffffffffffffffffffffffffffffff1673ffffffffffffffffffffffffffffffffffffffff1603610736576040517f08c379a000000000000000000000000000000000000000000000000000000000815260040161072d90611d07565b60405180910390fd5b3373ffffffffffffffffffffffffffffffffffffffff168160010160009054906101000a900473ffffffffffffffffffffffffffffffffffffffff1673ffffffffffffffffffffffffffffffffffffffff16146107c8576040517f08c379a00000000000000000000000000000000000000000000000000000000081526004016107bf90611d99565b60405180910390fd5b60006064600183600201546107dd9190611db9565b6107e79190611e2a565b905060008183600201546107fb9190611e5b565b905060008360010160009054906101000a900473ffffffffffffffffffffffffffffffffffffffff1673ffffffffffffffffffffffffffffffffffffffff168260405161084790611c10565b60006040518083038185875af1925050503d8060008114610884576040519150601f19603f3d011682016040523d82523d6000602084013e610889565b606091505b50509050806108cd576040517f08c379a00000000000000000000000000000000000000000000000000000000081526004016108c490611edb565b60405180910390fd5b60006108d7610a6e565b73ffffffffffffffffffffffffffffffffffffffff16846040516108fa90611c10565b60006040518083038185875af1925050503d8060008114610937576040519150601f19603f3d011682016040523d82523d6000602084013e61093c565b606091505b5050905080610980576040517f08c379a000000000000000000000000000000000000000000000000000000000815260040161097790611f47565b60405180910390fd5b60018560040160016101000a81548160ff0219169083151502179055508460010160009054906101000a900473ffffffffffffffffffffffffffffffffffffffff1673ffffffffffffffffffffffffffffffffffffffff16867f3bfce8de0db7450cc169b94323c210e69a36c6a4a58c9f5d96bec4973adce39285604051610a089190611ca0565b60405180910390a35050505050610a1d6114b7565b50565b610a286114c0565b610a30611547565b565b60008060149054906101000a900460ff16905090565b610a506114c0565b610a5a60006115a9565b565b610a646114c0565b610a6c61166d565b565b60008060009054906101000a900473ffffffffffffffffffffffffffffffffffffffff16905090565b610a9f6114c0565b610aa7611430565b610aaf611476565b6064811115610af3576040517f08c379a0000000000000000000000000000000000000000000000000000000008152600401610aea90611fd9565b60405180910390fd5b60006002600084815260200190815260200160002090508060040160019054906101000a900460ff1615610b5c576040517f08c379a0000000000000000000000000000000000000000000000000000000008152600401610b5390611a18565b60405180910390fd5b8060040160009054906101000a900460ff1615610bae576040517f08c379a0000000000000000000000000000000000000000000000000000000008152600401610ba590611a84565b60405180910390fd5b623b53808160030154610bc19190611ad3565b421015610c03576040517f08c379a0000000000000000000000000000000000000000000000000000000008152600401610bfa9061206b565b60405180910390fd5b60006064838360020154610c179190611db9565b610c219190611e2a565b90506000818360020154610c359190611e5b565b90506000821115610d125760008360000160009054906101000a900473ffffffffffffffffffffffffffffffffffffffff1673ffffffffffffffffffffffffffffffffffffffff1683604051610c8a90611c10565b60006040518083038185875af1925050503d8060008114610cc7576040519150601f19603f3d011682016040523d82523d6000602084013e610ccc565b606091505b5050905080610d10576040517f08c379a0000000000000000000000000000000000000000000000000000000008152600401610d07906120d7565b60405180910390fd5b505b600081118015610d735750600073ffffffffffffffffffffffffffffffffffffffff168360010160009054906101000a900473ffffffffffffffffffffffffffffffffffffffff1673ffffffffffffffffffffffffffffffffffffffff1614155b15610e4a5760008360010160009054906101000a900473ffffffffffffffffffffffffffffffffffffffff1673ffffffffffffffffffffffffffffffffffffffff1682604051610dc290611c10565b60006040518083038185875af1925050503d8060008114610dff576040519150601f19603f3d011682016040523d82523d6000602084013e610e04565b606091505b5050905080610e48576040517f08c379a0000000000000000000000000000000000000000000000000000000008152600401610e3f90611edb565b60405180910390fd5b505b60018360040160016101000a81548160ff021916908315150217905550847f1a7c2fae4b98e2876cd08eeeff002db0bdd25879c23654a151097ae6449681208460000160009054906101000a900473ffffffffffffffffffffffffffffffffffffffff168560010160009054906101000a900473ffffffffffffffffffffffffffffffffffffffff168585604051610ee59493929190612156565b60405180910390a2505050610ef86114b7565b5050565b610f04611476565b6000600360008154610f159061219b565b91905081905590506040518060c001604052803373ffffffffffffffffffffffffffffffffffffffff168152602001600073ffffffffffffffffffffffffffffffffffffffff168152602001348152602001428152602001600015158152602001600015158152506002600083815260200190815260200160002060008201518160000160006101000a81548173ffffffffffffffffffffffffffffffffffffffff021916908373ffffffffffffffffffffffffffffffffffffffff16021790555060208201518160010160006101000a81548173ffffffffffffffffffffffffffffffffffffffff021916908373ffffffffffffffffffffffffffffffffffffffff160217905550604082015181600201556060820151816003015560808201518160040160006101000a81548160ff02191690831515021790555060a08201518160040160016101000a81548160ff0219169083151502179055509050503373ffffffffffffffffffffffffffffffffffffffff16817f1599c0fcf897af5babc2bfcf707f5dc050f841b044d97c3251ecec35b9abf80b346040516110bc9190611ca0565b60405180910390a350565b6110cf611476565b60006002600084815260200190815260200160002090508060000160009054906101000a900473ffffffffffffffffffffffffffffffffffffffff1673ffffffffffffffffffffffffffffffffffffffff163373ffffffffffffffffffffffffffffffffffffffff1614611178576040517f08c379a000000000000000000000000000000000000000000000000000000000815260040161116f90612255565b60405180910390fd5b8060040160019054906101000a900460ff16156111ca576040517f08c379a00000000000000000000000000000000000000000000000000000000081526004016111c190611a18565b60405180910390fd5b8060040160009054906101000a900460ff161561121c576040517f08c379a000000000000000000000000000000000000000000000000000000000815260040161121390611a84565b60405180910390fd5b600073ffffffffffffffffffffffffffffffffffffffff168160010160009054906101000a900473ffffffffffffffffffffffffffffffffffffffff1673ffffffffffffffffffffffffffffffffffffffff16146112af576040517f08c379a00000000000000000000000000000000000000000000000000000000081526004016112a6906122c1565b60405180910390fd5b600073ffffffffffffffffffffffffffffffffffffffff168273ffffffffffffffffffffffffffffffffffffffff160361131e576040517f08c379a000000000000000000000000000000000000000000000000000000000815260040161131590612353565b60405180910390fd5b818160010160006101000a81548173ffffffffffffffffffffffffffffffffffffffff021916908373ffffffffffffffffffffffffffffffffffffffff1602179055508173ffffffffffffffffffffffffffffffffffffffff16837fea9e751b3720a2a22a2e1646bbf8871d9825dc965c682dd621f635285639d7dc60405160405180910390a3505050565b6113b26114c0565b600073ffffffffffffffffffffffffffffffffffffffff168173ffffffffffffffffffffffffffffffffffffffff16036114245760006040517f1e4fbdf700000000000000000000000000000000000000000000000000000000815260040161141b91906117f7565b60405180910390fd5b61142d816115a9565b50565b60026001540361146c576040517f3ee5aeb500000000000000000000000000000000000000000000000000000000815260040160405180910390fd5b6002600181905550565b61147e610a32565b156114b5576040517fd93c066500000000000000000000000000000000000000000000000000000000815260040160405180910390fd5b565b60018081905550565b6114c86116d0565b73ffffffffffffffffffffffffffffffffffffffff166114e6610a6e565b73ffffffffffffffffffffffffffffffffffffffff1614611545576115096116d0565b6040517f118cdaa700000000000000000000000000000000000000000000000000000000815260040161153c91906117f7565b60405180910390fd5b565b61154f6116d8565b60008060146101000a81548160ff0219169083151502179055507f5db9ee0a495bf2e6ff9c91a7834c1ba4fdd244a5e8aa4e537bd38aeae4b073aa6115926116d0565b60405161159f91906117f7565b60405180910390a1565b60008060009054906101000a900473ffffffffffffffffffffffffffffffffffffffff169050816000806101000a81548173ffffffffffffffffffffffffffffffffffffffff021916908373ffffffffffffffffffffffffffffffffffffffff1602179055508173ffffffffffffffffffffffffffffffffffffffff168173ffffffffffffffffffffffffffffffffffffffff167f8be0079c531659141344cd1fd0a4f28419497f9722a3daafe3b4186f6b6457e060405160405180910390a35050565b611675611476565b6001600060146101000a81548160ff0219169083151502179055507f62e78cea01bee320cd4e420270b5ea74000d11b0c9f74754ebdbfc544b05a2586116b96116d0565b6040516116c691906117f7565b60405180910390a1565b600033905090565b6116e0610a32565b611716576040517f8dfc202b00000000000000000000000000000000000000000000000000000000815260040160405180910390fd5b565b600080fd5b6000819050919050565b6117308161171d565b811461173b57600080fd5b50565b60008135905061174d81611727565b92915050565b60006020828403121561176957611768611718565b5b60006117778482850161173e565b91505092915050565b60008115159050919050565b61179581611780565b82525050565b60006020820190506117b0600083018461178c565b92915050565b600073ffffffffffffffffffffffffffffffffffffffff82169050919050565b60006117e1826117b6565b9050919050565b6117f1816117d6565b82525050565b600060208201905061180c60008301846117e8565b92915050565b6000806040838503121561182957611828611718565b5b60006118378582860161173e565b92505060206118488582860161173e565b9150509250929050565b600061185d826117b6565b9050919050565b61186d81611852565b811461187857600080fd5b50565b60008135905061188a81611864565b92915050565b600080604083850312156118a7576118a6611718565b5b60006118b58582860161173e565b92505060206118c68582860161187b565b9150509250929050565b6118d9816117d6565b81146118e457600080fd5b50565b6000813590506118f6816118d0565b92915050565b60006020828403121561191257611911611718565b5b6000611920848285016118e7565b91505092915050565b600082825260208201905092915050565b7f4f6e6c7920746865206465706f7369746f722063616e20726566756e6420746860008201527f652066756e64732e000000000000000000000000000000000000000000000000602082015250565b6000611996602883611929565b91506119a18261193a565b604082019050919050565b600060208201905081810360008301526119c581611989565b9050919050565b7f46756e647320616c72656164792072656c65617365642e000000000000000000600082015250565b6000611a02601783611929565b9150611a0d826119cc565b602082019050919050565b60006020820190508181036000830152611a31816119f5565b9050919050565b7f46756e64732068617665206265656e20726566756e6465642e00000000000000600082015250565b6000611a6e601983611929565b9150611a7982611a38565b602082019050919050565b60006020820190508181036000830152611a9d81611a61565b9050919050565b7f4e487b7100000000000000000000000000000000000000000000000000000000600052601160045260246000fd5b6000611ade8261171d565b9150611ae98361171d565b9250828201905080821115611b0157611b00611aa4565b5b92915050565b7f526566756e64206e6f7420617661696c61626c65207965742e00000000000000600082015250565b6000611b3d601983611929565b9150611b4882611b07565b602082019050919050565b60006020820190508181036000830152611b6c81611b30565b9050919050565b7f526563697069656e742068617320616c7265616479206265656e207365742e00600082015250565b6000611ba9601f83611929565b9150611bb482611b73565b602082019050919050565b60006020820190508181036000830152611bd881611b9c565b9050919050565b600081905092915050565b50565b6000611bfa600083611bdf565b9150611c0582611bea565b600082019050919050565b6000611c1b82611bed565b9150819050919050565b7f5472616e73666572206661696c65642e00000000000000000000000000000000600082015250565b6000611c5b601083611929565b9150611c6682611c25565b602082019050919050565b60006020820190508181036000830152611c8a81611c4e565b9050919050565b611c9a8161171d565b82525050565b6000602082019050611cb56000830184611c91565b92915050565b7f526563697069656e74206e6f74207365742e0000000000000000000000000000600082015250565b6000611cf1601283611929565b9150611cfc82611cbb565b602082019050919050565b60006020820190508181036000830152611d2081611ce4565b9050919050565b7f4f6e6c792074686520726563697069656e742063616e2072656c65617365207460008201527f68652066756e64732e0000000000000000000000000000000000000000000000602082015250565b6000611d83602983611929565b9150611d8e82611d27565b604082019050919050565b60006020820190508181036000830152611db281611d76565b9050919050565b6000611dc48261171d565b9150611dcf8361171d565b9250828202611ddd8161171d565b91508282048414831517611df457611df3611aa4565b5b5092915050565b7f4e487b7100000000000000000000000000000000000000000000000000000000600052601260045260246000fd5b6000611e358261171d565b9150611e408361171d565b925082611e5057611e4f611dfb565b5b828204905092915050565b6000611e668261171d565b9150611e718361171d565b9250828203905081811115611e8957611e88611aa4565b5b92915050565b7f5472616e7366657220746f20726563697069656e74206661696c65642e000000600082015250565b6000611ec5601d83611929565b9150611ed082611e8f565b602082019050919050565b60006020820190508181036000830152611ef481611eb8565b9050919050565b7f5472616e7366657220746f2046616e616c797a6572206661696c65642e000000600082015250565b6000611f31601d83611929565b9150611f3c82611efb565b602082019050919050565b60006020820190508181036000830152611f6081611f24565b9050919050565b7f4465706f7369746f722070657263656e74616765206d7573742062652062657460008201527f7765656e203020616e64203130302e0000000000000000000000000000000000602082015250565b6000611fc3602f83611929565b9150611fce82611f67565b604082019050919050565b60006020820190508181036000830152611ff281611fb6565b9050919050565b7f44697370757465207265736f6c7574696f6e206e6f7420617661696c61626c6560008201527f207965742e000000000000000000000000000000000000000000000000000000602082015250565b6000612055602583611929565b915061206082611ff9565b604082019050919050565b6000602082019050818103600083015261208481612048565b9050919050565b7f5472616e7366657220746f206465706f7369746f72206661696c65642e000000600082015250565b60006120c1601d83611929565b91506120cc8261208b565b602082019050919050565b600060208201905081810360008301526120f0816120b4565b9050919050565b6000819050919050565b600061211c612117612112846117b6565b6120f7565b6117b6565b9050919050565b600061212e82612101565b9050919050565b600061214082612123565b9050919050565b61215081612135565b82525050565b600060808201905061216b6000830187612147565b6121786020830186612147565b6121856040830185611c91565b6121926060830184611c91565b95945050505050565b60006121a68261171d565b91507fffffffffffffffffffffffffffffffffffffffffffffffffffffffffffffffff82036121d8576121d7611aa4565b5b600182019050919050565b7f4f6e6c7920746865206465706f7369746f722063616e2073657420746865207260008201527f6563697069656e742e0000000000000000000000000000000000000000000000602082015250565b600061223f602983611929565b915061224a826121e3565b604082019050919050565b6000602082019050818103600083015261226e81612232565b9050919050565b7f526563697069656e7420616c7265616479207365742e00000000000000000000600082015250565b60006122ab601683611929565b91506122b682612275565b602082019050919050565b600060208201905081810360008301526122da8161229e565b9050919050565b7f526563697069656e7420616464726573732063616e6e6f74206265207a65726f60008201527f20616464726573732e0000000000000000000000000000000000000000000000602082015250565b600061233d602983611929565b9150612348826122e1565b604082019050919050565b6000602082019050818103600083015261236c81612330565b905091905056fea26469706673582212207603d2a5dc4538c41a5eaeab4a0354b41ed4cfbbd734933c4945d6906887091e64736f6c63430008180033",
  "linkReferences": {},
  "deployedLinkReferences": {}
}